:100000000C94E2000C940A010C940A010C940A016D
:100010000C940A010C940A010C940A010C940A0134
:100020000C940A010C940A010C940A010C94E60544
:100030000C940A010C940A010C940A010C940A0114
:100040000C9444050C940A010C94B4050C948E0590
:100050000C940A010C940A010C940A010C940A01F4
:100060000C940A010C940A01005EBCE2613FDD833E
:10007000C29C7E20A3FD1F419DC3217FFCA2401E88
:100080005F01E3BD3E6082DC237D9FC1421CFEA078
:10009000E1BF5D0380DE3C62BEE0025CDF81633D68
:1000A0007C22C09E1D43A1FF4618FAA427799BC558
:1000B00084DA3866E5BB5907DB856739BAE4065848
:1000C0001947A5FB7826C49A653BD987045AB8E638
:1000D000A7F91B45C6987A24F8A6441A99C7257B28
:1000E0003A6486D85B05E7B98CD2306EEDB3510F18
:1000F0004E10F2AC2F7193CD114FADF3702ECC9208
:10010000D38D6F31B2EC0E50AFF1134DCE90722CF7
:100110006D33D18F0C52B0EE326C8ED0530DEFB1E7
:10012000F0AE4C1291CF2D73CA947628ABF51749D7
:100130000856B4EA6937D58B5709EBB536688AD4C7
:1001400095CB2977F4AA4816E9B7550B88D6346AB7
:100150002B7597C94A14F6A8742AC896154BA9F7A7
:10016000B6E80A54D7896B35000000002400270048
:100170002A0000000000250028002B0000000008D5
:10018000000201000003040700000000000000005E
:1001900000000000230026002900040404040404D5
:1001A0000404020202020202030303030303010226
:1001B00004081020408001020408102001020408F5
:1001C0001020580611241FBECFEFD8E0DEBFCDBFF0
:1001D00011E0A0E0B1E0EAEEF5E102C005900D9279
:1001E000A23EB107D9F722E0A2EEB1E001C01D9214
:1001F000A43BB207E1F710E0C2EED0E004C02197C3
:10020000FE010E94E80AC13ED107C9F70E94D70645
:100210000C94F30A0C9400000895833081F028F4C4
:10022000813099F08230A1F008958730A9F08830AC
:10023000B9F08430D1F4809180008F7D03C080912B
:1002400080008F7780938000089584B58F7702C0F7
:1002500084B58F7D84BD08958091B0008F7703C0F1
:100260008091B0008F7D8093B00008951F93CF934D
:10027000DF93282F30E0F901E458FE4F8491F90113
:10028000E255FE4FD491F901E656FE4FC491CC23BE
:10029000C9F0162F81110E940D01EC2FF0E0EE0F36
:1002A000FF1FEE58FE4FA591B4918FB7F89411112E
:1002B00005C09C91ED2FE095E92302C0EC91ED2B58
:1002C000EC938FBFDF91CF911F910895CF93DF9370
:1002D00090E0FC01E255FE4F2491FC01E656FE4FF2
:1002E0008491882361F190E0880F991FFC01E859FF
:1002F000FE4FC591D491FC01EE58FE4FA591B491EB
:10030000611109C09FB7F894888120958223888362
:10031000EC912E230BC0623061F49FB7F8943881C2
:10032000822F809583238883EC912E2B2C939FBF63
:1003300006C08FB7F894E8812E2B28838FBFDF91FA
:10034000CF9108953FB7F8948091F2019091F30115
:10035000A091F401B091F50126B5A89B05C02F3FEF
:1003600019F00196A11DB11D3FBFBA2FA92F982FDB
:100370008827820F911DA11DB11DBC01CD0142E056
:10038000660F771F881F991F4A95D1F708958F929E
:100390009F92AF92BF92CF92DF92EF92FF926B014A
:1003A0007C010E94A2014B015C01C114D104E10453
:1003B000F104F1F00E94A201DC01CB018819990936
:1003C000AA09BB09883E9340A105B10570F321E05D
:1003D000C21AD108E108F10888EE880E83E0981E61
:1003E000A11CB11CC114D104E104F10419F7DDCF43
:1003F000FF90EF90DF90CF90BF90AF909F908F9045
:100400000895CF92DF92EF92FF920F931F93CF93B5
:10041000DF936C017A018B01C0E0D0E0CE15DF05DF
:1004200089F0D8016D918D01D601ED91FC9101907B
:10043000F081E02DC6010995892B11F47E0102C0DF
:100440002196ECCFC701DF91CF911F910F91FF90C3
:10045000EF90DF90CF900895089580E090E00895A8
:10046000FC01538D448D252F30E0842F90E0821BBA
:10047000930B541710F0CF96089501970895FC013F
:10048000918D828D981761F0828DDF01A80FB11DCB
:100490005D968C91928D9F5F9F73928F90E00895EF
:1004A0008FEF9FEF0895FC01918D828D981731F0A9
:1004B000828DE80FF11D858D90E008958FEF9FEFFD
:1004C0000895FC01918D228D892F90E0805C9F4FD3
:1004D000821B91098F739927089586EF91E00E94FE
:1004E000610221E0892B09F420E0822F0895FC01AC
:1004F000848DDF01A80FB11DA35ABF4F2C91848DAD
:1005000090E001968F739927848FA689B7892C93E1
:10051000A089B1898C9180648C93938D848D98137C
:1005200006C00288F389E02D80818F7D8083089545
:10053000EF92FF920F931F93CF93DF93EC0181E033
:10054000888F9B8D8C8D981305C0E889F9898081EF
:1005500085FD24C0F62E0B8D10E00F5F1F4F0F732B
:100560001127E02E8C8DE8120CC00FB607FCFACFD5
:10057000E889F989808185FFF5CFCE010E94770255
:10058000F1CF8B8DFE01E80FF11DE35AFF4FF08292
:100590000B8FEA89FB898081806207C0EE89FF8921
:1005A0006083E889F98980818064808381E090E0BC
:1005B000DF91CF911F910F91FF90EF900895CF930E
:1005C000DF93EC01888D8823C9F0EA89FB8980815B
:1005D00085FD05C0A889B9898C9186FD0FC00FB62D
:1005E00007FCF5CF808185FFF2CFA889B9898C916E
:1005F00085FFEDCFCE010E947702E7CFDF91CF914B
:10060000089580E090E0892B29F00E946D0281110D
:100610000C9400000895DC01E0E0615038F08D9109
:10062000E827F0E0E859FF4FE491F7CF8E2F0895C7
:10063000FC0190810180F281E02DF8948181892B69
:1006400081832281892F809528232283A7E0B0E02F
:100650001197F1F7218182238183A3E2B0E0119702
:10066000F1F780817894EFECF0E03197F1F798237F
:1006700081E009F480E00895FC0190810180F2811D
:10068000E02D892F809560FF12C0F894228182238B
:1006900082838181892B8183A3E2B0E01197F1F7F6
:1006A0008281982B9283789487ED90E011C0F89422
:1006B0002281822382838181892B8183AFEFB0E005
:1006C0001197F1F78281982B928378948FE090E0D4
:1006D0000197F1F70895CF92DF92EF92FF920F9377
:1006E0001F93CF93DF931F92CDB7DEB76C01E62E39
:1006F00008E010E0FF24F39461E08F2D8E2109F4CF
:1007000060E0C60149830E943C03FF0C01501109BF
:1007100049810115110581F7411115C0F894D601E1
:100720001196ED91FC91129791818C91809589237E
:1007300081831196ED91FC91129792818C91809515
:100740008923828378940F90DF91CF911F910F912D
:10075000FF90EF90DF90CF900895CF92DF92EF92CD
:10076000FF920F931F93CF93DF931F92CDB7DEB706
:100770008C01F62E40E065E579830E946B03CF2C57
:100780007981D72E760188E0E80EF11CF60161919F
:100790006F0140E0C8010E946B03CE14DF04B1F783
:1007A0000F90DF91CF911F910F91FF90EF90DF900D
:1007B000CF900895FC0190810180F281E02DF894A2
:1007C0008181292F20958223818378948DE743E0CE
:1007D00050E0815021F1DA011197F1F7308139238E
:1007E000C1F3F8948281822382838181892B818362
:1007F0007894ABE7B7E01197F1F7F894818128235B
:100800002183A3E1B1E01197F1F78081982381E082
:1008100009F080E07894E3E6F6E03197F1F7089587
:10082000AF92BF92CF92DF92EF92FF920F931F93FE
:10083000CF93DF93EC018B01809198029091990204
:100840000E94DA038823A1F1BE0180919802909161
:1008500099020E94AD0340E06EEB80919802909166
:1008600099020E946B03E801680189E0C80ED11C5F
:10087000A0909802B090990288E0E82EF12C01E057
:1008800010E0C5010E9418038111102B000F81E0B8
:10089000E81AF108B1F71993CC15DD0549F78091F5
:1008A0009802909199020E94DA0391E0813009F058
:1008B00090E0892FDF91CF911F910F91FF90EF90E2
:1008C000DF90CF90BF90AF900895CF93DF93CDB7D7
:1008D000DEB729970FB6F894DEBF0FBECDBFFC017F
:1008E0002081203119F1BE016F5F7F4F0E941004FB
:1008F000882379F068E0CE0101960E940B03998568
:10090000891307C008C0803458F08F3569F08F37DD
:1009100069F080E00CC08D818F33A9F78AE007C0B1
:100920008F31B9F789E003C08BE001C08CE02996D4
:100930000FB6F894DEBF0FBECDBFDF91CF91089503
:100940008627082E8295807F8025092E982F8295F4
:100950008F700826869598278927880F880F880F1B
:1009600080250895AF92BF92CF92DF92EF92FF92CF
:100970000F931F93CF93DF931F92CDB7DEB75C0128
:10098000D62EE72EFC018585811105C0C5010E9488
:10099000DA03811106C0F50113861586148680E0FE
:1009A00065C040E060EFC5010E946B0301E0F12CDF
:1009B000C12C11E0C5010E941803682FC50169838D
:1009C0000E9418036981613019F48130B9F433C091
:1009D0004F2D50E068131BC0F5018385181730F4C4
:1009E000E40FF51F8381802349F402C0181731F00A
:1009F00060E0193058F4F501148708C0F501EF0DD7
:100A0000F11D8381802B838361E009C0C12EF50134
:100A1000E40FF51F9381802F809589238383C5017F
:100A20000E943C031F5F000F11F4F39401E0F7E014
:100A3000FF1508F0BFCF113408F4ADCFF501C38620
:100A4000C11002C081E08587F5018381882309F404
:100A5000A2CFD5011396ED2DFE2D9501255F3F4FB9
:100A60008D918193A217B307D9F781E00F90DF91A1
:100A7000CF911F910F91FF90EF90DF90CF90BF909B
:100A8000AF9008950E94EE0A1F920F920FB60F9238
:100A900011242F933F938F939F93AF93BF93809194
:100AA000EE019091EF01A091F001B091F101309130
:100AB000ED0123E0230F2D3720F40196A11DB11D78
:100AC00005C026E8230F0296A11DB11D2093ED015C
:100AD0008093EE019093EF01A093F001B093F101A8
:100AE0008091F2019091F301A091F401B091F50190
:100AF0000196A11DB11D8093F2019093F301A09383
:100B0000F401B093F501BF91AF919F918F913F9107
:100B10002F910F900FBE0F901F9018951F920F925C
:100B20000FB60F9211242F933F934F935F936F93C0
:100B30007F938F939F93AF93BF93EF93FF9386EF32
:100B400091E00E947702FF91EF91BF91AF919F9149
:100B50008F917F916F915F914F913F912F910F9066
:100B60000FBE0F901F9018951F920F920FB60F9205
:100B700011242F938F939F93EF93FF93E09106029D
:100B8000F09107028081E0910C02F0910D0282FD4C
:100B900012C0908180910F028F5F8F73209110029D
:100BA000821751F0E0910F02F0E0EA50FE4F958F6E
:100BB00080930F0201C08081FF91EF919F918F91EF
:100BC0002F910F900FBE0F901F9018951F920F92AC
:100BD0000FB60F9211242F933F934F935F936F9310
:100BE0007F938F939F93AF93BF93CF93DF93EF93B5
:100BF000FF938091EB01882319F18091E70191E047
:100C0000980F9093E70181111BC0C091E901809179
:100C1000EA01C817E0F06091E6018AE00E9436011F
:100C200060E0809100010E9436011092EB018091FA
:100C3000E4019091E50101969093E5018093E40130
:100C40008091E701883008F11092E7011EC0EC2F77
:100C5000F0E0EF5FFE4F90818091E801D1E0D80F86
:100C6000D093E80161E070E001C0660F8A95EAF771
:100C70006923809100010E943601D63008F310925A
:100C8000E801CF5FC093E901DBCFFF91EF91DF91E6
:100C9000CF91BF91AF919F918F917F916F915F9114
:100CA0004F913F912F910F900FBE0F901F9018956D
:100CB0001092F9011092F80188EE93E0A0E0B0E004
:100CC0008093FA019093FB01A093FC01B093FD0186
:100CD00081ED91E09093F7018093F60185EC90E02F
:100CE000909303028093020284EC90E090930502BB
:100CF0008093040280EC90E09093070280930602B8
:100D000081EC90E0909309028093080282EC90E0DD
:100D100090930B0280930A0286EC90E090930D0270
:100D200080930C0210920F02109210021092110286
:100D30001092120260E087E00E946601E5EBF1E0AC
:100D4000E491E093A602E1EAF1E0E491F0E0EE0F35
:100D5000FF1FE057FE4F859194919093A8028093D6
:100D6000A7021092B1021092B3021092B202E1EB0C
:100D7000F2E0129282E0E93AF807D9F78CE091E0CC
:100D80009093A5028093A40286EA92E09093990240
:100D900080939802109297021092930289E08093B8
:100DA000940281E080939502809396020895CF93F8
:100DB000DF93CDB7DEB7A9970FB6F894DEBF0FBEAD
:100DC000CDBF789484B5826084BD84B5816084BDD4
:100DD00085B5826085BD85B5816085BD80916E00D9
:100DE000816080936E00109281008091810082600A
:100DF0008093810080918100816080938100809147
:100E000080008160809380008091B1008460809335
:100E1000B1008091B00081608093B00080917A0031
:100E2000846080937A0080917A00826080937A0057
:100E300080917A00816080937A0080917A00806846
:100E400080937A001092C10061E08DE00E946601FB
:100E500081E08093E60188E0809300018EE0E9EA7A
:100E6000F1E0DE01119601900D928A95E1F77E0185
:100E700023E0E20EF11C11E0812C84E2982E84EF35
:100E8000A82EB12C412C9DE7592E612C712CF70115
:100E9000219131917F0140E050E0C501B4010E94F1
:100EA000B20ACA01B901A30192010E94B20A22301A
:100EB00031054105510520F41F5F173041F729C066
:100EC000163039F1112329F11092800088E08093C7
:100ED000810080918100182B10938100309389004C
:100EE0002093880080916F00826080936F0061E0A2
:100EF000809100010E94660160E08BE00E94660123
:100F000061E08AE00E9466016091E6018AE00E9449
:100F10003601E0910602F091070282E08083E091C1
:100F20000202F09103021082E0910402F0910502A6
:100F30008FEC808310920E02E0910A02F0910B0276
:100F400086E08083E0910802F0910902808180614F
:100F50008083E0910802F09109028081886080839B
:100F6000E0910802F0910902808180688083E0911D
:100F70000802F091090280818F7D8083E0919802C0
:100F8000F0919902138615861486DF011B9633961D
:100F90001E92AE17BF07E1F71092970211E0BE0153
:100FA0006E5D7F4F80919802909199020E94B204E9
:100FB000882309F451C067E0CE0182960E940B039A
:100FC00099A58913ECCF80919302811127C080915C
:100FD0009802909199020E94DA03BE016E5D7F4FE4
:100FE00080919802909199020E94AD0340E064EBD9
:100FF00080919802909199020E946B0380919802CF
:10100000909199020E941803082F80919802909164
:1010100099020E94DA03002309F43DC1BE016F5F0B
:101020007F4FCE0182960E94100400919402CE015F
:1010300082960E946504801718F48091940204C07F
:10104000CE0182960E94650480939402809197025B
:101050008F5F80939702A3CF1092EC01B6E34B2EE3
:101060006E01F0E2CF0ED11C15E2512E0AE1702E76
:1010700061E08DE00E94360164EF71E080E090E075
:101080000E94C70160E08DE00E94360164EF71E0CC
:1010900080E090E00E94C7018091980290919902AF
:1010A0000E94DA0340E06CEC8091980290919902E2
:1010B0000E946B034091930264E4809198029091A6
:1010C00099020E946B03809195028823A9F0E09118
:1010D0009402E950E33040F4F0E0EE0FFF1FE954D2
:1010E000FE4F6081718102C06EEE72E0072E000C2F
:1010F000880B990B0E94C701E0919802F091990228
:10110000138615861486DF011B96CF0103961E9267
:10111000A817B907E1F7BE016E5D7F4FCF010E94AE
:10112000B204882349F067E0CE0182960E940B0347
:1011300099A5891709F4B2C0812C912C7EEFA72EB6
:1011400072ECB72E1091EC0119A248A2F6010190A1
:101150000020E9F73197AF014C195D09B60186EF20
:1011600091E00E94010242E050E06FED71E086EFF5
:1011700091E00E94010281E089831A838B829C8224
:10118000AD82BE8253E0A52EB12C6DE0662E01E04B
:101190008091EB018111FCCF69E08FEF9FEF0E94FE
:1011A000A0046092090150920A01FE0131964F019C
:1011B000E12CF12CF40111914F01612F0E94A00448
:1011C000D701AF5FBE4FE12FF0E044E0F595E79522
:1011D0004A95E1F7E354FE4F20811A962C931A9713
:1011E0001F70E12FF0E0E354FE4F20811B962C93FB
:1011F000F2E0EF0EF11C2CE0E216F104D9F6FC014E
:10120000E095F095DF0194E0B695A7959A95E1F702
:10121000AF70BB27A354BE4F8C9180931701DF01A1
:10122000AF70BB27A354BE4F8C9180931801DF0190
:10123000AB2FBB27A295AF70A354BE4F8C91809368
:101240001901EF2FFF27EF70FF27E354FE4F808136
:1012500080931A017092EA011092E9011092E8015C
:101260001092E7016091E60160278AE00E94360152
:101270000093EB018091EB018111FCCF31E0A31AC7
:10128000B10809F085CF8091EC018F5F8093EC016C
:101290000E940103EDCE10939302C0CEBE016F5F9A
:1012A0007F4FCE0182960E941004882309F448C023
:1012B00068E0CE0101960E940B039985891340C016
:1012C000698148E0649FB00111248A81282F30E0B1
:1012D000322F2227330F330F330F262B372B8AA1C0
:1012E000803161F5688570E08F81AB01481B510941
:1012F000CA019695982F8827979587950E949E0AF0
:1013000060517109207FF3E0220F331FFA95E1F756
:10131000620F731F613854EE75070CF40DCF072E62
:10132000000C880B990B0E94A50920E030E040E0FA
:101330005CE30E94E0094B015C0104CFB901EACFF4
:1013400060E874EEE7CFE89409C097FB3EF490950F
:101350008095709561957F4F8F4F9F4F9923A9F08E
:10136000F92F96E9BB279395F6958795779567951D
:10137000B795F111F8CFFAF4BB0F11F460FF1BC061
:101380006F5F7F4F8F4F9F4F16C0882311F096E9F4
:1013900011C0772321F09EE8872F762F05C06623A2
:1013A00071F096E8862F70E060E02AF09A95660F5B
:1013B000771F881FDAF7880F9695879597F9089514
:1013C0000E94F3090C94640A0E94560A38F00E94A5
:1013D0005D0A20F0952311F00C944D0A0C94530AE9
:1013E00011240C94980A0E94750A70F3959FC1F31A
:1013F000950F50E0551F629FF001729FBB27F00DC3
:10140000B11D639FAA27F00DB11DAA1F649F662717
:10141000B00DA11D661F829F2227B00DA11D621F66
:10142000739FB00DA11D621F839FA00D611D221F20
:10143000749F3327A00D611D231F849F600D211D04
:10144000822F762F6A2F11249F5750409AF0F1F087
:1014500088234AF0EE0FFF1FBB1F661F771F881FF0
:1014600091505040A9F79E3F510580F00C944D0AD1
:101470000C94980A5F3FE4F3983ED4F386957795F1
:101480006795B795F795E7959F5FC1F7FE2B880F96
:10149000911D9695879597F9089597F99F6780E82C
:1014A00070E060E008959FEF80EC089500240A94B6
:1014B0001616170618060906089500240A9412162F
:1014C0001306140605060895092E0394000C11F462
:1014D000882352F0BB0F40F4BF2B11F460FF04C00F
:1014E0006F5F7F4F8F4F9F4F089557FD9058440F68
:1014F000551F59F05F3F71F04795880F97FB991F73
:1015000061F09F3F79F0879508951216130614062F
:10151000551FF2CF4695F1DF08C0161617061806BC
:10152000991FF1CF86957105610508940895E89497
:10153000BB2766277727CB0197F9089597FB072EDE
:1015400016F4009407D077FD09D00E94D40A07FC56
:1015500005D03EF4909581959F4F089570956195C3
:101560007F4F0895A1E21A2EAA1BBB1BFD010DC0DF
:10157000AA1FBB1FEE1FFF1FA217B307E407F50743
:1015800020F0A21BB30BE40BF50B661F771F881F1F
:10159000991F1A9469F760957095809590959B01B5
:1015A000AC01BD01CF010895AA1BBB1B51E107C0CF
:1015B000AA1FBB1FA617B70710F0A61BB70B881FE3
:1015C000991F5A95A9F780959095BC01CD01089572
:1015D000EE0FFF1F0590F491E02D099481E090E05B
:0A15E000F8940C94F30AF894FFCF7E
:1015EA000C2A2A2A2A2A2A382C0000000000000085
:1015FA0000000000000000000000000000000000E1
:10160A0000000000000000000000000000000000D0
:10161A0000000000000000000000000000000000C0
:10162A0000000000000000000000000000000000B0
:10163A0000000000000000000000000000000000A0
:10164A000000000000000000000000000000000090
:10165A000000000000000000000000000000000080
:10166A000000000000000000000000000000000070
:10167A000000000000000000000000000000000060
:10168A000000000000000000000000010008004007
:10169A000000010004050D5E00BC0077010D0E1369
:1016AA001516191A1C232526292A2C323400000063
:1016BA0000980201023002DF0261023F0253020D6A
:0216CA000A0014
:00000001FF
