:100000000C94E2000C940A010C940A010C940A016D
:100010000C940A010C940A010C940A010C940A0134
:100020000C940A010C940A010C940A010C948803A4
:100030000C940A010C940A010C940A010C940A0114
:100040000C9461060C940A010C9451020C942B023E
:100050000C940A010C940A010C940A010C940A01F4
:100060000C940A010C940A01005EBCE2613FDD833E
:10007000C29C7E20A3FD1F419DC3217FFCA2401E88
:100080005F01E3BD3E6082DC237D9FC1421CFEA078
:10009000E1BF5D0380DE3C62BEE0025CDF81633D68
:1000A0007C22C09E1D43A1FF4618FAA427799BC558
:1000B00084DA3866E5BB5907DB856739BAE4065848
:1000C0001947A5FB7826C49A653BD987045AB8E638
:1000D000A7F91B45C6987A24F8A6441A99C7257B28
:1000E0003A6486D85B05E7B98CD2306EEDB3510F18
:1000F0004E10F2AC2F7193CD114FADF3702ECC9208
:10010000D38D6F31B2EC0E50AFF1134DCE90722CF7
:100110006D33D18F0C52B0EE326C8ED0530DEFB1E7
:10012000F0AE4C1291CF2D73CA947628ABF51749D7
:100130000856B4EA6937D58B5709EBB536688AD4C7
:1001400095CB2977F4AA4816E9B7550B88D6346AB7
:100150002B7597C94A14F6A8742AC896154BA9F7A7
:10016000B6E80A54D7896B35000000002400270048
:100170002A0000000000250028002B0000000008D5
:10018000000201000003040700000000000000005E
:1001900000000000230026002900040404040404D5
:1001A0000404020202020202030303030303010226
:1001B00004081020408001020408102001020408F5
:1001C0001020040A11241FBECFEFD4E0DEBFCDBF44
:1001D00011E0A0E0B1E0E8E4F9E102C005900D9281
:1001E000AE3EB107D9F722E0AEEEB1E001C01D92FC
:1001F000A03CB207E1F710E0C2EED0E004C02197C6
:10020000FE010E94970CC13ED107C9F70E94AB06C0
:100210000C94A20C0C940000CF92DF92EF92FF920C
:100220000F931F93CF93DF936C017A018B01C0E092
:10023000D0E0CE15DF0589F0D8016D918D01D60192
:10024000ED91FC910190F081E02DC6010995892B7B
:1002500011F47E0102C02196ECCFC701DF91CF914E
:100260001F910F91FF90EF90DF90CF900895089528
:1002700080E090E00895FC01538D448D252F30E0FF
:10028000842F90E0821B930B541710F0CF960895A3
:1002900001970895FC01918D828D981761F0828DF0
:1002A000DF01A80FB11D5D968C91928D9F5F9F73AA
:1002B000928F90E008958FEF9FEF0895FC01918D4C
:1002C000828D981731F0828DE80FF11D858D90E0B9
:1002D00008958FEF9FEF0895FC01918D228D892F56
:1002E00090E0805C9F4F821B91098F73992708953E
:1002F00089EF91E00E946C0121E0892B09F420E054
:10030000822F0895FC01848DDF01A80FB11DA35A2F
:10031000BF4F2C91848D90E001968F739927848F25
:10032000A689B7892C93A089B1898C9180648C931C
:10033000938D848D981306C00288F389E02D808107
:100340008F7D80830895EF92FF920F931F93CF9339
:10035000DF93EC0181E0888F9B8D8C8D981305C015
:10036000E889F989808185FD24C0F62E0B8D10E087
:100370000F5F1F4F0F731127E02E8C8DE8120CC0FA
:100380000FB607FCFACFE889F989808185FFF5CFA0
:10039000CE010E948201F1CF8B8DFE01E80FF11D8D
:1003A000E35AFF4FF0820B8FEA89FB8980818062DC
:1003B00007C0EE89FF896083E889F98980818064BC
:1003C000808381E090E0DF91CF911F910F91FF90AA
:1003D000EF900895CF93DF93EC01888D8823C9F0C7
:1003E000EA89FB89808185FD05C0A889B9898C913E
:1003F00086FD0FC00FB607FCF5CF808185FFF2CFD9
:10040000A889B9898C9185FFEDCFCE010E94820128
:10041000E7CFDF91CF91089580E090E0892B29F01C
:100420000E94780181110C94000008950895862798
:10043000082E8295807F8025092E982F82958F70B7
:100440000826869598278927880F880F880F80258A
:1004500008950E949D0C1F920F920FB60F921124C7
:100460002F933F934F935F936F937F938F939F93BC
:10047000AF93BF93EF93FF9389EF91E00E948201C6
:10048000FF91EF91BF91AF919F918F917F916F916C
:100490005F914F913F912F910F900FBE0F901F9042
:1004A00018951F920F920FB60F9211242F938F93CE
:1004B0009F93EF93FF93E0910902F0910A028081EC
:1004C000E0910F02F091100282FD12C090818091A4
:1004D00012028F5F8F7320911302821751F0E09107
:1004E0001202F0E0E750FE4F958F8093120201C098
:1004F0008081FF91EF919F918F912F910F900FBE6F
:100500000F901F901895DC01E0E0615038F08D915C
:10051000E827F0E0E859FF4FE491F7CF8E2F0895D8
:10052000FC0190810180F281E02DF8948181892B7A
:1005300081832281892F809528232283A7E0B0E040
:100540001197F1F7218182238183A3E2B0E0119713
:10055000F1F780817894EFECF0E03197F1F7982390
:1005600081E009F480E00895FC0190810180F2812E
:10057000E02D892F809560FF12C0F894228182239C
:1005800082838181892B8183A3E2B0E01197F1F707
:100590008281982B9283789487ED90E011C0F89433
:1005A0002281822382838181892B8183AFEFB0E016
:1005B0001197F1F78281982B928378948FE090E0E5
:1005C0000197F1F70895CF92DF92EF92FF920F9388
:1005D0001F93CF93DF931F92CDB7DEB76C01E62E4A
:1005E00008E010E0FF24F39461E08F2D8E2109F4E0
:1005F00060E0C60149830E94B402FF0C015011095A
:1006000049810115110581F7411115C0F894D601F2
:100610001196ED91FC91129791818C91809589238F
:1006200081831196ED91FC91129792818C91809526
:100630008923828378940F90DF91CF911F910F913E
:10064000FF90EF90DF90CF900895CF92DF92EF92DE
:10065000FF920F931F93CF93DF931F92CDB7DEB717
:100660008C01F62E40E065E579830E94E302CF2CF1
:100670007981D72E760188E0E80EF11CF6016191B0
:100680006F0140E0C8010E94E302CE14DF04B1F71D
:100690000F90DF91CF911F910F91FF90EF90DF901E
:1006A000CF900895FC0190810180F281E02DF894B3
:1006B0008181292F20958223818378948DE743E0DF
:1006C00050E0815021F1DA011197F1F7308139239F
:1006D000C1F3F8948281822382838181892B818373
:1006E0007894ABE7B7E01197F1F7F894818128236C
:1006F0002183A3E1B1E01197F1F78081982381E094
:1007000009F080E07894E3E6F6E03197F1F7089598
:100710001F920F920FB60F9211242F933F934F9376
:100720005F936F937F938F939F93AF93BF93CF9379
:10073000DF93EF93FF938091F701882319F1809164
:10074000F30191E0980F9093F30181111BC0C091C8
:10075000F5018091F601C817E0F06091F2018AE09E
:100760000E94BB0560E0809100010E94BB051092D1
:10077000F7018091F0019091F10101969093F101C0
:100780008093F0018091F301883008F11092F30119
:100790001EC0EC2FF0E0EF5FFE4F90818091F401DE
:1007A000D1E0D80FD093F40161E070E001C0660F92
:1007B0008A95EAF76923809100010E94BB05D63033
:1007C00008F31092F401CF5FC093F501DBCFFF91E6
:1007D000EF91DF91CF91BF91AF919F918F917F91D9
:1007E0006F915F914F913F912F910F900FBE0F909E
:1007F0001F9018953FB7F8948091AE029091AF0288
:10080000A091B002B091B10226B5A89B05C02F3FC0
:1008100019F00196A11DB11D3FBFBA2FA92F982F26
:100820008827820F911DA11DB11DBC01CD0142E0A1
:10083000660F771F881F991F4A95D1F70895AF92C9
:10084000BF92CF92DF92EF92FF920F931F93CF93BD
:10085000DF931F92CDB7DEB75C01D62EE72EFC01E9
:100860008585811105C0C5010E945203811106C012
:10087000F50113861586148680E065C040E060EFC0
:10088000C5010E94E30201E0F12CC12C11E0C50179
:100890000E949002682FC50169830E9490026981BD
:1008A000613019F48130B9F433C04F2D50E0681332
:1008B0001BC0F5018385181730F4E40FF51F838101
:1008C000802349F402C0181731F060E0193058F461
:1008D000F501148708C0F501EF0DF11D8381802B10
:1008E000838361E009C0C12EF501E40FF51F9381F8
:1008F000802F809589238383C5010E94B4021F5FE6
:10090000000F11F4F39401E0F7E0FF1508F0BFCFFA
:10091000113408F4ADCFF501C386C11002C081E0E7
:100920008587F5018381882309F4A2CFD501139629
:10093000ED2DFE2D9501255F3F4F8D918193A217DF
:10094000B307D9F781E00F90DF91CF911F910F91FD
:10095000FF90EF90DF90CF90BF90AF900895AF924F
:10096000BF92CF92DF92EF92FF920F931F93CF939C
:10097000DF93EC018B0180919B0290919C020E947D
:1009800052038823A1F1BE0180919B0290919C02A9
:100990000E94250340E06EEB80919B0290919C02A7
:1009A0000E94E302E801680189E0C80ED11CA09012
:1009B0009B02B0909C0288E0E82EF12C01E010E050
:1009C000C5010E9490028111102B000F81E0E81AEE
:1009D000F108B1F71993CC15DD0549F780919B0219
:1009E00090919C020E94520391E0813009F090E0C6
:1009F000892FDF91CF911F910F91FF90EF90DF90A2
:100A0000CF90BF90AF900895CF93DF93CDB7DEB76F
:100A100029970FB6F894DEBF0FBECDBFFC01208131
:100A2000203119F1BE016F5F7F4F0E94AF04882310
:100A300079F068E0CE0101960E94830299858913BE
:100A400007C008C0803458F08F3569F08F3769F0DF
:100A500080E00CC08D818F33A9F78AE007C08F3109
:100A6000B9F789E003C08BE001C08CE029960FB68E
:100A7000F894DEBF0FBECDBFDF91CF9108950097F0
:100A800069F0FC0101900020E9F73197AF01481BA4
:100A9000590BBC0189EF91E00C940C0180E090E0CF
:100AA00008958F929F92AF92BF920F931F93CF930F
:100AB000DF93CDB7DEB7A1970FB6F894DEBF0FBEB8
:100AC000CDBF19A2423008F44AE08E010F5D1F4FDE
:100AD000842E912CA12CB12CA50194010E94610CB3
:100AE000E62FB901CA0101501109EA3014F4E05DA2
:100AF00001C0E95CD801EC93232B242B252B61F753
:100B0000C8010E943F05A1960FB6F894DEBF0FBE44
:100B1000CDBFDF91CF911F910F91BF90AF909F906C
:100B20008F900895833081F028F4813099F08230DD
:100B3000A1F008958730A9F08830B9F08430D1F45D
:100B4000809180008F7D03C0809180008F7780939B
:100B50008000089584B58F7702C084B58F7D84BDF1
:100B600008958091B0008F7703C08091B0008F7D91
:100B70008093B00008951F93CF93DF93282F30E028
:100B8000F901E458FE4F8491F901E255FE4FD491EA
:100B9000F901E656FE4FC491CC23C9F0162F8111FE
:100BA0000E949205EC2FF0E0EE0FFF1FEE58FE4F73
:100BB000A591B4918FB7F894111105C09C91ED2FB8
:100BC000E095E92302C0EC91ED2BEC938FBFDF9110
:100BD000CF911F910895CF93DF9390E0FC01E255F0
:100BE000FE4F2491FC01E656FE4F8491882361F16B
:100BF00090E0880F991FFC01E859FE4FC591D491F0
:100C0000FC01EE58FE4FA591B491611109C09FB748
:100C1000F8948881209582238883EC912E230BC041
:100C2000623061F49FB7F8943881822F80958323D6
:100C30008883EC912E2B2C939FBF06C08FB7F8941E
:100C4000E8812E2B28838FBFDF91CF9108958F925B
:100C50009F92AF92BF92CF92DF92EF92FF926B0181
:100C60007C010E94FA034B015C01C114D104E10430
:100C7000F104F1F00E94FA03DC01CB018819990913
:100C8000AA09BB09883E9340A105B10570F321E094
:100C9000C21AD108E108F10888EE880E83E0981E98
:100CA000A11CB11CC114D104E104F10419F7DDCF7A
:100CB000FF90EF90DF90CF90BF90AF909F908F907C
:100CC00008951F920F920FB60F9211242F933F9306
:100CD0008F939F93AF93BF938091AA029091AB02A1
:100CE000A091AC02B091AD023091A90223E0230F94
:100CF0002D3720F40196A11DB11D05C026E8230F54
:100D00000296A11DB11D2093A9028093AA0290937F
:100D1000AB02A093AC02B093AD028091AE02909171
:100D2000AF02A091B002B091B1020196A11DB11D18
:100D30008093AE029093AF02A093B002B093B10241
:100D4000BF91AF919F918F913F912F910F900FBEC7
:100D50000F901F901895CF93DF93CDB7DEB76697AE
:100D60000FB6F894DEBF0FBECDBF789484B5826015
:100D700084BD84B5816084BD85B5826085BD85B53F
:100D8000816085BD80916E00816080936E001092BD
:100D90008100809181008260809381008091810038
:100DA00081608093810080918000816080938000C9
:100DB0008091B10084608093B1008091B000816027
:100DC0008093B00080917A00846080937A00809153
:100DD0007A00826080937A0080917A0081608093AB
:100DE0007A0080917A00806880937A001092C10026
:100DF00061E08DE00E94EB0581E08093F20188E0E4
:100E0000809300018EE0E9EAF1E0DE0111960190A5
:100E10000D928A95E1F77E0123E0E20EF11C11E0CC
:100E2000812C84E2982E84EFA82EB12C412C9DE7D2
:100E3000592E612C712CF701219131917F0140E0F5
:100E400050E0C501B4010E94610CCA01B901A301BF
:100E500092010E94610C223031054105510520F4B8
:100E60001F5F173041F729C0163039F1112329F1DE
:100E70001092800088E08093810080918100182B7F
:100E800010938100309389002093880080916F0037
:100E9000826080936F0061E0809100010E94EB0509
:100EA00060E08BE00E94EB0561E08AE00E94EB05C8
:100EB0006091F2018AE00E94BB05E0910902F09185
:100EC0000A0282E08083E0910502F091060210821E
:100ED000E0910702F09108028FEC808310921102DA
:100EE000E0910D02F0910E0286E08083E0910B020A
:100EF000F0910C02808180618083E0910B02F0917F
:100F00000C02808188608083E0910B02F0910C02DA
:100F1000808180688083E0910B02F0910C028081D7
:100F20008F7D8083E0919B02F0919C021386158651
:100F30001486DF011B9633961E92AE17BF07E1F7AA
:100F400010929A0211E0BE01615F7F4F80919B0277
:100F500090919C020E941F04882309F451C067E00D
:100F6000CE010F960E9483029E898913ECCF809157
:100F70009602811127C080919B0290919C020E9451
:100F80005203BE01615F7F4F80919B0290919C0252
:100F90000E94250340E064EB80919B0290919C02AB
:100FA0000E94E30280919B0290919C020E94900219
:100FB000082F80919B0290919C020E945203002373
:100FC00009F4CAC1BE016F5F7F4FCE010F960E9428
:100FD000AF0400919702CE010F960E94040580177E
:100FE00018F48091970204C0CE010F960E94040568
:100FF0008093970280919A028F5F80939A02A3CF89
:101000001092F801BDE02B2E13E2312E08E1402EA4
:1010100061E08DE00E94BB0564EF71E080E090E04C
:101020000E94270660E08DE00E94BB0564EF71E03E
:1010300080E090E00E94270680919B0290919C02A4
:101040000E94520340E06CEC80919B0290919C02C4
:101050000E94E3024091960264E480919B02909189
:101060009C020E94E302809198028823A9F0E091FB
:101070009702E950E33040F4F0E0EE0FFF1FE9542F
:10108000FE4F6081718102C06EEE72E0072E000C8F
:10109000880B990B0E942706E0919B02F0919C021D
:1010A000138615861486DF011B96CF0103961E92C8
:1010B000A817B907E1F7BE01615F7F4FCF010E941A
:1010C0001F04882349F067E0CE010F960E94830237
:1010D0009E89891709F443C1C12CD12C6EEFE62EED
:1010E00062ECF62EC982DA82EB82FC825090F80123
:1010F0005D8253E0A52EB12C01E08091F7018111B2
:10110000FCCF68E08FEF9FEF0E9417022092090149
:1011100030920A01FE0131964F01612C712CF401CD
:1011200011914F01612F0E941702D301AF5FBE4F93
:10113000E12FF0E044E0F595E7954A95E1F7E354B7
:10114000FE4F20811A962C931A971F70E12FF0E022
:10115000E354FE4F20811B962C93F2E06F0E711C1E
:101160002AE062167104D9F6FC01E095F095DF01E2
:1011700094E0B695A7959A95E1F7AF70BB27A35475
:10118000BE4F8C9180931501DF01AF70BB27A35434
:10119000BE4F8C9180931601DF01AB2FBB27A29528
:1011A000AF70A354BE4F8C9180931701EF2FFF2790
:1011B000EF70FF27E354FE4F808180931801409227
:1011C000F6011092F5011092F4011092F301609172
:1011D000F20160278AE00E94BB050093F70180912D
:1011E000F7018111FCCF31E0A31AB10809F085CFD6
:1011F00053945092F801A7019601C701B6010E94CD
:10120000480C882319F08FED91E01AC04601570170
:10121000E894B7F82FEF3FEF4FE75FE7C501B40160
:101220000E94480C81110FC02FEF3FEF4FE75FE79F
:10123000C501B4010E94F00A18162CF483EE91E067
:101240000E943F0582C02FEF3FEF4FE75FE4C701E9
:10125000B6010E94D60B18161CF487EE91E0F0CF71
:101260002FEF3FEF4FE75FECC701B6010E94F00A96
:1012700087FDF3CF20E030E0A901C701B6010E944D
:10128000F00A87FF0FC0E091F901F091FA01019097
:10129000F081E02D6DE289EF91E00995F7FAF09485
:1012A000F7F8F0942AE037ED43EA5BE3C701B601B3
:1012B0000E94840A4B015C010E94F50A6B017C01CB
:1012C0000E94240B9B01AC01C501B4010E94830A5A
:1012D0004B015C014AE0C701B6010E945105E09153
:1012E000F901F091FA010190F081E02D6EE289EFB1
:1012F00091E0099520E030E040E251E4C501B401FD
:101300000E94DB0B4B015C010E94F50A6B01E12C92
:10131000F12C4AE0C701B6010E945105C701B60190
:101320000E94240B9B01AC01C501B4010E94830AF9
:1013300020E030E040E251E40E94DB0B0E94F50A1D
:1013400080E090E04AE00E9451058BEE91E00E941F
:101350003F050E940C025CCE1093960233CEBE0174
:101360006F5F7F4FCE010F960E94AF04882309F470
:1013700048C068E0CE0101960E94830299858913D6
:1013800040C0698148E0649FB00111248A81282F00
:1013900030E0322F2227330F330F330F262B372B1A
:1013A0008F85803161F5688570E08F81AB01481BC6
:1013B0005109CA019695982F8827979587950E947D
:1013C0004D0C60517109207FF3E0220F331FFA9515
:1013D000E1F7620F731F613854EE75070CF47CCE91
:1013E000072E000C880B990B0E94260B20E030E0A2
:1013F00040E05CE30E94DB0B6B017C0173CEB90122
:10140000EACF60E874EEE7CF1092FC011092FB0186
:1014100088EE93E0A0E0B0E08093FD019093FE01A0
:10142000A093FF01B093000281ED91E09093FA0147
:101430008093F90185EC90E0909306028093050279
:1014400084EC90E0909308028093070280EC90E097
:1014500090930A028093090281EC90E090930C0231
:1014600080930B0282EC90E090930E0280930D0229
:1014700086EC90E09093100280930F02109212027B
:1014800010921302109214021092150260E087E08D
:101490000E94EB05E5EBF1E0E491E093B202E1EAB2
:1014A000F1E0E491F0E0EE0FFF1FE057FE4F859171
:1014B00094919093B4028093B3021092BD02109263
:1014C000BF021092BE02EDEBF2E0129282E0E53B29
:1014D000F807D9F786E192E09093A8028093A702DB
:1014E00082EB92E090939C0280939B0210929A026E
:1014F0001092960289E08093970281E0809398028F
:101500008093990208955058BB27AA270E949B0AEE
:101510000C949C0B0E948E0B38F00E94950B20F0CF
:1015200039F49F3F19F426F40C948B0B0EF4E095DC
:10153000E7FB0C94850BE92F0E94AD0B58F3BA170B
:10154000620773078407950720F079F4A6F50C94D9
:10155000CF0B0EF4E0950B2EBA2FA02D0B01B90185
:1015600090010C01CA01A0011124FF27591B99F019
:10157000593F50F4503E68F11A16F040A22F232F25
:10158000342F4427585FF3CF469537952795A79575
:10159000F0405395C9F77EF41F16BA0B620B730B1C
:1015A000840BBAF09150A1F0FF0FBB1F661F771F8D
:1015B000881FC2F70EC0BA0F621F731F841F48F442
:1015C000879577956795B795F7959E3F08F0B0CFCB
:1015D0009395880F08F09927EE0F979587950895B2
:1015E0000E94610B08F481E008950E94B50B88F019
:1015F0009F5798F0B92F9927B751B0F0E1F0660FD7
:10160000771F881F991F1AF0BA95C9F714C0B13017
:1016100091F00E94CF0BB1E008950C94CF0B672F8F
:10162000782F8827B85F39F0B93FCCF38695779546
:101630006795B395D9F73EF490958095709561952F
:101640007F4F8F4F9F4F0895E89409C097FB3EF45A
:1016500090958095709561957F4F8F4F9F4F9923FF
:10166000A9F0F92F96E9BB279395F695879577957D
:101670006795B795F111F8CFFAF4BB0F11F460FF3D
:101680001BC06F5F7F4F8F4F9F4F16C0882311F095
:1016900096E911C0772321F09EE8872F762F05C0A9
:1016A000662371F096E8862F70E060E02AF09A9544
:1016B000660F771F881FDAF7880F9695879597F939
:1016C0000895990F0008550FAA0BE0E8FEEF1616D3
:1016D0001706E807F907C0F012161306E407F50726
:1016E00098F0621B730B840B950B39F40A2661F09A
:1016F000232B242B252B21F408950A2609F4A1403D
:10170000A6958FEF811D811D089597F99F6780E849
:1017100070E060E008959FEF80EC089500240A9443
:101720001616170618060906089500240A941216BC
:101730001306140605060895092E0394000C11F4EF
:10174000882352F0BB0F40F4BF2B11F460FF04C09C
:101750006F5F7F4F8F4F9F4F089557FD9058440FF5
:10176000551F59F05F3F71F04795880F97FB991F00
:1017700061F09F3F79F087950895121613061406BD
:10178000551FF2CF4695F1DF08C01616170618064A
:10179000991FF1CF86957105610508940895E89425
:1017A000BB2766277727CB0197F908950E94610B25
:1017B00008F48FEF08950E94EE0B0C949C0B0E948E
:1017C0008E0B38F00E94950B20F0952311F00C94AD
:1017D000850B0C948B0B11240C94D00B0E94AD0B39
:1017E00070F3959FC1F3950F50E0551F629FF00174
:1017F000729FBB27F00DB11D639FAA27F00DB11D8D
:10180000AA1F649F6627B00DA11D661F829F222715
:10181000B00DA11D621F739FB00DA11D621F839F9C
:10182000A00D611D221F749F3327A00D611D231F72
:10183000849F600D211D822F762F6A2F11249F57C0
:1018400050409AF0F1F088234AF0EE0FFF1FBB1FC3
:10185000661F771F881F91505040A9F79E3F510582
:1018600080F00C94850B0C94D00B5F3FE4F3983E12
:10187000D4F3869577956795B795F795E7959F5F2C
:10188000C1F7FE2B880F911D9695879597F90895BE
:101890000E94610B880B990B089597FB072E16F495
:1018A000009407D077FD09D00E94830C07FC05D077
:1018B0003EF4909581959F4F0895709561957F4F67
:1018C0000895A1E21A2EAA1BBB1BFD010DC0AA1F81
:1018D000BB1FEE1FFF1FA217B307E407F50720F099
:1018E000A21BB30BE40BF50B661F771F881F991F14
:1018F0001A9469F760957095809590959B01AC015D
:10190000BD01CF010895AA1BBB1B51E107C0AA1F4F
:10191000BB1FA617B70710F0A61BB70B881F991F90
:101920005A95A9F780959095BC01CD010895EE0FC9
:10193000FF1F0590F491E02D099481E090E0F89468
:081940000C94A20CF894FFCFF7
:101948000C2A2A2A2A2A2A382C0000000000000023
:10195800000000000000000000000000000000007F
:10196800000000000000000000000000000000006F
:10197800000000000000000000000000000000005F
:10198800000000000000000000000000000000004F
:10199800000000000000000000000000000000003F
:1019A800000000000000000000000000000000002F
:1019B800000000000000000000000000000000001F
:1019C800000000000000000000000000000000000F
:1019D80000000000000000000000000000000000FF
:1019E80000000000000000000000000100080040A6
:1019F8000000010004050D5E00BC0077010D0E1308
:101A08001516191A1C232526292A2C323400000001
:101A180000A3010C013B01EA016C014A015E016E61
:0E1A2800616E00696E66006F7666000D0A0042
:00000001FF
