:1000000000200020F9000000790E00003D0E0000E5
:100010003D0E00003D0E00003D0E00003D0E0000B4
:100020003D0E00003D0E00003D0E0000790E000068
:10003000790E00003D0E0000790E00002D0E00002C
:10004000790E0000790E0000790E0000790E000094
:10005000790E0000790E0000790E0000790E000084
:10006000790E0000790E0000790E0000790E000074
:10007000790E0000790E0000790E0000790E000064
:1000800005290000790E00008D2F0000790E000078
:10009000A9340000790E0000790E0000790E0000EE
:1000A000790E0000790E0000790E0000790E000034
:1000B000790E0000790E0000110A0000290A0000E4
:1000C000410A0000590A0000790E000009130000DF
:1000D000790E0000790E0000790E0000790E000004
:1000E000790E0000790E0000790E0000790E0000F4
:1000F000790E0000790E0000554B4CF2205210B5DD
:100100001A804DF628121A8000BF00BF00F0B8FE1A
:10011000504B514A1A60514A5A60A3F53043283B6C
:100120001A6812F4807204D14D490A604FF4A85243
:100130001A604C4B1A78110703D51A7842F008025E
:100140001A70494B494C4A482A221A70494A0023DE
:100150009918A14203D2195899500433F8E7464B35
:10016000464900228B4202D243F8042BFAE7444866
:10017000444900235A581A500433F82BFAD1424B01
:10018000424A802103F8011B9342FBD1404B3C4A79
:100190001A60404B8A221A70A3F5805324225A70A9
:1001A000A0221A709A799207FCD59A79D406FCD4C9
:1001B000394A937903F00C03082B374BF9D103220A
:1001C0001A7140225A719A799006FCD5324A917977
:1001D000314B4906FBD5314A31491160022151604A
:1001E00020221A709A7902F00C020C2AFAD12D4BB7
:1001F0002D4A1A602D4B4BF67F321A6000225A604E
:10020000072243F8042C2A4AC3F80C2D62B600F0EA
:1002100047FF134B1B68DA0705D5264800F086FE1A
:10022000254B264A1A60264B1B785B0609D5224CC3
:10023000224A2368934204D11E4800F077FE00232F
:10024000236004F077F900F021FE00F04DFDFEE799
:100250000E20054038800440823F04000100002B3E
:1002600014D0034002D0074000E00740ACEEFF1F6F
:100270009851000060E5FF1FACEEFF1F24F2FF1F46
:1002800000E1FF1F0000000000E400E02EE400E0B9
:1002900008ED00E000500640004006404480044065
:1002A0000000131104800440C010050014E000E0B9
:1002B0000000202077FD68591CE00340A5C3945A34
:1002C00000F00740FFFFFFFFFFFFFFFFFFFFFFFF03
:1002D000FFFFFFFFFFFFFFFFFFFFFFFFFFFFFFFF2E
:1002E000FFFFFFFFFFFFFFFFFFFFFFFFFFFFFFFF1E
:1002F000FFFFFFFFFFFFFFFFFFFFFFFFFFFFFFFF0E
:10030000FFFFFFFFFFFFFFFFFFFFFFFFFFFFFFFFFD
:10031000FFFFFFFFFFFFFFFFFFFFFFFFFFFFFFFFED
:10032000FFFFFFFFFFFFFFFFFFFFFFFFFFFFFFFFDD
:10033000FFFFFFFFFFFFFFFFFFFFFFFFFFFFFFFFCD
:10034000FFFFFFFFFFFFFFFFFFFFFFFFFFFFFFFFBD
:10035000FFFFFFFFFFFFFFFFFFFFFFFFFFFFFFFFAD
:10036000FFFFFFFFFFFFFFFFFFFFFFFFFFFFFFFF9D
:10037000FFFFFFFFFFFFFFFFFFFFFFFFFFFFFFFF8D
:10038000FFFFFFFFFFFFFFFFFFFFFFFFFFFFFFFF7D
:10039000FFFFFFFFFFFFFFFFFFFFFFFFFFFFFFFF6D
:1003A000FFFFFFFFFFFFFFFFFFFFFFFFFFFFFFFF5D
:1003B000FFFFFFFFFFFFFFFFFFFFFFFFFFFFFFFF4D
:1003C000FFFFFFFFFFFFFFFFFFFFFFFFFFFFFFFF3D
:1003D000FFFFFFFFFFFFFFFFFFFFFFFFFFFFFFFF2D
:1003E000FFFFFFFFFFFFFFFFFFFFFFFFFFFFFFFF1D
:1003F000FFFFFFFFFFFFFFFFFFFFFFFFFFFFFFFF0D
:10040000FFFFFFFFFFFFFFFFFFFFFFFFDEF9FFFF23
:1004100010B5054C237833B9044B13B10448AFF33E
:1004200000800123237010BDACEEFF1F0000000010
:100430009851000008B5064B1BB106480649AFF3BA
:1004400000800648036813B1054B03B1984708BD07
:100450000000000098510000B0EEFF1FACEEFF1F3F
:100460000000000008B50D20012100F0A1FD0120D1
:1004700000F0CCF8132000F0C3F84FF47A6000F0DD
:1004800071F900F03FFA0D20012100F05FFD4FF4FB
:100490007A7000F0EFFD0D20002100F057FD0023E1
:1004A000034A13700121034A1170034A137008BDF7
:1004B000C8EEFF1FC9EEFF1FCAEEFF1F30B58DB09B
:1004C0001E238DF80F3004A80DF10F0100F028FA5B
:1004D000002855D09DF80F30052B04D0294B1A78F1
:1004E00001321A704CE0284B1B783BB10022264B9E
:1004F0001A709DF81420254B1A7041E09DF81430B5
:10050000224A127893423BD0049D0BB9FF2A10D0A7
:10051000013293420DD01E4C23685B6820461D4972
:1005200003229847204600F0A3FA164B1A780132AE
:100530001A709DF81410154B1970154C20460A229C
:10054000002300F0A5FA23685B68204612490B22BD
:10055000984720460B4B19780A22002300F098FA9E
:10056000204600F085FA284603F0E2F902460B46E1
:1005700002210091204600F0C7FA204600F078FAE8
:100580000DB030BDCAEEFF1FC9EEFF1FC8EEFF1F42
:10059000F0EFFF1F884E00008C4E00004B1EDBB2B8
:1005A00099B10133C1184FF6FF7210F8013B534067
:1005B00083EA0313DBB2121242EA032282EA131225
:1005C00082EAC3028842F0D101E04FF6FF72104682
:1005D000704700BF0D280AD0084A012312F8011FF6
:1005E000814206D00133DBB2102BF7D103E00020AB
:1005F0007047184670470020704700BF984E0000B3
:10060000014B1870704700BF60E5FF1F014B187069
:10061000704700BFD8EEFF1F38B5454B1B781BB1A4
:10062000444A117801311170434A12789A420BD032
:10063000424A12784F2A8CBF1D210B210A443F49A0
:100640000A703D4A137003E03C4B1A7814321A705A
:100650003A4B1B789F2B69D9394A11884908118078
:10066000344A1278042A03D941F40061344A1180D3
:100670006033324A137000222E4B1A70314B1B78B4
:10068000002B43D0304A13780133DBB213700B2BAD
:100690004CD92B4B1C8804F03F00FFF79BFF05460D
:1006A000C4F38710FFF796FF40EA0510C2B2274B4C
:1006B0001B7813F0FF0F0DD1254B1A70131FDBB2FF
:1006C0001A2B07D900221F4B1A70224B1A780132BD
:1006D0001A7038BD1D4B1978C9B2481CC0B21870C9
:1006E0001D4842541B78DBB2194A12789A4209D845
:1006F0000022144B1A70194B1A7801321A70012219
:10070000174B1A700022104B1A7038BD0C4B1A8808
:1007100040F638339A4209D101220A4B1A7000235D
:10072000094A1370094A13700D4A137038BD00BF8F
:10073000D0EEFF1FDAEEFF1FCFEEFF1FD1EEFF1F3F
:1007400004EFFF1FD5EEFF1FDCEEFF1FD4EEFF1FEF
:10075000D9EEFF1FD6EEFF1FE0EEFF1FD7EEFF1F03
:10076000DBEEFF1F38B50546082000F0B9FB044654
:100770000023036080230371284603F09DFC01469B
:10078000194803F0A5FD0546002103F095FEA8B920
:100790002846164903F0A4FE80B92846144903F000
:1007A000E3FC4FF07C5103F0D5FB03F0A3FE0246BF
:1007B000232803D920460F4900F0E0F80E4B1878A3
:1007C000012100F0F5FB0D4B1878002100F0F0FB43
:1007D0000B4C2078012100F0EBFB2078094B1978B5
:1007E00000F0B4FB38BD00BF0024F447ABAAAA4C0C
:1007F0000000404239080000A8E5FF1F60E5FF1F28
:10080000A9E5FF1FD8EEFF1F08B5074B1878074B67
:10081000197800F09BFB064B1878002100F096FB3E
:100820000022044B1A7008BDA9E5FF1FD8EEFF1F78
:10083000A8E5FF1FCEEEFF1F10B5274B1B7823B195
:10084000264B1B7813F0FF0F3CD0244B1B7813F082
:10085000FF0F27D0224A1378591C117013BB214B6C
:100860001B78214A12789A4206D8FFF7CDFF1F4B1A
:100870001A8801321A8015E01D4A10781D4AD25C90
:100880001D4C2378591C217001219940114000F022
:100890005DFB2378052B05D900222270114B1A78B5
:1008A00001321A700E4B1B78072B02D900220C4B19
:1008B0001A70094B1B7873B1084B1B7813F0FF0FAC
:1008C00007D010BD0D4B187800F064FB0C4B18706E
:1008D000BBE7FFF7A1FE10BDD2EEFF1FCEEEFF1F5C
:1008E00000EFFF1F02EFFF1FD3EEFF1FCCEEFF1F35
:1008F000A8E5FF1F64E5FF1F01EFFF1F60E5FF1F75
:10090000D0EEFF1F044B1B782BB90122024B1A704B
:100910000022024B1A707047D2EEFF1FD5EEFF1F68
:1009200010B50B46114A127812F0FF0F1BD0104A77
:100930001278033AD2B20978914288BF1A700D4CEE
:10094000611C1A7800F0D8F90022084B1A70084B85
:1009500019782046FFF722FE4FF2B803984214BFE1
:100960000020012010BD002010BD00BFDBEEFF1FE6
:10097000D4EEFF1FE0EEFF1F704700BF30B40368E6
:100980002BB100249C6003680124DC6016E01A4B44
:100990001C6844F400041C600124184B1C6003F51F
:1009A00080730360164D03689C683CB1103303608C
:1009B000AB42F8D90023036018461BE00468114BD2
:1009C00023441B11104D45F82310226002680321B7
:1009D000916001790D4A995403F11E0253119B0055
:1009E00003F1604303F5614302F01F02012000FAA6
:1009F00002F21A6030BC70473C8004400070034033
:100A00003F710340008FFCBFACE5FF1F1EE400E018
:100A100008B50122024B1A60024B1B68984708BDBB
:100A20000C710340ACE5FF1F08B50122024B1A60B0
:100A3000024B5B68984708BD1C710340ACE5FF1F83
:100A400008B50122024B1A60024B9B68984708BD0B
:100A50002C710340ACE5FF1F08B50122024B1A6060
:100A6000024BDB68984708BD3C710340ACE5FF1FB3
:100A700000B583B0054B1B88ADF8043003685B6894
:100A800001A90222984703B05DF804FBA84E0000BC
:100A9000F0B58BB0164622B903681B68C9B29847F7
:100AA0002FE0012A08BF0A2621B930228DF825201F
:100AB000212417E021243746B1FBF6F506FB151576
:100AC000EDB22246092D94BF30353735EDB20DF128
:100AD000280E724402F8245CB1FBF7F111B1013C1D
:100AE000E4B2E9E733B1013CE4B20AAB23442D227E
:100AF00003F8242C03685B6801A92144C4F1220295
:100B000098470BB0F0BD00BF2DE9F04F85B080468F
:100B100014461D469DF838901046194602F07CFD9B
:100B200040B9D8F800305B684046674903229847CF
:100B30000746BEE02046294602F06EFD012808D196
:100B4000D8F800305B684046604903229847074662
:100B5000AFE0204629464FF060425D4B03F0CCF9F0
:100B600040B1D8F800305B6840465A4903229847A4
:100B700007469EE0204629464FF06042564B03F060
:100B80009DF940B1D8F800305B68404651490322D6
:100B9000984707468DE0204629460022002303F0AF
:100BA0008DF928B105F100431D464FF0010A01E01F
:100BB0004FF0000AB9F1000F6CD04FF0000B00228B
:100BC000464B3FA7D7E900671046194632463B46D9
:100BD00002F002FF02460B460BF1010B5FFA8BF1AC
:100BE0008945F1D82CE04E462046294600223C4B50
:100BF00002F0F2FE04460D4603F088F9C0B206F199
:100C000001095FFA89F904AB1E4400F1300306F8CC
:100C1000103C02F07BFE02460B462046294602F0BD
:100C200027FD04460D46D145DDD101E04FF0010A14
:100C3000D8F800305B68404669465246984738E02D
:100C40002046294602F016FD04460D4603F05EF9E3
:100C5000064602F04BFE02460B462046294602F0AD
:100C600007FD04460D46404631460A225346FFF72B
:100C70000FFF07462E238DF80030B9F10F0F34BF58
:100C80004B460F23002BD1D003F1010A5FFA8AFAF9
:100C90000126A9E7204629460022104B02F0EAFC73
:100CA00003F034F9014640460A225346FFF7F0FEAE
:100CB0000746384605B0BDE8F08F00BFAFF30080AF
:100CC000000000A09999B93FAC4E0000B04E000062
:100CD000FFFFEF41B44E0000FFFFEFC10000E03F17
:100CE00000002440AFF3008008B5FFF7BBFBFFF71F
:100CF000E5FB01F09DF8FAE7844641EA000313F0B2
:100D000003036DD1403A41D351F8043B40F8043B12
:100D100051F8043B40F8043B51F8043B40F8043BD5
:100D200051F8043B40F8043B51F8043B40F8043BC5
:100D300051F8043B40F8043B51F8043B40F8043BB5
:100D400051F8043B40F8043B51F8043B40F8043BA5
:100D500051F8043B40F8043B51F8043B40F8043B95
:100D600051F8043B40F8043B51F8043B40F8043B85
:100D700051F8043B40F8043B51F8043B40F8043B75
:100D800051F8043B40F8043B403ABDD2303211D315
:100D900051F8043B40F8043B51F8043B40F8043B55
:100DA00051F8043B40F8043B51F8043B40F8043B45
:100DB000103AEDD20C3205D351F8043B40F8043B15
:100DC000043AF9D2043208D0D2071CBF11F8013B13
:100DD00000F8013B01D30B8803806046704700BFD9
:100DE000082A13D38B078DD010F003038AD0C3F1E8
:100DF0000403D21ADB071CBF11F8013B00F8013BCA
:100E000080D331F8023B20F8023B7BE7043AD9D388
:100E1000013A11F8013B00F8013BF9D20B7803705D
:100E20004B7843708B78837060467047024B1A682A
:100E300001321A60704700BF08EFFF1F08B50D4C64
:100E4000236813F4802F01D000F05EFA236813F4B6
:100E5000806F01D001F056FD236813F4006F01D0BC
:100E600002F094F8236813F4805FE9D002F01CFBD1
:100E7000E6E700BF3480044008B5FFF7DFFF00BF9E
:100E80001022014B1A80704700200540704700BFB8
:100E9000024A13681844106018467047BCE5FF1FEB
:100EA000EFF31383ABB9EFF31083ABB9EFF3058323
:100EB00023B10F2B05D9094A985C03E04FF48070E9
:100EC00000E00020EFF311833BB1834238BF1846A6
:100ED00070474FF0FF30704700207047F0E300E0AC
:100EE00008B503F04FFB08BD30B40023B0FBF2F4AB
:100EF00002FB14041D46092C94BF30343734E4B28D
:100F0000CC54B0FBF2F008B10133EFE70D440022FE
:100F10006A70934207DD885CCC5C8C54C854013203
:100F2000013B9A42F7DB084630BC7047044B002275
:100F30001A6004490A60044A106010221A6070475F
:100F400014D0034004D0034000D0034021281ED811
:100F50000F4B53F8303093F8802212F0FF0F08D077
:100F600019B1012283F880207047012283F8002103
:100F70007047074B03EBC000436821B11A6842F089
:100F800003021A6070471A6822F002021A60704762
:100F9000B84E0000212806D8044B53F8303093F89F
:100FA0000002C0B270470020704700BFB84E00007A
:100FB00021283AD81D4B03EBC0035B68012919D0E7
:100FC000042925D0194A52F83020002082F88002E6
:100FD00019B94FF480721A607047022903D140F2A8
:100FE00003121A60704703290CBF4FF4817200226C
:100FF0001A6070470D4A52F83020012182F88012A1
:101000004FF4A2721A601A6822F020021A60704728
:10101000064A52F83020012182F880124FF4A27261
:101020001A601A6842F020021A607047B84E000039
:1010300072B60C4B1B680C4A12680C49096862B600
:1010400011F0806F02D0322B88BF0132C3F53B43D1
:101050007F330749A1FB03035B094FF47A7000FB60
:101060000230704718E000E008EFFF1F04ED00E0D9
:10107000ABAAAAAA38B50546FFF7DAFF044625B998
:1010800038BD013D0AD004F57A74FFF7D1FF001B8B
:10109000B0F57A7FF5D200F0CBFEF6E738BD00BFA1
:1010A00010B5204B4FF480721A604FF400721A6032
:1010B0004FF480621A604FF400621A604FF480525D
:1010C0001A600020184B18604BF6FF71043319604A
:1010D0002823164A1360083213600832136008325E
:1010E000136008321360083213600832136008324C
:1010F000136009220E4C226004F5805404342060F1
:101100000C4801600C490B6008310B600B4B1A60F6
:1011100001F096F84FF4C870FFF7ACFF00F074FCD4
:1011200010BD00BF04E100E0048003400C800340D8
:1011300000800340089003400C900340009003405F
:1011400030B40E4B1B7843F002020D4C04EBC2048A
:1011500060600C48007800280CBF8824C82444EA4A
:101160000141074D45F8321080F00100054A10702A
:1011700083F00103014A137030BC704774EFFF1F06
:1011800000E0FF1FEDEFFF1F10B4431E032B11D82B
:1011900072B60A4A52F8230050B14268074941F832
:1011A0002320074A32F813400188611A22F81310ED
:1011B00062B600E000205DF8044B704764EFFF1F4B
:1011C0000CF2FF1F013803280DD872B6074B53F8F5
:1011D00020302BB1002001305B68002BFBD100E0F8
:1011E000002062B670470020704700BFB8EFFF1FB5
:1011F00038B572B601231B491B4C5A1812F8012C42
:1012000012F0080F24D09A0054F832506DB9164BE2
:1012100003EBC20108304860144943F83210144B04
:101220001A78013A1A7062B638BD42F0010254F8D9
:1012300032506DB90C4B03EBC201083048600D49C8
:1012400043F832100A4B1A78013A1A7062B638BD68
:101250000133052BD1D162B60022054B1A7000F084
:1012600065FC38BD1051000000E0FF1F8800400001
:10127000E2EFFF1FC800400010B4431E032B37D815
:10128000400140F010001C4A104472B61B4AD25C68
:10129000032A09D8DFE802F019021B0508300222F0
:1012A00016E00830042213E0154A52F823201AB938
:1012B000134A42F8231003E0124A52F823205160E7
:1012C000104A42F8231062B612E0032200E0052221
:1012D0000A4CE25401F10803436000F00803002BBC
:1012E0000CBF8823C8230A8843EA0243036062B61E
:1012F0005DF8044B704700BF00E0FF1F20EFFF1FA9
:10130000B8EFFF1FC8EFFF1F2DE9F84FA34CDFF820
:10131000E092DFF8E0A2DFF8E0B22578EDB215F058
:10132000040F1DD09E4B1B7813F0FF0F16D09D4B62
:101330001B7803F0FF022BB1531EDBB2994A1370E6
:1013400003B900BE984B1B7803F0FF0233B1531E64
:10135000DBB2954A13700BB900F046FD04232370ED
:1013600015F0080F00F0E48299F80030DBB21D0997
:1013700040F021828D4D9E0805EBC6035A6855F852
:101380003630C3F38303013B0C2B00F21082DFE8FD
:1013900013F0CB01CB010E020E020E020E020E0262
:1013A0000E02E8010E020E020E020D0080491368C3
:1013B0000B6052684A607F4A45F8362000227E4919
:1013C0000A607A490A618A6101217C4A11709BB2E4
:1013D00040F28162934218D8B3F5D06F2ED2B3F5A4
:1013E000817F00F01E8106D8802B00F0C980822BFF
:1013F00000F0CC8066E140F20232934200F0268198
:10140000B3F5A06F00F062815CE142F221029342E9
:1014100000F0868107D8B3F5086F00F0AB80B3F514
:10142000106F11D04EE142F22122934200F041812F
:1014300042F22132934200F0498143E1604B5D6802
:10144000002D40F0188130E1594B9A78544B1A70B6
:10145000564D05F180062B6A13F0800F03D0686AA1
:10146000083800F063FB0835B542F4D1DFF88C8111
:1014700000263746534AB05828B1456800F056FB5D
:101480000DB12846F9E700234E4973504E4AB35038
:101490004E4BF05828B1456800F048FB0DB1284686
:1014A000F9E7002349497350494AB35028F8023FED
:1014B000484BFB5C023B032B0AD8DFE803F0020633
:1014C00002060022434BDA5502E00122414BDA5575
:1014D00001370436102ECDD100223F4B1A70012562
:1014E0003E4EDFF81C81314F05EB080313F8013C39
:1014F00006F8043B13F0080F2DD000F0F7FA48B1BE
:10150000A90007EB451200F108035360344A47F87D
:10151000312007E0AB00002247F833202E4B1A7829
:1015200001321A7000F0E2FA58B1AB0043F0010347
:1015300007EBC30100F108024A601E4A47F8332056
:1015400009E0AB0043F00103002247F83320224BAF
:101550001A7801321A70AA0042F00201002347F8FB
:10156000313042F0030247F8323001351D4B9E42C4
:10157000BAD11EE20A4B1B781B4D2B700127AAE043
:10158000194D00232B706B700227A4E0084B9B8839
:10159000042B37D90F22154B1A70C1E08020074069
:1015A000ECEFFF1F75EFFF1F00F0FF1F00E0FF1FB4
:1015B000D8EFFF1FC80040000CEFFF1FEDEFFF1F2B
:1015C0001451000064EFFF1F10EFFF1FB8EFFF1F63
:1015D000C8EFFF1F20EFFF1FE2EFFF1FC4200740EF
:1015E00088004000D4200740E4EFFF1FC0200740E0
:1015F0009020074094200740982007400AF2FF1FE0
:1016000010510000A04A0021117051709F4A12F839
:10161000233013F0020F5CD09B4D01232B70022767
:1016200059E09B4B9B8803F07F03042B02DC984A14
:1016300052881AB10F22954B1A7071E0934A12F832
:10164000231021F0020102F82310B2E1904B9B8895
:1016500003F07F03042B02DC8D4A52881AB10F225B
:101660008A4B1A705CE0894A12F8231041F002019B
:1016700002F823109DE1864B5E889F88854BA3F17D
:101680000C02114633F80C0CB04209D133F80A0CA5
:10169000B84205D1360A032E0CBF2F7817891AE0FD
:1016A0000D690C330C32002DEBD10F22774B1A70E1
:1016B00036E0794B1A68794B1A60754B9A78784BFB
:1016C0001A7076E10F22714B1A7029E000273D460F
:1016D00001E002276C4D6E4BDB889F4228BF1F46FE
:1016E000402F34BF3E46402628463146FFF728FDAE
:1016F0003544BF1B03D13F2E00F2608110E0402F24
:1017000034BF3E46402628463146FFF719FD354492
:10171000BF1B01D13F2E03D9624B1D60624B1F805E
:1017200001238AF8003042E0594B198842F2210324
:10173000994212D15D4BD81D12F8011B03F8011F0D
:101740008342F9D15A4B1B68862B02D10F22594B89
:101750001A7000200146FFF7F3FC574B45F836306E
:1017600025E0504B1E68BEB14F4FB7F80080B8F16E
:10177000400F34BF4546402530462946FFF7E0FC80
:10178000C5EB08039BB23B800BB9402D01D135441A
:1017900000E00025434B1D603D4B1B88B3F5A06F57
:1017A00005D13B4B00225A709B788BF80030012307
:1017B0008AF80030B9E0414E9F0806EBC708D8F818
:1017C0000420A2F10800013DEDB213F0080F47D04C
:1017D00000F0ACF93A4B53F825304BB35A6838490E
:1017E00041F8252003F10802C8F80420354A525D6B
:1017F000032A12D8DFE802F002060A0E0321314A5A
:1018000051550AE002212F4A515506E005212D4A83
:10181000515502E004212B4A515518F0080F0CBF16
:101820008822C8221B8842EA034346F837307CE00E
:10183000244B5B5D032B0BD8DFE803F077770206C0
:101840000022204B5A5570E001221E4B5A556CE085
:1018500018F0080F0CBF022203221A4B5A5564E0FD
:1018600056F837301B0C22F8083C002B55D00023CB
:1018700022F8063C42F8043C134B53F825302BBBAE
:10188000114B43F8250025E0E4EFFF1FC02007407F
:10189000D8EFFF1F2051000008EFFF1F1CF2FF1FB1
:1018A00010F0FF1F0CEFFF1FE0EFFF1F13F2FF1FF1
:1018B00014F2FF1F75EFFF1FC800400000E0FF1F7C
:1018C000B8EFFF1F20EFFF1F64EFFF1F3F4B53F8E0
:1018D000253058603D4B43F825003D4B33F815103B
:1018E00032F8082C0A4423F8152000F0FFF860B104
:1018F00000F10803C8F8043018F0080F354B364AD9
:1019000008BF134646F837300FE0002346F837305B
:10191000324B1A7801321A7007E018F0080F2D4B7D
:101920002D4A08BF134646F8373008232370F4E4E5
:1019300015F0010F22D02A4902230B700022294BF7
:101940001A70294B24481860284C5C60986028481D
:10195000D8601A619A610D20264B1870FF23264823
:1019600003700838037018300270244A13709F22E5
:10197000234B1A7001230B70BDE8F88F15F0800F10
:1019800005D00D221B4B1A708022403B1A7015F0B7
:10199000020F06D0184B1A78D2B21A700222083BF6
:1019A0001A7015F0100F0ED01022164B1A70BDE8E9
:1019B000F88F00200146FFF7C3FBB1E6284600215F
:1019C000FFF7BEFBACE6BDE8F88F00BF10EFFF1FCE
:1019D0000CF2FF1FC800400088004000E2EFFF1F2C
:1019E0009420074074EFFF1F00E0FF1F24EFFF1F4C
:1019F00078EFFF1FC0200740882007408C20074059
:101A0000842007408020074008B501F0C1FD002375
:101A100019491A465A50C81842600833882BF9D120
:101A2000164B1A6842F480221A60134BC3F3072145
:101A3000134A1170C3F30741143211701B0E0432A4
:101A40001370FF23343A137008321370783A13700E
:101A500001238432137000216C3211707C3A1370B0
:101A60007022084B1A700822A3F21F331A6010224A
:101A7000054B1A7008BD00BF00E0FF1F3480044012
:101A80009C20074023E400E00821074008B500F04F
:101A9000C3F808BD08B500F073F808BD08B500F03C
:101AA0009BF808BD08B500F06DF908BD08B500F059
:101AB000C1F808BD08B5084600F058F908BD00BFD8
:101AC00008B50846114600F0D1F808BD704700BFC0
:101AD000044B00221A714FF47A7199601A73024A0A
:101AE0001A607047F0EFFF1FD04F000072B60D4B29
:101AF0001A68B2FA82F30B2B02D962B60020704743
:101B00004FF00041D94022EA010206490A6062B65C
:101B1000054903EBC303DB00C8180022CA5042602A
:101B2000704700BFC0E5FF1F00E2FF1F08B50F4B65
:101B3000C31A0F4AA2FB03131B090B2B14D80D4A1F
:101B400012783AB10C4A127812F0FF0F02D0FFF768
:101B50004FFB08BD72B6094A4FF0004121FA03F36A
:101B600011681943116062B608BD00BF00E2FF1F93
:101B7000398EE338E2EFFF1FECEFFF1FC0E5FF1FD8
:101B800010B5134B1B6853B9124B1B7813F0FF0FA2
:101B900018D00320FFF7F8FA0D4B1860A8B10C4BD2
:101BA000186843885A1C03441C7A03889A4206D357
:101BB000FFF7BCFF0022064B1A60204610BD428092
:101BC000204610BD4FF0FF3010BD4FF0FF3010BD6C
:101BD0000CF0FF1FECEFFF1F08B50D4B1B6883B91E
:101BE0000C4B1B7813F0FF0F08D00320FFF7CCFA43
:101BF000074B186028B94FF0FF3008BD4FF0FF3099
:101C000008BD034B1B685A881344187A08BD00BFEF
:101C10000CF0FF1FECEFFF1F044B9888044B1B6870
:101C20001BB11A885B88D31A184470470CF2FF1F47
:101C30000CF0FF1F10B50B4B1B7813F0FF0F0FD0EC
:101C4000094B186820B1FFF771FF0022064B1A609C
:101C500003242046FFF798FA10B1FFF767FFF8E773
:101C600010BD00BFECEFFF1F0CF0FF1F2DE9F84F78
:101C700004460122384B1A708B46002965D00E4667
:101C8000DFF8E080DFF8E0909A46344FD8F8003073
:101C900083BB99F8003013F0FF0F06D100222E4BC2
:101CA0001A704FF0FF30BDE8F88F47F20955042055
:101CB000FFF788FA07280AD801238AF80030FFF7CF
:101CC00015FFC8F80000A8B900238AF80030013DCC
:101CD00001D03B7833B10122204B1A704FF0FF3016
:101CE000BDE8F88F00F0A4F899F8003013F0FF0F6A
:101CF000DDD1D3E700233B70D8F800104A88C2F149
:101D00004005AE4238BF354602F108030B442A4471
:101D10004A80761B3DB1254414F8012B03F8012BB2
:101D2000AC42F9D100E025464B883F2B07D9402330
:101D30000B800420FFF7A0FA0023C8F8003005222A
:101D4000074B1A700EB12C46A0E70022024B1A7006
:101D50005846BDE8F88F00BF01F0FF1F08F0FF1FD5
:101D600000F0FF1F04F0FF1FECEFFF1F00B583B072
:101D700002AB03F8010D18460121FFF777FF03B00E
:101D80005DF804FB10B5144B1B7813F0FF0F21D046
:101D90000122124B1A70124B196851B10024114BD9
:101DA0001C704B880B800420FFF766FA0C4B1C60FC
:101DB0000DE0FFF79BFE014630B10022094B1A707F
:101DC0000420FFF759FA02E00122064B1A700022A4
:101DD000024B1A7010BD00BFECEFFF1F01F0FF1F98
:101DE00004F0FF1F00F0FF1F08B50E4B1B7813F027
:101DF000FF0F16D10C4B196841B14B880B800420A2
:101E0000FFF73AFA0022084B1A6008BDFFF76EFE92
:101E1000014618B10420FFF72FFA08BD0122034B39
:101E20001A7008BD01F0FF1F04F0FF1F00F0FF1F34
:101E300008B50F4B1B78CBB901220D4B1A70FFF779
:101E4000EBFE08B1FFF742FE00F0D2FC08B100F053
:101E5000A3F801F025F808B100F040F901F0AEFA5E
:101E600008B100F0DDF90022014B1A7008BD00BF77
:101E700011F0FF1F08B503681B68C9B2984708BD79
:101E800008B503681B68C9B2984708BD08B5036860
:101E90001B68C9B2984708BD08B503681B68C9B27A
:101EA000984708BD08B54B0803F1B76000F55840E6
:101EB000B0FBF1F000F022FA08BD00BF10B51446E7
:101EC0004B0803F1B76000F55840B0FBF1F000F0AB
:101ED00015FA204600F07AFA10BD00BF08B500F0F0
:101EE000A5FA08BD08B5084600F0DAFA08BD00BF3B
:101EF00008B5084600F02EFB08BD00BF08B508462F
:101F0000114600F0E9FA08BD08B5084600F04EFB9E
:101F1000003018BF012008BD08B5084600F068FB76
:101F2000003018BF012008BD08B500F061FC08BDF5
:101F300008B500F0A7FC08BD08B500F069FC08BDB5
:101F400008B500F033FC08BD08B500F0B5FC08BDCD
:101F500008B500F03BFC08BD08B5084600F074FB6E
:101F6000012008BD08B5084600F06EFB012008BD41
:101F700010B514460846114600F0B6FB204610BDC9
:101F800038B50D46084602F0B7FD044628462146FE
:101F900000F0AAFB204638BD704700BF044B00226A
:101FA0001A714FF47A7199601A73024A1A60704775
:101FB00014F0FF1FF84F000008B503681B68C9B292
:101FC000984708BD08B503681B68C9B2984708BDA3
:101FD00008B503681B68C9B2984708BD08B503680F
:101FE0001B68C9B2984708BD08B54B0803F1B76034
:101FF00000F55840B0FBF1F000F014FD08BD00BF43
:1020000010B514464B0803F1B76000F55840B0FB1B
:10201000F1F000F007FD204600F068FD10BD00BFA4
:1020200008B500F093FD08BD08B5084600F0EEFDC8
:1020300008BD00BF08B5084600F042FE08BD00BF5D
:1020400008B50846114600F0FDFD08BD08B5084674
:1020500000F064FE003018BF012008BD08B5084636
:1020600000F07EFE003018BF012008BD08B500F06A
:1020700017FF08BD08B500F05DFF08BD08B500F00A
:102080001FFF08BD08B500F0E9FE08BD08B500F067
:102090006BFF08BD08B500F0F1FE08BD08B50846A5
:1020A00000F080FE012008BD08B5084600F07AFE69
:1020B000012008BD10B514460846114600F0C2FEC6
:1020C000204610BD38B50D46084602F015FD044601
:1020D0002846214600F0B6FE204638BD704700BFB6
:1020E000044B00221A714FF47A7199601A73024AF4
:1020F0001A60704724F0FF1F5850000008B50368AD
:102100001B68C9B2984708BD08B503681B68C9B207
:10211000984708BD08B503681B68C9B2984708BD51
:1021200008B503681B68C9B2984708BD08B54B08D5
:1021300003F1B76000F55840B0FBF1F000F086FF06
:1021400008BD00BF10B514464B0803F1B76000F599
:102150005840B0FBF1F000F079FF204600F0B8FFE6
:1021600010BD00BF08B500F0E3FF08BD08B5084684
:1021700001F018F808BD00BF08B5084601F05AF88C
:1021800008BD00BF08B50846114601F027F808BD94
:1021900008B5084601F050F8003018BF012008BD0E
:1021A00008B5084601F06AF8003018BF012008BDE4
:1021B00008B501F003F908BD08B501F049F908BDFB
:1021C00008B501F00BF908BD08B501F0D5F808BD58
:1021D00008B501F057F908BD08B501F0DDF808BDF4
:1021E00008B5084601F06CF8012008BD08B508469E
:1021F00001F066F8012008BD10B5144608461146E6
:1022000001F0AEF8204610BD38B50D46084602F084
:1022100073FC04462846214601F0A2F8204638BD4A
:10222000704700BF044B00221A714FF47A71996015
:102230001A73024A1A60704734F0FF1FB85000004A
:102240006022264B1A70E12201331A70244B1B784E
:10225000082B09D1012203F1804303F56C331A6086
:10226000132204331A6011E00A2B06D139221D4BC8
:102270001A60132204331A6008E00C2B0CBF3522BD
:102280003D22184B1A60122204331A60164B1B7839
:102290001BB10122154B1A6002E00022134B1A6099
:1022A000134B1B78012B03D88022124B1A6011E0CC
:1022B000042B03D884220F4B1A600BE0082B03D8A1
:1022C00085220C4B1A6005E0102B94BF86228722D2
:1022D000084B1A600122084B1A70704700400740F3
:1022E000C4E5FF1F08B0034045F0FF1F20B00340C6
:1022F000C5E5FF1F24B0034044F0FF1F254B1A68BB
:1023000042F480621A600023234A1370234A137038
:10231000234A1370234A1370234A1370234B1B78EC
:1023200013B1152B05D008E040F21332204B1A6090
:1023300003E040F213321F4B1A601F4B1B78012B36
:1023400002D0052B05D008E04FF451721B4B1A60E8
:1023500003E04FF451721A4B1A60C0F34432194B28
:102360001A70C0F347125A7000F01F0098720422CE
:102370009A700221D9745A7588221A743C22DA7034
:102380004022114B1A704FF48032A3F544731A6047
:10239000704700BF34800440D4F0FF1F4DF0FF1F92
:1023A000DCF0FF1FD5F0FF1F4CF0FF1F90F0FF1F68
:1023B00040A0044018C00440C6E5FF1F44A00440EC
:1023C0001CC0044000A0064010E400E0164B9B78BF
:1023D00003F0EC0300F00302134310F0040F18BFE6
:1023E00043F01003104A937000F00F03042B04D144
:1023F0001346927942F040029A710B4B5A7902F0DF
:10240000EF0210F0100F18BF42F01002064B5A7185
:102410009B7903F0EF0310F0200F18BF43F0100377
:10242000014A9371704700BF00A0064010B5144BDD
:102430001B6813F4806F21D0124B1B7813F0FF0F31
:1024400006D0104CFFF7F4FC237813F0FF0FF9D1FE
:102450004FF480320C4B1A6000230C4AD37040F2C8
:1024600003120B490A6004310A600A4A13700A4ACF
:1024700013700A4B1B680BB101221A7010BD00BF0C
:10248000348004404CF0FF1F80E100E000A00640D3
:1024900040A00440D4F0FF1F4DF0FF1F48F0FF1F85
:1024A00010B50446094A137813F0FF0FFBD12046FC
:1024B0000121FEF77DFD20460021FEF747FD044B7C
:1024C00053F83420034B1A6010BD00BF4CF0FF1FBF
:1024D000B84E0000D8F0FF1F10B40C4609B140F010
:1024E0008000184B1B78984228D0174A126812F4C3
:1024F000806F21D003F07F03012B02D0052B04D085
:1025000006E00022114B1A6002E00022104B1A6014
:10251000002C0CBF4422602200F07F03012B02D06C
:10252000052B05D008E042F44072084B1A6003E026
:1025300042F44072064B1A60024B18705DF8044B6F
:10254000704700BFC6E5FF1F3480044044A004402C
:102550001CC00440114B1B7898421ED0104A1268D0
:1025600012F4806F17D013B1152B04D006E00022AF
:102570000C4B1A6002E000220B4B1A6010B11528B8
:1025800005D008E040F21332064B1A6003E040F237
:102590001332054B1A60014B1870704790F0FF1F03
:1025A0003480044040A0044018C0044010B50D4BD6
:1025B0001B6813F4806F12D021280CD80A4C0B4BE7
:1025C00053F8303023600121FEF7F2FC236800222B
:1025D0001A70012010BD0020034B186010BD0020B0
:1025E00010BD00BF3480044048F0FF1FB84E00000B
:1025F000114B1B6813F4806F1BD0122804D140F2DA
:1026000002320E4B1A600DE0142804D140F202325F
:102610000B4B1A6006E00B4B5A7B02F0FE025A731A
:1026200000207047074B5A7B42F001025A73012089
:1026300070470020704700BF348004400CA0044065
:1026400014C0044000A006402DE9F04107461F4B8E
:102650001B6813F4806F37D01D4B1B680BB1012230
:102660001A701C4B1C780134402C28BF00241A4DD2
:102670001A4EDFF86C8017E0FEF712FC40280FDCE2
:10268000337913F0800F0FD02B780133402B28BF04
:10269000002318F80320D2B2F271DBB22B7003E0F2
:1026A000FF2801DDFFF7C4FB2B78DBB29C42E3D0AF
:1026B000FFB20B4B1F5501220A4B1A70E4B2054BB7
:1026C0001C70BC22054BDA70BDE8F08134800440F8
:1026D000D8F0FF1FDCF0FF1FD5F0FF1F00A0064061
:1026E00050F0FF1F4CF0FF1F2DE9F84F0746284B15
:1026F0001B6813F4806F49D0264B1B680BB1012275
:102700001A7007EB010B5F453DD2DFF89890224E1F
:10271000DFF88C80DFF890A099F800400134402C5D
:1027200028BF00243578EDB2A54220D1BC2388F81B
:102730000330FEF7B5FB402811DC98F8043013F0A5
:10274000800F10D033780133402B28BF00231AF8B4
:102750000320D2B288F80720DBB2337003E0FF28F1
:1027600001DDFFF765FB3378DBB29D42E1D017F85E
:10277000013B0AF804300122084B1A70E4B289F8D0
:1027800000405F45C8D1BC22054BDA70BDE8F88F28
:1027900034800440D8F0FF1FD5F0FF1F4CF0FF1F1E
:1027A00000A00640DCF0FF1F50F0FF1F10B5064BE5
:1027B0001B7813F0FF0F06D0034CFFF739FB23788B
:1027C00013F0FF0FF9D110BD4CF0FF1F064B1B7823
:1027D000DBB2064A1278D2B293422CBF3F3202F1EA
:1027E000FF32D01A704700BFDCF0FF1FD5F0FF1F8B
:1027F000054B1878C0B2054B1B78DBB2984238BF46
:102800004030C01A704700BFD4F0FF1F4DF0FF1FCB
:1028100010B4184B1A78D2B2174B1B78DBB29A421D
:1028200018D001333F2B18D81449C85CC0B2DCB2B1
:1028300011490C7012490968C9B19A4203D300E0EA
:102840000023D31A01E04032D31A1A2B0FDC0023E5
:102850000B700CE04FF0FF3009E0084B1878C0B265
:102860000021054B1970064B19680029E8D15DF865
:10287000044B7047D4F0FF1F4DF0FF1F94F0FF1F73
:1028800048F0FF1F094B1A78D2B2094B1B78DBB214
:102890009A4207D00133402B28BF0023054AD05C61
:1028A000C0B270474FF0FF30704700BFD4F0FF1F39
:1028B0004DF0FF1F94F0FF1F0D4B1B6813F4806F4A
:1028C00014D00C4BDA7802F0CB02DA7040225A7442
:1028D000DA7842F03402DA70074B1A78D2B2074B3A
:1028E0001A70074B1B680BB100221A70704700BFAB
:1028F0003480044000A006404DF0FF1FD4F0FF1FBD
:1029000048F0FF1F70B43D4B1B7913F0300F33D0EC
:1029100072B63A4B9B7D03F0FF022BB9374BDA7945
:1029200040225A7462B627E062B6354B1978C9B2B4
:10293000344B1C78E4B2314D334EEB79D8B24B1C9A
:10294000402B28BF0023A3421CBFF0541946531E3E
:1029500013F0FF02F1D1CAB2294B1A702B4B1B683E
:1029600053B1A1422EBFC4EB0101C4F140040919C7
:102970002729C4BF01221A70204BDA78D2B212F094
:10298000800F27D01B7913F0800F23D0204B1C78A9
:10299000E4B2204B1B78DBB29C4210D017491E4D8D
:1029A00001E0A3420BD00133402B28BF002308795C
:1029B000E85CC0B2C871087DC0B20728F1D9DBB2AB
:1029C00014490B700D4B1B7913F0800F02D07C2142
:1029D0000A4BD97012F0400F0ED0084B1B7913F040
:1029E000400F09D000220D4B1A700D4B1B6803B12C
:1029F0001A703C22014BDA7070BC704700A0064090
:102A0000D4F0FF1F4DF0FF1F94F0FF1F48F0FF1F91
:102A1000DCF0FF1FD5F0FF1F50F0FF1F4CF0FF1F31
:102A2000D8F0FF1F234B1A6842F400621A6000239B
:102A3000214A1370214A1370214A1370214A1370DE
:102A4000214A1370214B1B78092B02D01A2B05D079
:102A500008E040F213321E4B1A6003E040F21332DA
:102A60001C4B1A601C4B1B780A2B02D01F2B05D065
:102A700008E04FF45172194B1A6003E04FF45172A1
:102A8000174B1A60C0F34432164B1A70C0F347124A
:102A90005A7000F01F00987200229A701A742C224B
:102AA000DA704022104B1A704FF48022A3F21233D6
:102AB0001A6070473480044050F1FF1FE5F0FF1F9B
:102AC00058F1FF1F51F1FF1FE4F0FF1FC7E5FF1F83
:102AD0000CB0044004D00440C8E5FF1F10B004400F
:102AE00000D0044000B0064012E400E0164B9B7892
:102AF00003F0EC0300F00302134310F0040F18BFBF
:102B000043F01003104A937000F00F03042B04D11C
:102B10001346927942F040029A710B4B5A7902F0B7
:102B2000EF0210F0100F18BF42F01002064B5A715E
:102B30009B7903F0EF0310F0200F18BF43F0100350
:102B4000014A9371704700BF00B0064010B5224B98
:102B50001B6813F4006F3ED0204B1B7813F0FF0F5F
:102B600006D01E4CFFF764F9237813F0FF0FF9D15C
:102B70004FF480221A4B1A6000221A4BDA701A4B5B
:102B80001B78092B02D01A2B05D008E040F2031263
:102B9000164B1A6003E040F20312154B1A60154BF6
:102BA0001B7803F07F030A2B02D01F2B05D008E00F
:102BB00040F20312104B1A6003E040F203120F4B75
:102BC0001A6000230E4A13700E4A13700E4B1B68D6
:102BD0000BB101221A7010BD34800440E4F0FF1FD5
:102BE00080E100E000B00640C7E5FF1F0CB00440E4
:102BF00004D00440C8E5FF1F10B0044000D00440DA
:102C000050F1FF1FE5F0FF1FE0F0FF1F10B5044675
:102C1000094A137813F0FF0FFBD120460121FEF77C
:102C2000C7F920460021FEF791F9044B53F83420F0
:102C3000034B1A6010BD00BFE4F0FF1FB84E000048
:102C400054F1FF1F10B40C4609B140F08000184B3E
:102C50001B78984228D0174A126812F4006F21D0CE
:102C600003F07F030A2B02D01F2B04D006E00022C2
:102C7000114B1A6002E00022104B1A60002C0CBFAE
:102C80004422602200F07F030A2B02D01F2B05D0C4
:102C900008E042F44072084B1A6003E042F44072CC
:102CA000064B1A60024B18705DF8044B704700BF6A
:102CB000C8E5FF1F3480044010B0044000D0044039
:102CC000124B1B78984220D0114A126812F4006F00
:102CD00019D0092B02D01A2B04D006E000220D4B8C
:102CE0001A6002E000220C4B1A60092802D01A2850
:102CF00005D008E040F21332064B1A6003E040F2C0
:102D00001332054B1A60014B18707047C7E5FF1F5F
:102D1000348004400CB0044004D0044010B50D4B86
:102D20001B6813F4006F12D021280CD80A4C0B4BEF
:102D300053F8303023600121FEF73AF9236800226E
:102D40001A70012010BD0020034B186010BD002038
:102D500010BD00BF34800440E0F0FF1FB84E0000FB
:102D60000D4B1B6813F4006F13D017280AD140F2E3
:102D700002320A4B1A600A4B5A7B42F001025A7324
:102D800001207047064B5A7B02F0FE025A73002066
:102D900070470020704700BF3480044008B00440F2
:102DA00000B006402DE9F04107461F4B1B6813F4A5
:102DB000006F37D01D4B1B680BB101221A701C4BE2
:102DC0001C780134282C28BF00241A4D1A4EDFF835
:102DD0006C8017E0FEF764F840280FDC337913F0BD
:102DE000800F0FD02B780133282B28BF002318F831
:102DF0000320D2B2F271DBB22B7003E0FF2801DDB9
:102E0000FFF716F82B78DBB29C42E3D0FFB20B4BF6
:102E10001F5501220A4B1A70E4B2054B1C70AC22FC
:102E2000054BDA70BDE8F0813480044054F1FF1F97
:102E300058F1FF1F51F1FF1F00B00640E8F0FF1FDF
:102E4000E4F0FF1F38B505460C4629B115F8010B13
:102E5000FFF7A8FF013CF9D138BD00BF10B5064B04
:102E60001B7813F0FF0F06D0034CFEF7E1FF237829
:102E700013F0FF0FF9D110BDE4F0FF1F064B1B78D4
:102E8000DBB2064A1278D2B293422CBF273202F14B
:102E9000FF32D01A704700BF58F1FF1F51F1FF1FDA
:102EA000054B1878C0B2054B1B78DBB2984238BF8F
:102EB0004030C01A704700BF50F1FF1FE5F0FF1F00
:102EC00010B4184B1A78D2B2174B1B78DBB29A4267
:102ED00018D001333F2B18D81449C85CC0B2DCB2FB
:102EE00011490C7012490968C9B19A4203D300E034
:102EF0000023D31A01E04032D31A1A2B0FDC00232F
:102F00000B700CE04FF0FF3009E0084B1878C0B2AE
:102F10000021054B1970064B19680029E8D15DF8AE
:102F2000044B704750F1FF1FE5F0FF1F10F1FF1F2A
:102F3000E0F0FF1F094B1A78D2B2094B1B78DBB2C5
:102F40009A4207D00133402B28BF0023054AD05CAA
:102F5000C0B270474FF0FF30704700BF50F1FF1F05
:102F6000E5F0FF1F10F1FF1F054B1A78D2B2054B99
:102F70001A70054B1B680BB100221A70704700BF16
:102F8000E5F0FF1F50F1FF1FE0F0FF1F264B1B79FC
:102F900013F0200F12D0244BDB79D9B2234B1B78CE
:102FA0000133402B28BF0023214A1278D2B29A4223
:102FB00004D0204AD154DBB21C4A13701A4BDB7880
:102FC000DBB213F0800F1CD0174A127912F0800F79
:102FD00017D0194A1178C9B2184A1278D2B2914260
:102FE00003D16C21104AD1700BE00132282A28BF8E
:102FF00000221349885CC0B20B49C871D2B20F4994
:103000000A7013F0400F0ED0074B1B7913F0400FDE
:1030100009D000220B4B1A700B4B1B6803B11A70BE
:103020002C22014BDA70704700B0064050F1FF1FB0
:10303000E5F0FF1F10F1FF1F58F1FF1F51F1FF1FB7
:10304000E8F0FF1FE4F0FF1F54F1FF1F174B1A6851
:1030500042F480521A600023154A1370154A137007
:10306000154A1370154A1370154A137040F2133144
:10307000144A11604FF4517104321160C0F34431AD
:10308000114A1170C0F34711517000F01F00907287
:10309000937013742C23D37040220C4B1A704FF48E
:1030A0008012A3F545731A60704700BF3480044056
:1030B000CCF1FF1F61F1FF1FD4F1FF1FCDF1FF1F06
:1030C00060F1FF1F08C0044000C0064014E400E0A7
:1030D000164B9B7803F0EC0300F00302134310F04F
:1030E000040F18BF43F01003104A937000F00F0351
:1030F000042B04D11346927942F040029A710B4B93
:103100005A7902F0EF0210F0100F18BF42F01002CF
:10311000064B5A719B7903F0EF0310F0200F18BF94
:1031200043F01003014A9371704700BF00C006408E
:1031300010B5144B1B6813F4805F21D0124B1B7821
:1031400013F0FF0F06D0104CFEF772FE237813F039
:10315000FF0FF9D14FF480120C4B1A6000230C4A78
:10316000D37040F203120B490A6004310A600A4A24
:1031700013700A4A13700A4B1B680BB101221A70B4
:1031800010BD00BF3480044060F1FF1F80E100E00B
:1031900000C0064008C00440CCF1FF1F61F1FF1FD2
:1031A0005CF1FF1F10B50446094A137813F0FF0FB6
:1031B000FBD120460121FDF7FBFE20460021FDF753
:1031C000C5FE044B53F83420034B1A6010BD00BFFA
:1031D00060F1FF1FB84E0000D0F1FF1F10B40C4685
:1031E00009B140F08000104B1B78984219D00F4A6B
:1031F000126812F4805F12D003F07F03082B02D113
:1032000000220B4B1A60002C0CBF4422602200F0FD
:103210007F03082B03D142F44072054B1A60024B26
:1032200018705DF8044B7047C9E5FF1F34800440F7
:103230000CC00440704700BF10B50D4B1B6813F461
:10324000805F12D021280CD80A4C0B4B53F8303039
:1032500023600121FDF7ACFE236800221A700120D3
:1032600010BD0020034B186010BD002010BD00BF32
:10327000348004405CF1FF1FB84E00000D4B1B680A
:1032800013F4805F13D00E280AD140F202320A4BA9
:103290001A600A4B5A7B42F001025A7301207047B0
:1032A000064B5A7B02F0FE025A7300207047002042
:1032B000704700BF3480044004C0044000C0064092
:1032C0002DE9F04107461F4B1B6813F4805F37D090
:1032D0001D4B1B680BB101221A701C4B1C7801346A
:1032E000282C28BF00241A4D1A4EDFF86C8017E0F6
:1032F000FDF7D6FD40280FDC337913F0800F0FD097
:103300002B780133282B28BF002318F80320D2B2D2
:10331000F271DBB22B7003E0FF2801DDFEF788FDC0
:103320002B78DBB29C42E3D0FFB20B4B1F5501223E
:103330000A4B1A70E4B2054B1C70AC22054BDA70D4
:10334000BDE8F08134800440D0F1FF1FD4F1FF1FAD
:10335000CDF1FF1F00C0064064F1FF1F60F1FF1FA9
:1033600038B505460C4629B115F8010BFFF7A8FF43
:10337000013CF9D138BD00BF10B5064B1B7813F0E6
:10338000FF0F06D0034CFEF753FD237813F0FF0F19
:10339000F9D110BD60F1FF1F064B1B78DBB2064A66
:1033A0001278D2B293422CBF273202F1FF32D01AE8
:1033B000704700BFD4F1FF1FCDF1FF1F054B1878F8
:1033C000C0B2054B1B78DBB2984238BF4030C01A00
:1033D000704700BFCCF1FF1F61F1FF1F10B4184B05
:1033E0001A78D2B2174B1B78DBB29A4218D001334D
:1033F0003F2B18D81449C85CC0B2DCB211490C701C
:1034000012490968C9B19A4203D300E00023D31AD4
:1034100001E04032D31A1A2B0FDC00230B700CE0B2
:103420004FF0FF3009E0084B1878C0B20021054B7F
:103430001970064B19680029E8D15DF8044B7047F4
:10344000CCF1FF1F61F1FF1F8CF1FF1F5CF1FF1F2B
:10345000094B1A78D2B2094B1B78DBB29A4207D0DB
:103460000133402B28BF0023054AD05CC0B270470F
:103470004FF0FF30704700BFCCF1FF1F61F1FF1F1D
:103480008CF1FF1F054B1A78D2B2054B1A70054B11
:103490001B680BB100221A70704700BF61F1FF1F5B
:1034A000CCF1FF1F5CF1FF1F2F4B1B7913F0200F96
:1034B00023D02D4BDB79D9B22C4B1B780133402B19
:1034C00028BF00232A4A1278D2B29A4204D0294A4D
:1034D000D154D9B2254A1170274A116869B1274AD7
:1034E0001278D2B293422EBFC2EB0303C2F1400264
:1034F0009B18272BC4BF01230B701B4BDB78DBB25F
:1035000013F0800F1CD0184A127912F0800F17D0D8
:103510001B4A1178C9B2194A1278D2B2914203D12A
:103520006C21114AD1700BE00132282A28BF0022F9
:103530001449885CC0B20C49C871D2B20F490A70F4
:1035400013F0400F0ED0084B1B7913F0400F09D039
:1035500000220D4B1A700D4B1B6803B11A702C2200
:10356000014BDA70704700BF00C00640CCF1FF1F6E
:1035700061F1FF1F8CF1FF1F5CF1FF1FCDF1FF1FF9
:10358000D4F1FF1F64F1FF1F60F1FF1FD0F1FF1F97
:1035900000B585B072B61B4B70221A7041211A4AD1
:1035A00011700F21013A117080221A701A46137897
:1035B00013F0800FFBD0154B186862B6144B98427D
:1035C0009CBF00EB8000400001A90A22FDF78CFCA3
:1035D0009DF804307BB908E001A9595C31B19180B4
:1035E000023201330A2BF7D100E0002301335B00E4
:1035F000084A137003E0074A53800123ECE705B043
:103600005DF804FB00000240070002400800024091
:103610007F96980058E6FF1F31F0004310B408D0A1
:103620000F4AA3F5801494420AD804205DF8044B95
:10363000704700280CBF022003205DF8044B704740
:10364000B3F5801F01D20320F7E7064A934201D069
:103650000020F2E7D0F1010038BF0020EDE700BF05
:10366000FFFFDF7F0000F07F81F0004102E000BF3C
:1036700083F0004330B54FEA41044FEA430594EA32
:10368000050F08BF90EA020F1FBF54EA000C55EA6D
:10369000020C7FEA645C7FEA655C00F0E2804FEA3E
:1036A0005454D4EB5555B8BF6D420CDD2C4480EA20
:1036B000020281EA030382EA000083EA010180EA50
:1036C000020281EA0303362D88BF30BD11F0004F9E
:1036D0004FEA01314FF4801C4CEA113102D04042D4
:1036E00061EB410113F0004F4FEA03334CEA13330F
:1036F00002D0524263EB430394EA050F00F0A78027
:10370000A4F10104D5F1200E0DDB02FA0EFC22FA21
:1037100005F2801841F1000103FA0EF2801843FA15
:1037200005F359410EE0A5F120050EF1200E012A06
:1037300003FA0EFC28BF4CF0020C43FA05F3C01844
:1037400051EBE37101F0004507D54FF0000EDCF1BD
:10375000000C7EEB00006EEB0101B1F5801F1BD366
:10376000B1F5001F0CD349085FEA30004FEA3C0C6A
:1037700004F101044FEA445212F5800F80F09A8060
:10378000BCF1004F08BF5FEA500C50F1000041EB64
:10379000045141EA050130BD5FEA4C0C404141EB68
:1037A000010111F4801FA4F10104E9D191F0000F8F
:1037B00004BF01460020B1FA81F308BF2033A3F112
:1037C0000B03B3F120020CDA0C3208DD02F1140C09
:1037D000C2F10C0201FA0CF021FA02F10CE002F144
:1037E0001402D8BFC2F1200C01FA02F120FA0CFC3D
:1037F000DCBF41EA0C019040E41AA2BF01EB045186
:10380000294330BD6FEA04041F3C1CDA0C340EDC83
:1038100004F11404C4F1200220FA04F001FA02F3C6
:1038200040EA030021FA04F345EA030130BDC4F184
:103830000C04C4F1200220FA02F001FA04F340EA79
:103840000300294630BD21FA04F0294630BD94F02A
:10385000000F83F4801306BF81F480110134013D11
:103860004EE77FEA645C18BF7FEA655C29D094EA82
:10387000050F08BF90EA020F05D054EA000C04BF00
:103880001946104630BD91EA030F1EBF00210020EB
:1038900030BD5FEA545C05D14000494128BF41F08A
:1038A000004130BD14F580043CBF01F5801130BDEE
:1038B00001F0004545F0FE4141F470014FF0000079
:1038C00030BD7FEA645C1ABF194610467FEA655C2A
:1038D0001CBF0B46024650EA013406BF52EA0335CC
:1038E00091EA030F41F4002130BD00BF90F0000FBA
:1038F00004BF0021704730B54FF4806404F13204F6
:103900004FF000054FF0000150E700BF90F0000FAE
:1039100004BF0021704730B54FF4806404F13204D5
:1039200010F0004548BF40424FF000013EE700BFA5
:1039300042004FEAE2014FEA31014FEA02701FBF35
:1039400012F07F4393F07F4F81F06051704792F007
:10395000000F14BF93F07F4F704730B54FF4607481
:1039600001F0004521F0004120E700BF50EA0102CC
:1039700008BF704730B54FF000050AE050EA010279
:1039800008BF704730B511F0004502D5404261EBE9
:1039900041014FF4806404F132045FEA915C3FF42A
:1039A000DCAE4FF003025FEADC0C18BF03325FEAC3
:1039B000DC0C18BF033202EBDC02C2F1200300FA78
:1039C00003FC20FA02F001FA03FE40EA0E0021FA9D
:1039D00002F11444C1E600BF70B54FF0FF0C4CF487
:1039E000E06C1CEA11541DBF1CEA135594EA0C0F3D
:1039F00095EA0C0F00F0DEF82C4481EA030621EA78
:103A00004C5123EA4C5350EA013518BF52EA0335B2
:103A100041F4801143F4801338D0A0FB02CE4FF064
:103A20000005E1FB02E506F00042E0FB03E54FF094
:103A30000006E1FB03569CF0000F18BF4EF0010E8C
:103A4000A4F1FF04B6F5007F64F5407404D25FEA88
:103A50004E0E6D4146EB060642EAC62141EA55513B
:103A60004FEAC52040EA5E504FEACE2EB4F1FD0C7D
:103A700088BFBCF5E06F1ED8BEF1004F08BF5FEAFB
:103A8000500E50F1000041EB045170BD06F00046AD
:103A900046EA010140EA020081EA0301B4EB5C045A
:103AA000C2BFD4EB0C0541EA045170BD41F4801152
:103AB0004FF0000E013C00F3AB8014F1360FDEBF77
:103AC000002001F0004170BDC4F10004203C35DA53
:103AD0000C341BDC04F11404C4F1200500FA05F3D6
:103AE00020FA04F001FA05F240EA020001F0004277
:103AF00021F0004110EBD37021FA04F642EB0601ED
:103B00005EEA430E08BF20EAD37070BDC4F10C0416
:103B1000C4F1200500FA04F320FA05F001FA04F2DA
:103B200040EA020001F0004110EBD37041F10001C6
:103B30005EEA430E08BF20EAD37070BDC4F12005D1
:103B400000FA05F24EEA020E20FA04F301FA05F239
:103B500043EA020321FA04F001F0004121FA04F2E1
:103B600020EA020000EBD3705EEA430E08BF20EAB1
:103B7000D37070BD94F0000F0FD101F000464000EB
:103B800041EB010111F4801F08BF013CF7D041EA6D
:103B9000060195F0000F18BF704703F00046520071
:103BA00043EB030313F4801F08BF013DF7D043EA42
:103BB0000603704794EA0C0F0CEA135518BF95EAF8
:103BC0000C0F0CD050EA410618BF52EA4306D1D17F
:103BD00081EA030101F000414FF0000070BD50EA9E
:103BE000410606BF1046194652EA430619D094EA28
:103BF0000C0F02D150EA013613D195EA0C0F05D112
:103C000052EA03361CBF104619460AD181EA030165
:103C100001F0004141F0FE4141F470014FF000001D
:103C200070BD41F0FE4141F4780170BD70B54FF0B8
:103C3000FF0C4CF4E06C1CEA11541DBF1CEA135538
:103C400094EA0C0F95EA0C0F00F0A7F8A4EB05041A
:103C500081EA030E52EA03354FEA013100F0888011
:103C60004FEA03334FF0805545EA131343EA1263DA
:103C70004FEA022245EA111545EA10654FEA00268F
:103C80000EF000419D4208BF964244F1FD0404F548
:103C9000407402D25B084FEA3202B61A65EB0305A4
:103CA0005B084FEA32024FF480104FF4002CB6EB61
:103CB000020E75EB030E22BFB61A754640EA0C00E1
:103CC0005B084FEA3202B6EB020E75EB030E22BF21
:103CD000B61A754640EA5C005B084FEA3202B6EB62
:103CE000020E75EB030E22BFB61A754640EA9C0021
:103CF0005B084FEA3202B6EB020E75EB030E22BFF1
:103D0000B61A754640EADC0055EA060E18D04FEAAE
:103D1000051545EA16754FEA06164FEAC30343EA4E
:103D200052734FEAC2025FEA1C1CC0D111F4801F1B
:103D30000BD141EA00014FF000004FF0004CB6E714
:103D400011F4801F04BF01430020B4F1FD0C88BFB3
:103D5000BCF5E06F3FF6AFAEB5EB030C04BFB6EBBE
:103D6000020C5FEA500C50F1000041EB045170BDB1
:103D70000EF0004E4EEA113114EB5C04C2BFD4EBDE
:103D80000C0541EA045170BD41F480114FF0000E62
:103D9000013C90E645EA060E8DE60CEA135594EADE
:103DA0000C0F08BF95EA0C0F3FF43BAF94EA0C0FE1
:103DB0000AD150EA01347FF434AF95EA0C0F7FF456
:103DC00025AF104619462CE795EA0C0F06D152EAAA
:103DD00003353FF4FDAE1046194622E750EA41068E
:103DE00018BF52EA43067FF4C5AE50EA41047FF49F
:103DF0000DAF52EA43057FF4EBAE12E74FF0FF3C04
:103E000006E000BF4FF0010C02E000BF4FF0010CD4
:103E10004DF804CD4FEA410C7FEA6C5C4FEA430C4D
:103E200018BF7FEA6C5C1BD001B050EA410C0CBF9C
:103E300052EA430C91EA030F02BF90EA020F0020FE
:103E4000704710F1000F91EA030F58BF994208BF65
:103E500090422CBFD8176FEAE37040F00100704722
:103E60004FEA410C7FEA6C5C02D150EA013C07D179
:103E70004FEA430C7FEA6C5CD6D152EA033CD3D0C4
:103E80005DF8040B704700BF8446104662468C46BE
:103E90001946634600E000BF01B5FFF7B7FF0028F1
:103EA00048BF10F1000F01BD4DF808EDFFF7F4FF1A
:103EB0000CBF012000205DF808FB00BF4DF808EDA5
:103EC000FFF7EAFF34BF012000205DF808FB00BFC8
:103ED0004DF808EDFFF7E0FF94BF012000205DF8EA
:103EE00008FB00BF4DF808EDFFF7CEFF94BF01209F
:103EF00000205DF808FB00BF4DF808EDFFF7C4FF98
:103F000034BF012000205DF808FB00BF4A0011D239
:103F100012F5001211D20DD56FF47873B3EB625223
:103F20000ED44FEAC12343F0004343EA505323FA2F
:103F300002F070474FF00000704750EA013002D1A4
:103F40004FF0FF3070474FF00000704780F00040A6
:103F500002E000BF81F0004142001FBF5FEA410361
:103F600092EA030F7FEA226C7FEA236C6AD04FEA61
:103F70001262D2EB1363C1BFD218414048404140A6
:103F8000B8BF5B42192B88BF704710F0004F40F458
:103F9000000020F07F4018BF404211F0004F41F474
:103FA000000121F07F4118BF494292EA030F3FD040
:103FB000A2F1010241FA03FC10EB0C00C3F1200353
:103FC00001FA03F100F0004302D5494260EB4000E2
:103FD000B0F5000F13D3B0F1807F06D340084FEA4D
:103FE000310102F10102FE2A51D2B1F1004F40EB42
:103FF000C25008BF20F0010040EA030070474900AA
:1040000040EB000010F4000FA2F10102EDD1B0FA74
:1040100080FCACF1080CB2EB0C0200FA0CF0AABF69
:1040200000EBC25052421843BCBFD0401843704707
:1040300092F0000F81F4000106BF80F4000001320D
:10404000013BB5E74FEA41037FEA226C18BF7FEAE4
:10405000236C21D092EA030F04D092F0000F08BF26
:104060000846704790EA010F1CBF0020704712F00D
:104070007F4F04D1400028BF40F00040704712F14C
:1040800000723CBF00F50000704700F0004343F0B1
:10409000FE4040F4000070477FEA226216BF0846E7
:1040A0007FEA23630146420206BF5FEA412390EAAA
:1040B000010F40F4800070474FF0000304E000BFA0
:1040C00010F0004348BF40425FEA000C08BF704751
:1040D00043F0964301464FF000001CE050EA010215
:1040E00008BF70474FF000030AE000BF50EA01022A
:1040F00008BF704711F0004302D5404261EB410117
:104100005FEA010C02BF84460146002043F0B6433B
:1041100008BFA3F18053A3F50003BCFA8CF2083A60
:10412000A3EBC25310DB01FA02FC634400FA02FC69
:10413000C2F12002BCF1004F20FA02F243EB020070
:1041400008BF20F00100704702F1200201FA02FCD2
:10415000C2F1200250EA4C0021FA02F243EB0200C5
:1041600008BF20EADC7070474FF0FF0C1CEAD05209
:104170001EBF1CEAD15392EA0C0F93EA0C0F6FD0CA
:104180001A4480EA010C400218BF5FEA41211ED0A8
:104190004FF0006343EA501043EA5111A0FB013194
:1041A0000CF00040B1F5000F3EBF490041EAD37169
:1041B0005B0040EA010062F17F02FD2A1DD8B3F1E5
:1041C000004F40EBC25008BF20F00100704790F054
:1041D000000F0CF0004C08BF49024CEA502040EAA6
:1041E00051207F3AC2BFD2F1FF0340EAC25070476C
:1041F00040F400004FF00003013A5DDC12F1190FAA
:10420000DCBF00F000407047C2F10002410021FA1B
:1042100002F1C2F1200200FA02FC5FEA310040F133
:10422000000053EA4C0308BF20EADC70704792F0AC
:10423000000F00F0004C02BF400010F4000F013AE4
:10424000F9D040EA0C0093F0000F01F0004C02BFDF
:10425000490011F4000F013BF9D041EA0C018FE74E
:104260000CEAD15392EA0C0F18BF93EA0C0F0AD054
:1042700030F0004C18BF31F0004CD8D180EA01007A
:1042800000F00040704790F0000F17BF90F0004F13
:10429000084691F0000F91F0004F14D092EA0C0FF5
:1042A00001D142020FD193EA0C0F03D14B0218BF88
:1042B000084608D180EA010000F0004040F0FE40CE
:1042C00040F40000704740F0FE4040F4400070476A
:1042D0004FF0FF0C1CEAD0521EBF1CEAD15392EAE9
:1042E0000C0F93EA0C0F69D0A2EB030280EA010CD9
:1042F00049024FEA402037D04FF0805343EA111172
:1043000043EA10130CF000408B4238BF5B0042F1CF
:104310007D024FF4000C8B4224BF5B1A40EA0C0074
:10432000B3EB510F24BFA3EB510340EA5C00B3EBA6
:10433000910F24BFA3EB910340EA9C00B3EBD10F94
:1043400024BFA3EBD10340EADC001B0118BF5FEAE6
:104350001C1CE0D1FD2A3FF650AF8B4240EBC2500F
:1043600008BF20F0010070470CF0004C4CEA5020D0
:104370007F32C2BFD2F1FF0340EAC250704740F41F
:1043800000004FF00003013A37E792F0000F00F011
:10439000004C02BF400010F4000F013AF9D040EA8F
:1043A0000C0093F0000F01F0004C02BF490011F423
:1043B000000F013BF9D041EA0C0195E70CEAD1531B
:1043C00092EA0C0F08D142027FF47DAF93EA0C0F02
:1043D0007FF470AF084676E793EA0C0F04D14B02E6
:1043E0003FF44CAF08466EE730F0004C18BF31F098
:1043F000004CCAD130F000427FF45CAF31F0004392
:104400007FF43CAF5FE700BF4FF0FF3C06E000BF2A
:104410004FF0010C02E000BF4FF0010C4DF804CD4D
:104420004FEA40024FEA41037FEA226C18BF7FEA5D
:10443000236C11D001B052EA530C18BF90EA010F5F
:1044400058BFB2EB030088BFC81738BF6FEAE170EE
:1044500018BF40F0010070477FEA226C02D15FEA8A
:10446000402C05D17FEA236CE4D15FEA412CE1D0F6
:104470005DF8040B704700BF844608466146FFE7BD
:104480000FB5FFF7C9FF002848BF10F1000F0FBD9F
:104490004DF808EDFFF7F4FF0CBF012000205DF898
:1044A00008FB00BF4DF808EDFFF7EAFF34BF01201D
:1044B00000205DF808FB00BF4DF808EDFFF7E0FFB6
:1044C00094BF012000205DF808FB00BF4DF808ED07
:1044D000FFF7D2FF94BF012000205DF808FB00BF6A
:1044E0004DF808EDFFF7C8FF34BF012000205DF84C
:1044F00008FB00BF42000ED2B2F1FE4F0BD34FF0CB
:104500009E03B3EB126209D44FEA002343F0004349
:1045100023FA02F070474FF00000704712F1610F6C
:1045200001D1420202D14FF0FF3070474FF000003E
:10453000704700BF70B50F4E0F4D761BB61007D0F9
:10454000043D0024013455F8043F9847A642F9D1B0
:104550000A4E0B4D761B00F00BFEB61008D0043D42
:104560000024013455F8043F9847A642F9D170BDA4
:1045700070BD00BF7C5100007C51000094510000D0
:104580007C510000024B0146186800F003B800BFE0
:1045900098EAFF1F2DE9F04F01F10B05162D83B0AE
:1045A000064627D935F0070527D4A94225D8304635
:1045B00000F08CFAB5F5FC7F26D2C14F4FEAD50C3E
:1045C00007EBCC03DC689C4200F0D2816368E268B0
:1045D000A16823F00303234430465D68CA6045F0B8
:1045E000010591605D6000F073FA0834204603B065
:1045F000BDE8F08F1025A942D9D900240C2320460C
:10460000336003B0BDE8F08F5FEA552C00F08A807C
:10461000BCF1040F00F260814FEA951C0CF1380CDC
:104620004FEA4C01A64F07EB8101CC68A14205D1AE
:104630000CE0002B7ADAE468A14207D0626822F02D
:104640000302531B0F2BF4DD0CF1FF3C0CF1010CAA
:104650009B4B3C6903F1080E744500F07E81616854
:1046600021F003014A1B0F2A00F36481002AC3F8DA
:1046700014E0C3F810E06ADAB1F5007F80F03A8107
:10468000C90803EBC1004FEAA1085A688168A1601C
:104690004FF0010909FA08F848EA0202E0605A609E
:1046A0008460CC604FEAAC030120984090425BD814
:1046B000024206D12CF0030C400002420CF1040C23
:1046C000FAD007EBCC084446E146E3689C4207D1A8
:1046D00045E1002A80F25681DB689C4200F03F8170
:1046E000596821F003014A1B0F2AF2DD1C46D3F85A
:1046F0000CC054F8088F591945F0010942F0010522
:10470000C3F804903046C8F80CC0CCF80880796132
:104710003961C1F80CE0C1F808E04D608A5000F042
:10472000D7F963E77E214FF03F0C7BE72244E36833
:104730005068A16840F00105CB6030469960556033
:1047400000F0C6F90834204603B0BDE8F08F2144DC
:1047500030464B6843F001034B6000F0B9F9083470
:10476000204603B0BDE8F08FBC68636823F00309FE
:10477000A94504D3C5EB09030F2B00F39180514BDE
:10478000514A19681368013305EB010A04EB090B60
:1047900000F061810AF5805A0AF10F0A2AF47F6A53
:1047A0002AF00F0A30465146019200F093F9B0F119
:1047B000FF3F8046019A00F00081834500F2FA80B5
:1047C000DFF810C1DCF80030C3455344CCF80030AA
:1047D00000F04A8112683C4901321BBFCBEB080B49
:1047E0005B44C1F80080CCF8003018F0070300F0FB
:1047F0001381C3F10802C3F5805390440833C244C7
:10480000CAF30B0ACAEB030A51463046CDF804C07E
:1048100000F060F9431CDDF804C000F03581C8EBFE
:104820000002524442F00102DCF80030C7F8088070
:104830005344BC42C8F80420CCF80030DFF894A000
:1048400015D0B9F10F0F40F2EA806168A9F10C02AE
:1048500022F0070201F0010EA118052042EA0E0E17
:104860000F2AC4F804E04860886000F21181174AFA
:10487000BC6811688B4288BF1360154A11688B426F
:1048800088BF1360626822F003029542C5EB020301
:1048900001D80F2B04DC304600F01AF90024A5E6FD
:1048A000621943F0010345F0010565603046BA60C6
:1048B000536000F00DF90834204603B0BDE8F08FD6
:1048C0009CEAFF1FE0F1FF1FA8EEFF1FDCF1FF1FB6
:1048D000D8F1FF1FE4F1FF1FBCF1140F61D9BCF147
:1048E000540F00F28F804FEA153C0CF16E0C4FEA2A
:1048F0004C0197E64B0A042B58D9142B00F2AE80DA
:1049000003F15B02500007EB8000DFF8BC81836895
:10491000834200F08A805A6822F00302914202D258
:104920009B689842F7D1D9687A68E160A3608C608F
:10493000DC60B7E6611942F0010745F001056560EA
:10494000304659611961C1F80CE0C1F808E04F60C8
:104950008A50083400F0BCF848E65A68A2E609F12B
:10496000010919F0030F04F108047FF4AEAE2DE045
:1049700004F108036469A34208BF0CF1020C3FF480
:1049800067AE23E619441C464868DB6854F8082FD4
:1049900040F001054D603046D3609A6000F098F811
:1049A00024E60CF15B0C4FEA4C013BE68A093832F5
:1049B0005000A8E7BC423FF403AFBC68626822F035
:1049C000030262E7D8F8008098457BD11CF0030F02
:1049D000A8F108030CF1FF3CF4D17B6823EA000343
:1049E0007B60400098423FF6BFAE00283FF4BCAE6B
:1049F0000342CC467FF465AE400003420CF1040C48
:104A0000FAD05EE6BCF5AA7F1AD84FEAD53C0CF185
:104A1000770C4FEA4C0105E64FF48053EFE6012393
:104A2000C8F80430444600222FE791100120D8F83E
:104A3000042000FA01F10A43C8F80420194674E77B
:104A400040F254539C451BD84FEA954C0CF17C0C1A
:104A50004FEA4C01E6E50AF1100AA3E6542B1FD8F1
:104A60000A0B6E3250004EE7CBF30B0100297FF4A6
:104A7000B1AE0AEB0901BA6841F001015160F6E6F6
:104A8000FC214FF07E0CCDE501224FF0000ACBE671
:104A900004F10801304600F0D5F8DAF80030E6E617
:104AA000B3F5AA7F03D8CA0B773250002BE740F248
:104AB0005452934203D88A0C7C32500023E7FC20E6
:104AC0007E2220E77B688CE79CEAFF1F704700BFCF
:104AD000704700BF38B5074C0023054608462360E1
:104AE000FCF7D6F9431C00D038BD2368002BFBD05F
:104AF0002B6038BD20F2FF1F20F0030110F00300EF
:104B0000C0F1000051F8043B00F1040C4FEACC0C5A
:104B10006FF000021CBF22FA0CF213434FF0010C9D
:104B20004CEA0C2C4CEA0C4CA3EB0C0222EA0302DC
:104B300012EACC1204BF51F8043B0430F4D013F055
:104B4000FF0F1FBF013013F47F4F013013F47F0FAD
:104B500018BF0130704700BF024B13B1024800F08C
:104B600005B8704700000000794B000001460020A6
:104B70000246034600F034B938B5094D094C641BB0
:104B8000A41018BF05EB840505D0013C55F8043D81
:104B90009847002CF9D1BDE8384000F0FBBA00BFBF
:104BA0000000000000000000F8B5234D0F46044649
:104BB000FFF78CFFAB685E6826F00306F11B01F679
:104BC000EF7121F47F6121F00F01A1F58057B7F556
:104BD000805F07DB20460021FFF77CFFAB68334492
:104BE000984204D02046FFF773FF0020F8BD20460E
:104BF0007942FFF76FFF01300DD0104BAA6819689A
:104C0000F61B46F001062046C91B56601960FFF7E7
:104C10005FFF0120F8BD20460021FFF75BFFAB6876
:104C2000C21A0F2ADEDD064D04492D6842F001024A
:104C3000401B5A600860D5E79CEAFF1FE4F1FF1FA4
:104C4000A8EEFF1F2DE9F0410D460646002955D07C
:104C5000FFF73CFF55F8041CDFF874C121F0010395
:104C6000A5F10804E218DCF808005768904227F024
:104C7000030769D011F00101576032D00021D0192B
:104C80004068C00706D43B44906800294ED0D268E3
:104C9000C260906043F001026260E350E1B9B3F595
:104CA000007F2DD35A0A042A6AD898093830410067
:104CB0000CEB810C4649DCF80820624566D051684F
:104CC00021F003018B4202D292689445F7D1D36858
:104CD000E360A2609C60D4603046BDE8F041FFF71D
:104CE000F7BE55F8085C641B0CF10808A068404545
:104CF0002B4443D0E568C560A860C0E7BDE8F081FB
:104D0000DB080CEBC3020125DCF804009168A1600C
:104D10009B1005FA03F31843E260CCF8040094609A
:104D20003046CC60BDE8F041FFF7D2BE294DA84225
:104D3000ADD143F00102CCF81440CCF81040E06053
:104D4000A0606260E350C7E71F44CB0707D455F863
:104D5000083CE41A1F44A268E368D3609A601E4BC3
:104D60001B6847F001029F426260CCF80840B3D351
:104D70001A4B30461968FFF717FFADE701217EE7B0
:104D8000142A0CD802F15B00410091E74B688010B7
:104D9000012505FA00F003434B60134698E7542AB7
:104DA00003D8180B6E30410082E7B2F5AA7F03D812
:104DB000D80B773041007BE740F254518A4203D848
:104DC000980C7C30410073E7FC217E2070E700BF27
:104DD0009CEAFF1FA4EAFF1FA4EEFF1FE0F1FF1FE4
:104DE000F0B5274C2668D6F8484185B00746002C18
:104DF00041D065681F2D1EDD224818B94FF0FF30E5
:104E000005B0F0BD4FF4C870039102920193FFF713
:104E1000B9FB0399029A019B04460028EED0D6F80C
:104E200048512560002060600546C6F84841C4F836
:104E30008801C4F88C013FB9AB1C002001356560C6
:104E400044F8231005B0F0BD04EB85004FF0010CD1
:104E5000C0F88820D4F888610CFA05F21643022FB6
:104E6000C4F88861C0F80831E6D1D4F88C311A430F
:104E7000C4F88C21E0E706F5A674C6F84841B8E707
:104E80006C51000085450000455252002C204572AF
:104E900072436E74203D20000D0E131516191A1C56
:104EA000232526292A2C32340D0A00006E616E005B
:104EB000696E66006F7666004008FE4340A00440BD
:104EC0004408FE4344A004400018FE4300C00440D0
:104ED0003000FE43309004403400FE4334900440E0
:104EE0001C18FE431CC004401018FE4310C00440B0
:104EF0000818FE4308C004400C18FE430CC00440D0
:104F00000C10FE430CB004401010FE4310B00440DF
:104F10001810FE4318B004401C10FE431CB004409F
:104F20001410FE4314B004400418FE4304C00440AF
:104F30000010FE4300B004400008FE4300A00440FF
:104F40000408FE4304A004400C08FE430CA00440E7
:104F50000808FE4308A004401418FE4314C004408F
:104F60001818FE4318C004400410FE4304B0044067
:104F70000810FE4308B004401400FE43149004409F
:104F80004C08FE434CA004400420FE4304D00440DF
:104F90002410FE4324B004402010FE4320B00440FF
:104FA0002810FE4328B004402C10FE432CB00440CF
:104FB0000020FE4300D004404808FE4348A00440BF
:104FC0001000FE43109004400000000000000000AC
:104FD000B51A0000C11A00008D1A0000951A0000D1
:104FE0009D1A0000A51A0000AD1A00000000000084
:104FF0000000000000000000591F0000711F0000A9
:10500000291F0000391F0000311F0000411F000050
:10501000A51E0000BD1E0000DD1E0000E51E0000F4
:10502000F11E0000FD1E0000091F0000191F0000F6
:10503000491F0000511F0000751E0000811E000066
:105040008D1E0000991E0000811F0000651F0000DA
:1050500000000000000000009D200000B5200000BE
:105060006D2000007D2000007520000085200000DC
:10507000E91F00000120000021200000292000007D
:1050800035200000412000004D2000005D20000080
:105090008D20000095200000B91F0000C51F0000F2
:1050A000D11F0000DD1F0000C5200000A920000066
:1050B0000000000000000000E1210000F9210000D4
:1050C000B1210000C1210000B9210000C921000068
:1050D0002D21000045210000652100006D21000008
:1050E000792100008521000091210000A12100000C
:1050F000D1210000D9210000FD200000092100007D
:10510000152100002121000009220000ED210000EE
:105110000015191500010000CCE5FF1F120000006A
:1051200000020000F8E5FF1F43000000000300003C
:1051300054E6FF1F0000000001030904E0E5FF1F23
:1051400000000000020309043CE6FF1F000000000D
:105150000303090458E6FF1F0000000000000000E0
:1051600000000000000000004300000070E6FF1F88
:10517000F8B500BFF8BC08BC9E467047594B00000C
:1051800035040000D11A00009D1F0000E12000003E
:0451900025220000D4
:04519400F8B500BFAB
:105198000B0000002A2A2A2A2A2A382C000000009C
:1051A80000000000000000000000000000000000F7
:1051B80000000000000000000000000000000000E7
:1051C80000000000000000000000000000000000D7
:1051D80000000000000000000C0A0000790900002F
:1051E80079090000790900007909000024F2FF1FFD
:1051F800FFFFFFFF0A0401090A080000120101016C
:1052080002000040C01683040002010203010000EE
:1052180018035400650065006E007300790064008F
:10522800750069006E006F0009024300020100C0AA
:1052380032090400000102020100052400100105E2
:105248002401010104240206052406000107058241
:105258000310004009040100020A000000070503CA
:1052680002400000070584024000000016035500B4
:10527800530042002000530065007200690061007D
:105288006C000000040309040C0300000000000087
:105298000000000000000000000000000000000006
:1052A800000000005CE9FF1FC4E9FF1F2CEAFF1F94
:1052B80000000000000000000000000000000000E6
:1052C80000000000000000000000000000000000D6
:1052D800000000006851000000000000000000000D
:1052E80000000000000000000000000000000000B6
:1052F80000000000000000000000000000000000A6
:105308000000000000000000000000000000000095
:105318000000000000000000000000000000000085
:105328000000000000000000000000000000000075
:105338000000000000000000000000000000000065
:105348000000000000000000010000000000000054
:105358000E33CDAB34126DE6ECDE05000B00000019
:105368000000000000000000000000000000000035
:105378000000000000000000000000000000000025
:105388000000000000000000000000000000000015
:105398000000000000000000000000000000000005
:1056C800000000000000000070E6FF1F000000005E
:1056D800000000009CEAFF1F9CEAFF1FA4EAFF1FCE
:1056E800A4EAFF1FACEAFF1FACEAFF1FB4EAFF1FE2
:1056F800B4EAFF1FBCEAFF1FBCEAFF1FC4EAFF1F92
:10570800C4EAFF1FCCEAFF1FCCEAFF1FD4EAFF1F41
:10571800D4EAFF1FDCEAFF1FDCEAFF1FE4EAFF1FF1
:10572800E4EAFF1FECEAFF1FECEAFF1FF4EAFF1FA1
:10573800F4EAFF1FFCEAFF1FFCEAFF1F04EBFF1F50
:1057480004EBFF1F0CEBFF1F0CEBFF1F14EBFF1FFD
:1057580014EBFF1F1CEBFF1F1CEBFF1F24EBFF1FAD
:1057680024EBFF1F2CEBFF1F2CEBFF1F34EBFF1F5D
:1057780034EBFF1F3CEBFF1F3CEBFF1F44EBFF1F0D
:1057880044EBFF1F4CEBFF1F4CEBFF1F54EBFF1FBD
:1057980054EBFF1F5CEBFF1F5CEBFF1F64EBFF1F6D
:1057A80064EBFF1F6CEBFF1F6CEBFF1F74EBFF1F1D
:1057B80074EBFF1F7CEBFF1F7CEBFF1F84EBFF1FCD
:1057C80084EBFF1F8CEBFF1F8CEBFF1F94EBFF1F7D
:1057D80094EBFF1F9CEBFF1F9CEBFF1FA4EBFF1F2D
:1057E800A4EBFF1FACEBFF1FACEBFF1FB4EBFF1FDD
:1057F800B4EBFF1FBCEBFF1FBCEBFF1FC4EBFF1F8D
:10580800C4EBFF1FCCEBFF1FCCEBFF1FD4EBFF1F3C
:10581800D4EBFF1FDCEBFF1FDCEBFF1FE4EBFF1FEC
:10582800E4EBFF1FECEBFF1FECEBFF1FF4EBFF1F9C
:10583800F4EBFF1FFCEBFF1FFCEBFF1F04ECFF1F4B
:1058480004ECFF1F0CECFF1F0CECFF1F14ECFF1FF8
:1058580014ECFF1F1CECFF1F1CECFF1F24ECFF1FA8
:1058680024ECFF1F2CECFF1F2CECFF1F34ECFF1F58
:1058780034ECFF1F3CECFF1F3CECFF1F44ECFF1F08
:1058880044ECFF1F4CECFF1F4CECFF1F54ECFF1FB8
:1058980054ECFF1F5CECFF1F5CECFF1F64ECFF1F68
:1058A80064ECFF1F6CECFF1F6CECFF1F74ECFF1F18
:1058B80074ECFF1F7CECFF1F7CECFF1F84ECFF1FC8
:1058C80084ECFF1F8CECFF1F8CECFF1F94ECFF1F78
:1058D80094ECFF1F9CECFF1F9CECFF1FA4ECFF1F28
:1058E800A4ECFF1FACECFF1FACECFF1FB4ECFF1FD8
:1058F800B4ECFF1FBCECFF1FBCECFF1FC4ECFF1F88
:10590800C4ECFF1FCCECFF1FCCECFF1FD4ECFF1F37
:10591800D4ECFF1FDCECFF1FDCECFF1FE4ECFF1FE7
:10592800E4ECFF1FECECFF1FECECFF1FF4ECFF1F97
:10593800F4ECFF1FFCECFF1FFCECFF1F04EDFF1F46
:1059480004EDFF1F0CEDFF1F0CEDFF1F14EDFF1FF3
:1059580014EDFF1F1CEDFF1F1CEDFF1F24EDFF1FA3
:1059680024EDFF1F2CEDFF1F2CEDFF1F34EDFF1F53
:1059780034EDFF1F3CEDFF1F3CEDFF1F44EDFF1F03
:1059880044EDFF1F4CEDFF1F4CEDFF1F54EDFF1FB3
:1059980054EDFF1F5CEDFF1F5CEDFF1F64EDFF1F63
:1059A80064EDFF1F6CEDFF1F6CEDFF1F74EDFF1F13
:1059B80074EDFF1F7CEDFF1F7CEDFF1F84EDFF1FC3
:1059C80084EDFF1F8CEDFF1F8CEDFF1F94EDFF1F73
:1059D80094EDFF1F9CEDFF1F9CEDFF1FA4EDFF1F23
:1059E800A4EDFF1FACEDFF1FACEDFF1FB4EDFF1FD3
:1059F800B4EDFF1FBCEDFF1FBCEDFF1FC4EDFF1F83
:105A0800C4EDFF1FCCEDFF1FCCEDFF1FD4EDFF1F32
:105A1800D4EDFF1FDCEDFF1FDCEDFF1FE4EDFF1FE2
:105A2800E4EDFF1FECEDFF1FECEDFF1FF4EDFF1F92
:105A3800F4EDFF1FFCEDFF1FFCEDFF1F04EEFF1F41
:105A480004EEFF1F0CEEFF1F0CEEFF1F14EEFF1FEE
:105A580014EEFF1F1CEEFF1F1CEEFF1F24EEFF1F9E
:105A680024EEFF1F2CEEFF1F2CEEFF1F34EEFF1F4E
:105A780034EEFF1F3CEEFF1F3CEEFF1F44EEFF1FFE
:105A880044EEFF1F4CEEFF1F4CEEFF1F54EEFF1FAE
:105A980054EEFF1F5CEEFF1F5CEEFF1F64EEFF1F5E
:105AA80064EEFF1F6CEEFF1F6CEEFF1F74EEFF1F0E
:105AB80074EEFF1F7CEEFF1F7CEEFF1F84EEFF1FBE
:105AC80084EEFF1F8CEEFF1F8CEEFF1F94EEFF1F6E
:0C5AD80094EEFF1F00000200FFFFFFFF24
:00000001FF
