:1000000000200020F9000000C50C0000890C000051
:10001000890C0000890C0000890C0000890C00008C
:10002000890C0000890C0000890C0000C50C000040
:10003000C50C0000890C0000C50C0000790C000004
:10004000C50C0000C50C0000C50C0000C50C00006C
:10005000C50C0000C50C0000C50C0000C50C00005C
:10006000C50C0000C50C0000C50C0000C50C00004C
:10007000C50C0000C50C0000C50C0000C50C00003C
:1000800051270000C50C0000D92D0000C50C000050
:10009000F5320000C50C0000C50C0000C50C0000C6
:1000A000C50C0000C50C0000C50C0000C50C00000C
:1000B000C50C0000C50C00003D0A0000550A0000F8
:1000C0006D0A0000850A0000C50C000055110000F3
:1000D000C50C0000C50C0000C50C0000C50C0000DC
:1000E000C50C0000C50C0000C50C0000C50C0000CC
:1000F000C50C0000C50C0000554B4CF2205210B549
:100100001A804DF628121A8000BF00BF00F0DEFDF5
:10011000504B514A1A60514A5A60A3F53043283B6C
:100120001A6812F4807204D14D490A604FF4A85243
:100130001A604C4B1A78110703D51A7842F008025E
:100140001A70494B494C4A482A221A70494A0023DE
:100150009918A14203D2195899500433F8E7464B35
:10016000464900228B4202D243F8042BFAE7444866
:10017000444900235A581A500433F82BFAD1424B01
:10018000424A802103F8011B9342FBD1404B3C4A79
:100190001A60404B8A221A70A3F5805324225A70A9
:1001A000A0221A709A799207FCD59A79D406FCD4C9
:1001B000394A937903F00C03082B374BF9D103220A
:1001C0001A7140225A719A799006FCD5324A917977
:1001D000314B4906FBD5314A31491160022151604A
:1001E00020221A709A7902F00C020C2AFAD12D4BB7
:1001F0002D4A1A602D4B2E4A1A6000225A6007229F
:1002000043F8042C2B4AC3F80C2D62B600F06EFEA6
:10021000134B1B68DA0705D5274800F0ADFD274BC7
:10022000274A1A60274B1B785B0609D5234C244AC2
:100230002368934204D1204800F09EFD00232360F0
:1002400004F07EF800F048FD00F074FCFEE700BF0B
:100250000E20054038800440823F04000100002B3E
:1002600014D0034002D0074000E00740E4EEFF1F37
:100270002C89000060E5FF1FE4EEFF1F5CF2FF1F0A
:1002800000E1FF1F0000000000E400E02EE400E0B9
:1002900008ED00E000500640004006404480044065
:1002A0000000030104800440C010050014E000E0D9
:1002B000FF76010000002020A62169591CE00340C0
:1002C000A5C3945A00F00740FFFFFFFFFFFFFFFFA9
:1002D000FFFFFFFFFFFFFFFFFFFFFFFFFFFFFFFF2E
:1002E000FFFFFFFFFFFFFFFFFFFFFFFFFFFFFFFF1E
:1002F000FFFFFFFFFFFFFFFFFFFFFFFFFFFFFFFF0E
:10030000FFFFFFFFFFFFFFFFFFFFFFFFFFFFFFFFFD
:10031000FFFFFFFFFFFFFFFFFFFFFFFFFFFFFFFFED
:10032000FFFFFFFFFFFFFFFFFFFFFFFFFFFFFFFFDD
:10033000FFFFFFFFFFFFFFFFFFFFFFFFFFFFFFFFCD
:10034000FFFFFFFFFFFFFFFFFFFFFFFFFFFFFFFFBD
:10035000FFFFFFFFFFFFFFFFFFFFFFFFFFFFFFFFAD
:10036000FFFFFFFFFFFFFFFFFFFFFFFFFFFFFFFF9D
:10037000FFFFFFFFFFFFFFFFFFFFFFFFFFFFFFFF8D
:10038000FFFFFFFFFFFFFFFFFFFFFFFFFFFFFFFF7D
:10039000FFFFFFFFFFFFFFFFFFFFFFFFFFFFFFFF6D
:1003A000FFFFFFFFFFFFFFFFFFFFFFFFFFFFFFFF5D
:1003B000FFFFFFFFFFFFFFFFFFFFFFFFFFFFFFFF4D
:1003C000FFFFFFFFFFFFFFFFFFFFFFFFFFFFFFFF3D
:1003D000FFFFFFFFFFFFFFFFFFFFFFFFFFFFFFFF2D
:1003E000FFFFFFFFFFFFFFFFFFFFFFFFFFFFFFFF1D
:1003F000FFFFFFFFFFFFFFFFFFFFFFFFFFFFFFFF0D
:10040000FFFFFFFFFFFFFFFFFFFFFFFFDEF9FFFF23
:1004100010B5054C237833B9044B13B10448AFF33E
:1004200000800123237010BDE4EEFF1F00000000D8
:100430002489000008B5064B1BB106480649AFF3F6
:1004400000800648036813B1054B03B1984708BD07
:100450000000000024890000E8EEFF1FE4EEFF1F0B
:100460000000000010B50D20012100F0C7FC0120A4
:1004700000F0E2F8132000F0D9F84FF47A6000F0B1
:1004800087F900F055FA0D20012100F085FC4FF4AA
:100490007A7000F015FD0D20002100F07DFC094C64
:1004A00023685B682046084918229847204600F0D8
:1004B000F5FA0023054A13700121054A1170054A17
:1004C000137010BD28F0FF1F6884000000EFFF1FAD
:1004D00001EFFF1F02EFFF1FF0B5C7B01E238DF81D
:1004E0000F3004A80DF10F0100F030FA00285DD0A4
:1004F0002F4C20469DF80F100A22002300F0DEFA50
:10050000204600F0CBFA204606210A22002300F004
:10051000D5FA204600F0C2FA9DF810509DF811401F
:10052000DDF812609DF80F10062904D0214B1A78CF
:1005300001321A703AE0204B1B782BB100221E4B7F
:100540001A701E4B1C7031E01C4B1B78A3422DD03F
:100550000CB9FF2B10D001339C420DD0144F3B68D7
:100560005B683846164903229847384600F096FAE9
:10057000104B1A7801321A70104B1C70304603F081
:10058000FDF8CDE9000106A80E492A46234604F0ED
:1005900049FC06A804F06CFC0246054C23685B6825
:1005A000204606A99847204600F078FA47B0F0BDEB
:1005B00028F0FF1F02EFFF1F01EFFF1F00EFFF1FDB
:1005C00084840000888400004B1EDBB299B10133A3
:1005D000C1184FF6FF7210F8013B534083EA031332
:1005E000DBB2121242EA032282EA131282EAC30247
:1005F0008842F0D101E04FF6FF721046704700BF0D
:100600000D280AD0084A012312F8011F814206D0A2
:100610000133DBB2102BF7D103E0002070471846FE
:1006200070470020704700BFB0840000014B187075
:10063000704700BF60E5FF1F014B1870704700BF97
:1006400010EFFF1F38B5454B1B781BB1444A11789A
:1006500001311170434A12789A420BD0424A127803
:100660004F2A8CBF1D210B210A443F490A703D4A85
:10067000137003E03C4B1A7814321A703A4B1B7813
:100680009F2B69D9394A118849081180344A127858
:10069000042A03D941F40061344A11806033324A9C
:1006A000137000222E4B1A70314B1B78002B43D055
:1006B000304A13780133DBB213700B2B4CD92B4B20
:1006C0001C8804F03F00FFF79BFF0546C4F387102A
:1006D000FFF796FF40EA0510C2B2274B1B7813F0D4
:1006E000FF0F0DD1254B1A70131FDBB21A2B07D940
:1006F00000221F4B1A70224B1A7801321A7038BD33
:100700001D4B1978C9B2481CC0B218701D4842541C
:100710001B78DBB2194A12789A4209D80022144B8E
:100720001A70194B1A7801321A700122174B1A707D
:100730000022104B1A7038BD0C4B1A8840F6383323
:100740009A4209D101220A4B1A700023094A1370F8
:10075000094A13700D4A137038BD00BF08EFFF1F20
:1007600012EFFF1F07EFFF1F09EFFF1F3CEFFF1FF7
:100770000DEFFF1F14EFFF1F0CEFFF1F11EFFF1F07
:100780000EEFFF1F18EFFF1F0FEFFF1F13EFFF1FED
:1007900038B50546082000F0C9FA04460023036076
:1007A00080230371284603F08DFB0146194803F0AE
:1007B00095FC0546002103F085FDA8B92846164999
:1007C00003F094FD80B92846144903F0D3FB4FF0A1
:1007D0007C5103F0C5FA03F093FD0246232803D9A8
:1007E00020460F4900F0E0F80E4B1878012100F088
:1007F00005FB0D4B1878002100F000FB0B4C207816
:10080000012100F0FBFA2078094B197800F0C4FAB6
:1008100038BD00BF0024F447ABAAAA4C00004042F8
:1008200065080000A8E5FF1F60E5FF1FA9E5FF1FA1
:1008300010EFFF1F08B5074B1878074B197800F029
:10084000ABFA064B1878002100F0A6FA0022044B00
:100850001A7008BDA9E5FF1F10EFFF1FA8E5FF1FD5
:1008600006EFFF1F10B5274B1B7823B1264B1B78D3
:1008700013F0FF0F3CD0244B1B7813F0FF0F27D051
:10088000224A1378591C117013BB214B1B78214A43
:1008900012789A4206D8FFF7CDFF1F4B1A88013213
:1008A0001A8015E01D4A10781D4AD25C1D4C237831
:1008B000591C217001219940114000F06DFA2378F4
:1008C000052B05D900222270114B1A7801321A70BB
:1008D0000E4B1B78072B02D900220C4B1A70094BC8
:1008E0001B7873B1084B1B7813F0FF0F07D010BDB6
:1008F0000D4B187800F074FA0C4B1870BBE7FFF73B
:10090000A1FE10BD0AEFFF1F06EFFF1F38EFFF1F0C
:100910003AEFFF1F0BEFFF1F04EFFF1FA8E5FF1FBC
:1009200064E5FF1F39EFFF1F60E5FF1F08EFFF1FA2
:10093000044B1B782BB90122024B1A700022024B88
:100940001A7070470AEFFF1F0DEFFF1F10B50B461F
:10095000114A127812F0FF0F1BD0104A1278033A96
:10096000D2B20978914288BF1A700D4C611C1A7876
:1009700000F0E8F80022084B1A70084B197820465E
:10098000FFF722FE4FF2B803984214BF0020012067
:1009900010BD002010BD00BF13EFFF1F0CEFFF1FA5
:1009A00018EFFF1F704700BF30B403682BB100245D
:1009B0009C6003680124DC6016E01A4B1C6844F458
:1009C00000041C600124184B1C6003F58073036055
:1009D000164D03689C683CB110330360AB42F8D9F4
:1009E0000023036018461BE00468114B23441B11CD
:1009F000104D45F8231022600268032191600179AF
:100A00000D4A995403F11E0253119B0003F16043F8
:100A100003F5614302F01F02012000FA02F21A609E
:100A200030BC70473C800440007003403F7103407D
:100A3000008FFCBFACE5FF1F1EE400E008B50122FB
:100A4000024B1A60024B1B68984708BD0C710340AB
:100A5000ACE5FF1F08B50122024B1A60024B5B6830
:100A6000984708BD1C710340ACE5FF1F08B5012283
:100A7000024B1A60024B9B68984708BD2C710340DB
:100A8000ACE5FF1F08B50122024B1A60024BDB6880
:100A9000984708BD3C710340ACE5FF1F00B583B02B
:100AA000054B1B88ADF8043003685B6801A902227E
:100AB000984703B05DF804FBC0840000F0B58BB02C
:100AC000164622B903681B68C9B298472FE0012A6D
:100AD00008BF0A2621B930228DF82520212417E0ED
:100AE00021243746B1FBF6F506FB1515EDB222467B
:100AF000092D94BF30353735EDB20DF1280E724413
:100B000002F8245CB1FBF7F111B1013CE4B2E9E772
:100B100033B1013CE4B20AAB23442D2203F8242C68
:100B200003685B6801A92144C4F1220298470BB015
:100B3000F0BD00BF08B5FFF795FCFFF7CDFC01F055
:100B40009DF8FAE7844641EA000313F003036DD1F0
:100B5000403A41D351F8043B40F8043B51F8043B80
:100B600040F8043B51F8043B40F8043B51F8043B87
:100B700040F8043B51F8043B40F8043B51F8043B77
:100B800040F8043B51F8043B40F8043B51F8043B67
:100B900040F8043B51F8043B40F8043B51F8043B57
:100BA00040F8043B51F8043B40F8043B51F8043B47
:100BB00040F8043B51F8043B40F8043B51F8043B37
:100BC00040F8043B51F8043B40F8043B51F8043B27
:100BD00040F8043B403ABDD2303211D351F8043BC7
:100BE00040F8043B51F8043B40F8043B51F8043B07
:100BF00040F8043B51F8043B40F8043B103AEDD276
:100C00000C3205D351F8043B40F8043B043AF9D2C6
:100C1000043208D0D2071CBF11F8013B00F8013B99
:100C200001D30B8803806046704700BF082A13D3A6
:100C30008B078DD010F003038AD0C3F10403D21ABE
:100C4000DB071CBF11F8013B00F8013B80D331F8F2
:100C5000023B20F8023B7BE7043AD9D3013A11F872
:100C6000013B00F8013BF9D20B7803704B784370DD
:100C70008B78837060467047024B1A6801321A60A5
:100C8000704700BF40EFFF1F08B50D4C236813F4F9
:100C9000802F01D000F05EFA236813F4806F01D03A
:100CA00001F056FD236813F4006F01D002F094F8B0
:100CB000236813F4805FE9D002F01CFBE6E700BF75
:100CC0003480044008B5FFF7DFFF00BF1022014B5E
:100CD0001A80704700200540704700BF024A136821
:100CE0001844106018467047BCE5FF1FEFF31383EC
:100CF000ABB9EFF31083ABB9EFF3058323B10F2B3F
:100D000005D9094A985C03E04FF4807000E00020A8
:100D1000EFF311833BB1834238BF184670474FF061
:100D2000FF30704700207047F0E300E008B503F0A3
:100D30002FFB08BD30B40023B0FBF2F402FB140417
:100D40001D46092C94BF30343734E4B2CC54B0FB88
:100D5000F2F008B10133EFE70D4400226A709342CC
:100D600007DD885CCC5C8C54C8540132013B9A424C
:100D7000F7DB084630BC7047044B00221A60044978
:100D80000A60044A106010221A60704714D00340B1
:100D900004D0034000D0034021281ED80F4B53F845
:100DA000303093F8802212F0FF0F08D019B10122E1
:100DB00083F880207047012283F800217047074B99
:100DC00003EBC000436821B11A6842F003021A60C5
:100DD00070471A6822F002021A607047C48400004B
:100DE000212806D8044B53F8303093F80002C0B2E3
:100DF00070470020704700BFC484000021283AD803
:100E00001D4B03EBC0035B68012919D0042925D0D1
:100E1000194A52F83020002082F8800219B94FF4A4
:100E200080721A607047022903D140F203121A60DF
:100E3000704703290CBF4FF4817200221A6070477B
:100E40000D4A52F83020012182F880124FF4A2722C
:100E50001A601A6822F020021A607047064A52F897
:100E60003020012182F880124FF4A2721A601A68B1
:100E700042F020021A607047C484000072B60C4B26
:100E80001B680C4A12680C49096862B611F0806F41
:100E900002D0322B88BF0132C3F5BB33FF33074981
:100EA000A1FB03039B094FF47A7000FB02307047EB
:100EB00018E000E040EFFF1F04ED00E0ABAAAAAA93
:100EC00038B50546FFF7DAFF044625B938BD013DC0
:100ED0000AD004F57A74FFF7D1FF001BB0F57A7FD2
:100EE000F5D200F0CBFEF6E738BD00BF10B5204BC1
:100EF0004FF480721A604FF400721A604FF48062EF
:100F00001A604FF400621A604FF480521A60002099
:100F1000184B18604BF6FF71043319602823164AEA
:100F2000136008321360083213600832136008320D
:100F3000136008321360083213600832136009220C
:100F40000E4C226004F58054043420600C4801608B
:100F50000C490B6008310B600B4B1A6001F096F8DE
:100F60004FF4C870FFF7ACFF00F074FC10BD00BF79
:100F700004E100E0048003400C8003400080034053
:100F8000089003400C9003400090034030B40E4B97
:100F90001B7843F002020D4C04EBC20460600C4865
:100FA000007800280CBF8824C82444EA0141074D7A
:100FB00045F8321080F00100054A107083F00103FB
:100FC000014A137030BC7047ACEFFF1F00E0FF1FF9
:100FD00025F0FF1F10B4431E032B11D872B60A4A26
:100FE00052F8230050B14268074941F82320074ACC
:100FF00032F813400188611A22F8131062B600E03B
:1010000000205DF8044B70479CEFFF1F44F2FF1F68
:10101000013803280DD872B6074B53F820302BB196
:10102000002001305B68002BFBD100E0002062B69D
:1010300070470020704700BFF0EFFF1F38B572B651
:1010400001231B491B4C5A1812F8012C12F0080FEF
:1010500024D09A0054F832506DB9164B03EBC201FC
:1010600008304860144943F83210144B1A78013A9A
:101070001A7062B638BD42F0010254F832506DB9B0
:101080000C4B03EBC201083048600D4943F83210A5
:101090000A4B1A78013A1A7062B638BD0133052B33
:1010A000D1D162B60022054B1A7000F065FC38BD44
:1010B0002087000000E0FF1F880040001AF0FF1F9B
:1010C000C800400010B4431E032B37D8400140F045
:1010D00010001C4A104472B61B4AD25C032A09D87D
:1010E000DFE802F019021B050830022216E0083082
:1010F000042213E0154A52F823201AB9134A42F881
:10110000231003E0124A52F823205160104A42F89B
:10111000231062B612E0032200E005220A4CE254DA
:1011200001F10803436000F00803002B0CBF882383
:10113000C8230A8843EA0243036062B65DF8044BA1
:10114000704700BF00E0FF1F58EFFF1FF0EFFF1FC9
:1011500000F0FF1F2DE9F84FA34CDFF8E092DFF815
:10116000E0A2DFF8E0B22578EDB215F0040F1DD053
:101170009E4B1B7813F0FF0F16D09D4B1B7803F08E
:10118000FF022BB1531EDBB2994A137003B900BEA4
:10119000984B1B7803F0FF0233B1531EDBB2954A24
:1011A00013700BB900F046FD0423237015F0080FEF
:1011B00000F0E48299F80030DBB21D0940F0218292
:1011C0008D4D9E0805EBC6035A6855F83630C3F3BB
:1011D0008303013B0C2B00F21082DFE813F0CB01FC
:1011E000CB010E020E020E020E020E020E02E801EA
:1011F0000E020E020E020D00804913680B60526849
:101200004A607F4A45F8362000227E490A607A49C2
:101210000A618A6101217C4A11709BB240F28162AD
:10122000934218D8B3F5D06F2ED2B3F5817F00F07A
:101230001E8106D8802B00F0C980822B00F0CC8064
:1012400066E140F20232934200F02681B3F5A06FCE
:1012500000F062815CE142F22102934200F086815B
:1012600007D8B3F5086F00F0AB80B3F5106F11D05D
:101270004EE142F22122934200F0418142F22132BA
:10128000934200F0498143E1604B5D68002D40F0DE
:10129000188130E1594B9A78544B1A70564D05F12C
:1012A00080062B6A13F0800F03D0686A083800F0BC
:1012B00063FB0835B542F4D1DFF88C810026374650
:1012C000534AB05828B1456800F056FB0DB1284686
:1012D000F9E700234E4973504E4AB3504E4BF05835
:1012E00028B1456800F048FB0DB12846F9E7002316
:1012F00049497350494AB35028F8023F484BFB5CB8
:10130000023B032B0AD8DFE803F0020602060022A4
:10131000434BDA5502E00122414BDA5501370436DE
:10132000102ECDD100223F4B1A7001253E4EDFF822
:101330001C81314F05EB080313F8013C06F8043B10
:1013400013F0080F2DD000F0F7FA48B1A90007EB11
:10135000451200F108035360344A47F8312007E092
:10136000AB00002247F833202E4B1A7801321A7056
:1013700000F0E2FA58B1AB0043F0010307EBC30100
:1013800000F108024A601E4A47F8332009E0AB002A
:1013900043F00103002247F83320224B1A78013230
:1013A0001A70AA0042F00201002347F8313042F0DF
:1013B000030247F8323001351D4B9E42BAD11EE27E
:1013C0000A4B1B781B4D2B700127AAE0194D0023F7
:1013D0002B706B700227A4E0084B9B88042B37D935
:1013E0000F22154B1A70C1E08020074024F0FF1F28
:1013F000ADEFFF1F38F0FF1F00E0FF1F10F0FF1FD1
:10140000C800400044EFFF1F25F0FF1F24870000A5
:101410009CEFFF1F48EFFF1FF0EFFF1F00F0FF1FC3
:1014200058EFFF1F1AF0FF1FC4200740880040003C
:10143000D42007401CF0FF1FC02007409020074029
:10144000942007409820074042F2FF1F20870000A9
:10145000A04A0021117051709F4A12F8233013F0F6
:10146000020F5CD09B4D01232B70022759E09B4B50
:101470009B8803F07F03042B02DC984A52881AB140
:101480000F22954B1A7071E0934A12F8231021F045
:10149000020102F82310B2E1904B9B8803F07F0316
:1014A000042B02DC8D4A52881AB10F228A4B1A7023
:1014B0005CE0894A12F8231041F0020102F823107F
:1014C0009DE1864B5E889F88854BA3F10C021146F7
:1014D00033F80C0CB04209D133F80A0CB84205D1EC
:1014E000360A032E0CBF2F7817891AE00D690C33CA
:1014F0000C32002DEBD10F22774B1A7036E0794B6E
:101500001A68794B1A60754B9A78784B1A7076E1A5
:101510000F22714B1A7029E000273D4601E0022797
:101520006C4D6E4BDB889F4228BF1F46402F34BF57
:101530003E46402628463146FFF728FD3544BF1B6E
:1015400003D13F2E00F2608110E0402F34BF3E46B1
:10155000402628463146FFF719FD3544BF1B01D10F
:101560003F2E03D9624B1D60624B1F8001238AF816
:10157000003042E0594B198842F22103994212D1BE
:101580005D4BD81D12F8011B03F8011F8342F9D1EE
:101590005A4B1B68862B02D10F22594B1A70002020
:1015A0000146FFF7F3FC574B45F8363025E0504B2A
:1015B0001E68BEB14F4FB7F80080B8F1400F34BF7E
:1015C0004546402530462946FFF7E0FCC5EB0803B9
:1015D0009BB23B800BB9402D01D1354400E0002582
:1015E000434B1D603D4B1B88B3F5A06F05D13B4BB2
:1015F00000225A709B788BF8003001238AF8003063
:10160000B9E0414E9F0806EBC708D8F80420A2F1C4
:101610000800013DEDB213F0080F47D000F0ACF91F
:101620003A4B53F825304BB35A68384941F82520D6
:1016300003F10802C8F80420354A525D032A12D883
:10164000DFE802F002060A0E0321314A51550AE092
:1016500002212F4A515506E005212D4A515502E03D
:1016600004212B4A515518F0080F0CBF8822C822BC
:101670001B8842EA034346F837307CE0244B5B5D2D
:10168000032B0BD8DFE803F0777702060022204B0C
:101690005A5570E001221E4B5A556CE018F0080FA5
:1016A0000CBF022203221A4B5A5564E056F8373019
:1016B0001B0C22F8083C002B55D0002322F8063CD6
:1016C00042F8043C134B53F825302BBB114B43F825
:1016D000250025E01CF0FF1FC020074010F0FF1F71
:1016E0003087000040EFFF1F54F2FF1F48F0FF1F3C
:1016F00044EFFF1F18F0FF1F4BF2FF1F4CF2FF1FBC
:10170000ADEFFF1FC800400000E0FF1FF0EFFF1F1C
:1017100058EFFF1F9CEFFF1F3F4B53F825305860D9
:101720003D4B43F825003D4B33F8151032F8082C9B
:101730000A4423F8152000F0FFF860B100F1080317
:10174000C8F8043018F0080F354B364A08BF134666
:1017500046F837300FE0002346F83730324B1A781E
:1017600001321A7007E018F0080F2D4B2D4A08BF00
:10177000134646F8373008232370F4E415F0010FC0
:1017800022D02A4902230B700022294B1A70294BC0
:1017900024481860284C5C6098602848D8601A611A
:1017A0009A610D20264B1870FF23264803700838D5
:1017B000037018300270244A13709F22234B1A7052
:1017C00001230B70BDE8F88F15F0800F05D00D22B6
:1017D0001B4B1A708022403B1A7015F0020F06D086
:1017E000184B1A78D2B21A700222083B1A7015F000
:1017F000100F0ED01022164B1A70BDE8F88F002083
:101800000146FFF7C3FBB1E628460021FFF7BEFB08
:10181000ACE6BDE8F88F00BF48EFFF1F44F2FF1FA2
:10182000C8004000880040001AF0FF1F94200740C5
:10183000ACEFFF1F00E0FF1F5CEFFF1FB0EFFF1FCB
:10184000C0200740882007408C20074084200740A4
:101850008020074008B501F0C1FD002319491A4650
:101860005A50C81842600833882BF9D1164B1A68B1
:1018700042F480221A60134BC3F30721134A1170FC
:10188000C3F30741143211701B0E04321370FF238F
:10189000343A137008321370783A1370012384328B
:1018A000137000216C3211707C3A13707022084B57
:1018B0001A700822A3F21F331A601022054B1A7007
:1018C00008BD00BF00E0FF1F348004409C2007409B
:1018D00023E400E00821074008B500F0C3F808BD84
:1018E00008B500F073F808BD08B500F09BF808BD16
:1018F00008B500F06DF908BD08B500F0C1F808BDE5
:1019000008B5084600F058F908BD00BF08B50846FC
:10191000114600F0D1F808BD704700BF044B00220B
:101920001A714FF47A7199601A73024A1A607047FB
:1019300028F0FF1FE085000072B60D4B1A68B2FA5E
:1019400082F30B2B02D962B6002070474FF00041A2
:10195000D94022EA010206490A6062B6054903EB52
:10196000C303DB00C8180022CA504260704700BFA2
:10197000C0E5FF1F00E2FF1F08B50F4BC31A0F4A57
:10198000A2FB03131B090B2B14D80D4A12783AB192
:101990000C4A127812F0FF0F02D0FFF74FFB08BD80
:1019A00072B6094A4FF0004121FA03F31168194356
:1019B000116062B608BD00BF00E2FF1F398EE33838
:1019C0001AF0FF1F24F0FF1FC0E5FF1F10B5134BD7
:1019D0001B6853B9124B1B7813F0FF0F18D003206C
:1019E000FFF7F8FA0D4B1860A8B10C4B1868438844
:1019F0005A1C03441C7A03889A4206D3FFF7BCFFA3
:101A00000022064B1A60204610BD4280204610BDC1
:101A10004FF0FF3010BD4FF0FF3010BD44F0FF1FFE
:101A200024F0FF1F08B50D4B1B6883B90C4B1B78C6
:101A300013F0FF0F08D00320FFF7CCFA074B186014
:101A400028B94FF0FF3008BD4FF0FF3008BD034B01
:101A50001B685A881344187A08BD00BF44F0FF1F62
:101A600024F0FF1F044B9888044B1B681BB11A8895
:101A70005B88D31A1844704744F2FF1F44F0FF1FDD
:101A800010B50B4B1B7813F0FF0F0FD0094B1868E4
:101A900020B1FFF771FF0022064B1A600324204695
:101AA000FFF798FA10B1FFF767FFF8E710BD00BF26
:101AB00024F0FF1F44F0FF1F2DE9F84F04460122D8
:101AC000384B1A708B46002965D00E46DFF8E0804F
:101AD000DFF8E0909A46344FD8F8003083BB99F88D
:101AE000003013F0FF0F06D100222E4B1A704FF07A
:101AF000FF30BDE8F88F4AF2F9250420FFF788FA95
:101B000007280AD801238AF80030FFF715FFC8F824
:101B10000000A8B900238AF80030013D01D03B78CD
:101B200033B10122204B1A704FF0FF30BDE8F88F1F
:101B300000F0A4F899F8003013F0FF0FDDD1D3E7DF
:101B400000233B70D8F800104A88C2F14005AE422D
:101B500038BF354602F108030B442A444A80761BFD
:101B60003DB1254414F8012B03F8012BAC42F9D107
:101B700000E025464B883F2B07D940230B800420EB
:101B8000FFF7A0FA0023C8F800300522074B1A70AF
:101B90000EB12C46A0E70022024B1A705846BDE851
:101BA000F88F00BF39F0FF1F40F0FF1F38F0FF1F14
:101BB0003CF0FF1F24F0FF1F00B583B002AB03F819
:101BC000010D18460121FFF777FF03B05DF804FB14
:101BD00010B5144B1B7813F0FF0F21D00122124BCC
:101BE0001A70124B196851B10024114B1C704B88AC
:101BF0000B800420FFF766FA0C4B1C600DE0FFF72A
:101C00009BFE014630B10022094B1A700420FFF7F9
:101C100059FA02E00122064B1A700022024B1A7098
:101C200010BD00BF24F0FF1F39F0FF1F3CF0FF1F65
:101C300038F0FF1F08B50E4B1B7813F0FF0F16D1BD
:101C40000C4B196841B14B880B800420FFF73AFA1E
:101C50000022084B1A6008BDFFF76EFE014618B15E
:101C60000420FFF72FFA08BD0122034B1A7008BDAC
:101C700039F0FF1F3CF0FF1F38F0FF1F08B50F4B76
:101C80001B78CBB901220D4B1A70FFF7EBFE08B1A0
:101C9000FFF742FE00F0D2FC08B100F0A3F801F01B
:101CA00025F808B100F040F901F0AEFA08B100F0F3
:101CB000DDF90022014B1A7008BD00BF49F0FF1F7B
:101CC00008B503681B68C9B2984708BD08B5036822
:101CD0001B68C9B2984708BD08B503681B68C9B23C
:101CE000984708BD08B503681B68C9B2984708BD86
:101CF00008B54B0803F1376000F5D830B0FBF1F0C0
:101D000000F022FA08BD00BF10B514464B0803F1DD
:101D1000376000F5D830B0FBF1F000F015FA20463E
:101D200000F07AFA10BD00BF08B500F0A5FA08BDB2
:101D300008B5084600F0DAFA08BD00BF08B5084645
:101D400000F02EFB08BD00BF08B50846114600F0A4
:101D5000E9FA08BD08B5084600F04EFB003018BF90
:101D6000012008BD08B5084600F068FB003018BF28
:101D7000012008BD08B500F061FC08BD08B500F001
:101D8000A7FC08BD08B500F069FC08BD08B500F067
:101D900033FC08BD08B500F0B5FC08BD08B500F07F
:101DA0003BFC08BD08B5084600F074FB012008BDE7
:101DB00008B5084600F06EFB012008BD10B51446BA
:101DC0000846114600F0B6FB204610BD38B50D465A
:101DD000084603F04DF804462846214600F0AAFBC9
:101DE000204638BD704700BF044B00221A714FF4E3
:101DF0007A7199601A73024A1A6070474CF0FF1F9B
:101E00000886000008B503681B68C9B2984708BD7A
:101E100008B503681B68C9B2984708BD08B50368D0
:101E20001B68C9B2984708BD08B503681B68C9B2EA
:101E3000984708BD08B54B0803F1376000F5D83066
:101E4000B0FBF1F000F014FD08BD00BF10B5144662
:101E50004B0803F1376000F5D830B0FBF1F000F02B
:101E600007FD204600F068FD10BD00BF08B500F07A
:101E700093FD08BD08B5084600F0EEFD08BD00BFA3
:101E800008B5084600F042FE08BD00BF08B5084688
:101E9000114600F0FDFD08BD08B5084600F064FEDF
:101EA000003018BF012008BD08B5084600F07EFECE
:101EB000003018BF012008BD08B500F017FF08BDAD
:101EC00008B500F05DFF08BD08B500F01FFF08BDB4
:101ED00008B500F0E9FE08BD08B500F06BFF08BDCD
:101EE00008B500F0F1FE08BD08B5084600F080FE18
:101EF000012008BD08B5084600F07AFE012008BDA3
:101F000010B514460846114600F0C2FE204610BD2A
:101F100038B50D46084602F0ABFF04462846214678
:101F200000F0B6FE204638BD704700BF044B0022CB
:101F30001A714FF47A7199601A73024A1A607047E5
:101F40005CF0FF1F6886000008B503681B68C9B213
:101F5000984708BD08B503681B68C9B2984708BD13
:101F600008B503681B68C9B2984708BD08B503687F
:101F70001B68C9B2984708BD08B54B0803F1B760A4
:101F800000F55840B0FBF1F000F086FF08BD00BF3F
:101F900010B514464B0803F1B76000F55840B0FB8C
:101FA000F1F000F079FF204600F0B8FF10BD00BF4F
:101FB00008B500F0E3FF08BD08B5084601F018F8C1
:101FC00008BD00BF08B5084601F05AF808BD00BFBB
:101FD00008B50846114601F027F808BD08B50846BF
:101FE00001F050F8003018BF012008BD08B50846C0
:101FF00001F06AF8003018BF012008BD08B501F0F3
:1020000003F908BD08B501F049F908BD08B501F0AC
:102010000BF908BD08B501F0D5F808BD08B501F009
:1020200057F908BD08B501F0DDF808BD08B5084648
:1020300001F06CF8012008BD08B5084601F066F80B
:10204000012008BD10B514460846114601F0AEF84F
:10205000204610BD38B50D46084602F009FF04467B
:102060002846214601F0A2F8204638BD704700BF3F
:10207000044B00221A714FF47A7199601A73024A64
:102080001A6070476CF0FF1FC88600006022264B64
:102090001A70E12201331A70244B1B78082B09D1E6
:1020A000012203F1804303F56C331A6013220433D9
:1020B0001A6011E00A2B06D139221D4B1A60132237
:1020C00004331A6008E00C2B0CBF35223D22184B5C
:1020D0001A60122204331A60164B1B781BB10122BE
:1020E000154B1A6002E00022134B1A60134B1B7849
:1020F000012B03D88022124B1A6011E0042B03D865
:1021000084220F4B1A600BE0082B03D885220C4B5E
:102110001A6005E0102B94BF86228722084B1A60B4
:102120000122084B1A70704700400740C4E5FF1FAA
:1021300008B003407DF0FF1F20B00340C5E5FF1F3E
:1021400024B003407CF0FF1F254B1A6842F48062E4
:102150001A600023234A1370234A1370234A137012
:10216000234A1370234A1370234B1B7813B1152B8A
:1021700005D008E040F21332204B1A6003E040F231
:1021800013321F4B1A601F4B1B78012B02D0052BFB
:1021900005D008E04FF451721B4B1A6003E04FF476
:1021A00051721A4B1A60C0F34432194B1A70C0F3C3
:1021B00047125A7000F01F00987204229A70022190
:1021C000D9745A7588221A743C22DA704022114B55
:1021D0001A704FF48032A3F544731A60704700BF41
:1021E000348004400CF1FF1F85F0FF1F14F1FF1F26
:1021F0000DF1FF1F84F0FF1FC8F0FF1F40A0044037
:1022000018C00440C6E5FF1F44A004401CC00440A1
:1022100000A0064010E400E0164B9B7803F0EC03AE
:1022200000F00302134310F0040F18BF43F0100333
:10223000104A937000F00F03042B04D113469279D7
:1022400042F040029A710B4B5A7902F0EF0210F003
:10225000100F18BF42F01002064B5A719B7903F021
:10226000EF0310F0200F18BF43F01003014A9371E1
:10227000704700BF00A0064010B5144B1B6813F454
:10228000806F21D0124B1B7813F0FF0F06D0104C3B
:10229000FFF7F4FC237813F0FF0FF9D14FF48032ED
:1022A0000C4B1A6000230C4AD37040F203120B4906
:1022B0000A6004310A600A4A13700A4A13700A4B12
:1022C0001B680BB101221A7010BD00BF348004409E
:1022D00084F0FF1F80E100E000A0064040A0044021
:1022E0000CF1FF1F85F0FF1F80F0FF1F10B50446A3
:1022F000094A137813F0FF0FFBD120460121FEF7A6
:102300007DFD20460021FEF747FD044B53F83420A5
:10231000034B1A6010BD00BF84F0FF1FC48400008F
:1023200010F1FF1F10B40C4609B140F08000184BAB
:102330001B78984228D0174A126812F4806F21D077
:1023400003F07F03012B02D0052B04D006E000220E
:10235000114B1A6002E00022104B1A60002C0CBFD7
:102360004422602200F07F03012B02D0052B05D010
:1023700008E042F44072084B1A6003E042F44072F5
:10238000064B1A60024B18705DF8044B704700BF93
:10239000C6E5FF1F3480044044A004401CC0044034
:1023A000114B1B7898421ED0104A126812F4806FAD
:1023B00017D013B1152B04D006E000220C4B1A6085
:1023C00002E000220B4B1A6010B1152805D008E07E
:1023D00040F21332064B1A6003E040F21332054B11
:1023E0001A60014B18707047C8F0FF1F348004401A
:1023F00040A0044018C0044010B50D4B1B6813F4F6
:10240000806F12D021280CD80A4C0B4B53F8303077
:1024100023600121FEF7F2FC236800221A700120DC
:1024200010BD0020034B186010BD002010BD00BF80
:102430003480044080F0FF1FC4840000114B1B68EF
:1024400013F4806F1BD0122804D140F202320E4BDD
:102450001A600DE0142804D140F202320B4B1A60CE
:1024600006E00B4B5A7B02F0FE025A7300207047C5
:10247000074B5A7B42F001025A730120704700203B
:10248000704700BF348004400CA0044014C00440D6
:1024900000A006402DE9F04107461F4B1B6813F4CE
:1024A000806F37D01D4B1B680BB101221A701C4B7B
:1024B0001C780134402C28BF00241A4D1A4EDFF836
:1024C0006C8017E0FEF712FC40280FDC337913F024
:1024D000800F0FD02B780133402B28BF002318F832
:1024E0000320D2B2F271DBB22B7003E0FF2801DDD2
:1024F000FFF7C4FB2B78DBB29C42E3D0FFB20B4B5F
:102500001F5501220A4B1A70E4B2054B1C70BC2205
:10251000054BDA70BDE8F0813480044010F1FF1FF4
:1025200014F1FF1F0DF1FF1F00A0064088F0FF1FF0
:1025300084F0FF1F2DE9F84F0746284B1B6813F462
:10254000806F49D0264B1B680BB101221A7007EB34
:10255000010B5F453DD2DFF89890224EDFF88C806A
:10256000DFF890A099F800400134402C28BF0024E7
:102570003578EDB2A54220D1BC2388F80330FEF7B0
:10258000B5FB402811DC98F8043013F0800F10D010
:1025900033780133402B28BF00231AF80320D2B22E
:1025A00088F80720DBB2337003E0FF2801DDFFF776
:1025B00065FB3378DBB29D42E1D017F8013B0AF8A6
:1025C00004300122084B1A70E4B289F800405F45DC
:1025D000C8D1BC22054BDA70BDE8F88F34800440C6
:1025E00010F1FF1F0DF1FF1F84F0FF1F00A0064038
:1025F00014F1FF1F88F0FF1F10B5064B1B7813F076
:10260000FF0F06D0034CFFF739FB237813F0FF0FC1
:10261000F9D110BD84F0FF1F064B1B78DBB2064AD0
:102620001278D2B293422CBF3F3202F1FF32D01A5D
:10263000704700BF14F1FF1F0DF1FF1F054B187805
:10264000C0B2054B1B78DBB2984238BF4030C01A8D
:10265000704700BF0CF1FF1F85F0FF1F10B4184B2F
:102660001A78D2B2174B1B78DBB29A4218D00133DA
:102670003F2B18D81449C85CC0B2DCB211490C70A9
:1026800012490968C9B19A4203D300E00023D31A62
:1026900001E04032D31A1A2B0FDC00230B700CE040
:1026A0004FF0FF3009E0084B1878C0B20021054B0D
:1026B0001970064B19680029E8D15DF8044B704782
:1026C0000CF1FF1F85F0FF1FCCF0FF1F80F0FF1FF4
:1026D000094B1A78D2B2094B1B78DBB29A4207D069
:1026E0000133402B28BF0023054AD05CC0B270479D
:1026F0004FF0FF30704700BF0CF1FF1F85F0FF1F48
:10270000CCF0FF1F0D4B1B6813F4806F14D00C4BE3
:10271000DA7802F0CB02DA7040225A74DA7842F0AA
:102720003402DA70074B1A78D2B2074B1A70074B93
:102730001B680BB100221A70704700BF3480044040
:1027400000A0064085F0FF1F0CF1FF1F80F0FF1F67
:1027500070B43D4B1B7913F0300F33D072B63A4B47
:102760009B7D03F0FF022BB9374BDA7940225A7474
:1027700062B627E062B6354B1978C9B2344B1C7883
:10278000E4B2314D334EEB79D8B24B1C402B28BF0D
:102790000023A3421CBFF0541946531E13F0FF023E
:1027A000F1D1CAB2294B1A702B4B1B6853B1A1420D
:1027B0002EBFC4EB0101C4F1400409192729C4BF8D
:1027C00001221A70204BDA78D2B212F0800F27D093
:1027D0001B7913F0800F23D0204B1C78E4B2204BE0
:1027E0001B78DBB29C4210D017491E4D01E0A3427A
:1027F0000BD00133402B28BF00230879E85CC0B21E
:10280000C871087DC0B20728F1D9DBB214490B703A
:102810000D4B1B7913F0800F02D07C210A4BD9702D
:1028200012F0400F0ED0084B1B7913F0400F09D067
:1028300000220D4B1A700D4B1B6803B11A703C221D
:10284000014BDA7070BC704700A006400CF1FF1F0E
:1028500085F0FF1FCCF0FF1F80F0FF1F14F1FF1F5A
:102860000DF1FF1F88F0FF1F84F0FF1F10F1FF1F05
:10287000234B1A6842F400621A600023214A137045
:10288000214A1370214A1370214A1370214A137090
:10289000214B1B78092B02D01A2B05D008E040F2FF
:1028A00013321E4B1A6003E040F213321C4B1A60C5
:1028B0001C4B1B780A2B02D01F2B05D008E04FF4CD
:1028C0005172194B1A6003E04FF45172174B1A60A2
:1028D000C0F34432164B1A70C0F347125A7000F01E
:1028E0001F00987200229A701A742C22DA7040220B
:1028F000104B1A704FF48022A3F212331A60704703
:102900003480044088F1FF1F1DF1FF1F90F1FF1F6D
:1029100089F1FF1F1CF1FF1FC7E5FF1F0CB004402A
:1029200004D00440C8E5FF1F10B0044000D00440AC
:1029300000B0064012E400E0164B9B7803F0EC0375
:1029400000F00302134310F0040F18BF43F010030C
:10295000104A937000F00F03042B04D113469279B0
:1029600042F040029A710B4B5A7902F0EF0210F0DC
:10297000100F18BF42F01002064B5A719B7903F0FA
:10298000EF0310F0200F18BF43F01003014A9371BA
:10299000704700BF00B0064010B5224B1B6813F40F
:1029A000006F3ED0204B1B7813F0FF0F06D01E4C5B
:1029B000FFF764F9237813F0FF0FF9D14FF4802269
:1029C0001A4B1A6000221A4BDA701A4B1B78092B2B
:1029D00002D01A2B05D008E040F20312164B1A6001
:1029E00003E040F20312154B1A60154B1B7803F0FD
:1029F0007F030A2B02D01F2B05D008E040F2031200
:102A0000104B1A6003E040F203120F4B1A600023D0
:102A10000E4A13700E4A13700E4B1B680BB1012245
:102A20001A7010BD348004401CF1FF1F80E100E0EB
:102A300000B00640C7E5FF1F0CB0044004D00440BE
:102A4000C8E5FF1F10B0044000D0044088F1FF1F0C
:102A50001DF1FF1F18F1FF1F10B50446094A137836
:102A600013F0FF0FFBD120460121FEF7C7F92046E6
:102A70000021FEF791F9044B53F83420034B1A6000
:102A800010BD00BF1CF1FF1FC48400008CF1FF1FAC
:102A900010B40C4609B140F08000184B1B789842E6
:102AA00028D0174A126812F4006F21D003F07F0378
:102AB0000A2B02D01F2B04D006E00022114B1A6013
:102AC00002E00022104B1A60002C0CBF442260224E
:102AD00000F07F030A2B02D01F2B05D008E042F440
:102AE0004072084B1A6003E042F44072064B1A60D1
:102AF000024B18705DF8044B704700BFC8E5FF1F1C
:102B00003480044010B0044000D00440124B1B78C5
:102B1000984220D0114A126812F4006F19D0092B84
:102B200002D01A2B04D006E000220D4B1A6002E0FE
:102B300000220C4B1A60092802D01A2805D008E0A0
:102B400040F21332064B1A6003E040F21332054B99
:102B50001A60014B18707047C7E5FF1F34800440AE
:102B60000CB0044004D0044010B50D4B1B6813F4A6
:102B7000006F12D021280CD80A4C0B4B53F8303080
:102B800023600121FEF73AF9236800221A70012020
:102B900010BD0020034B186010BD002010BD00BF09
:102BA0003480044018F1FF1FC48400000D4B1B68E3
:102BB00013F4006F13D017280AD140F202320A4BE7
:102BC0001A600A4B5A7B42F001025A730120704787
:102BD000064B5A7B02F0FE025A7300207047002019
:102BE000704700BF3480044008B0044000B0064085
:102BF0002DE9F04107461F4B1B6813F4006F37D0D7
:102C00001D4B1B680BB101221A701C4B1C78013440
:102C1000282C28BF00241A4D1A4EDFF86C8017E0CC
:102C2000FEF764F840280FDC337913F0800F0FD0E3
:102C30002B780133282B28BF002318F80320D2B2A9
:102C4000F271DBB22B7003E0FF2801DDFFF716F80D
:102C50002B78DBB29C42E3D0FFB20B4B1F55012215
:102C60000A4B1A70E4B2054B1C70AC22054BDA70AB
:102C7000BDE8F081348004408CF1FF1F90F1FF1F0C
:102C800089F1FF1F00B0064020F1FF1F1CF1FF1F5C
:102C900038B505460C4629B115F8010BFFF7A8FF1A
:102CA000013CF9D138BD00BF10B5064B1B7813F0BD
:102CB000FF0F06D0034CFEF7E1FF237813F0FF0F60
:102CC000F9D110BD1CF1FF1F064B1B78DBB2064A81
:102CD0001278D2B293422CBF273202F1FF32D01ABF
:102CE000704700BF90F1FF1F89F1FF1F054B187857
:102CF000C0B2054B1B78DBB2984238BF4030C01AD7
:102D0000704700BF88F1FF1F1DF1FF1F10B4184B63
:102D10001A78D2B2174B1B78DBB29A4218D0013323
:102D20003F2B18D81449C85CC0B2DCB211490C70F2
:102D300012490968C9B19A4203D300E00023D31AAB
:102D400001E04032D31A1A2B0FDC00230B700CE089
:102D50004FF0FF3009E0084B1878C0B20021054B56
:102D60001970064B19680029E8D15DF8044B7047CB
:102D700088F1FF1F1DF1FF1F48F1FF1F18F1FF1F12
:102D8000094B1A78D2B2094B1B78DBB29A4207D0B2
:102D90000133402B28BF0023054AD05CC0B27047E6
:102DA0004FF0FF30704700BF88F1FF1F1DF1FF1F7C
:102DB00048F1FF1F054B1A78D2B2054B1A70054B2C
:102DC0001B680BB100221A70704700BF1DF1FF1F76
:102DD00088F1FF1F18F1FF1F264B1B7913F0200FFE
:102DE00012D0244BDB79D9B2234B1B780133402B13
:102DF00028BF0023214A1278D2B29A4204D0204A36
:102E0000D154DBB21C4A13701A4BDB78DBB213F0DF
:102E1000800F1CD0174A127912F0800F17D0194A70
:102E20001178C9B2184A1278D2B2914203D16C21FA
:102E3000104AD1700BE00132282A28BF0022134922
:102E4000885CC0B20B49C871D2B20F490A7013F046
:102E5000400F0ED0074B1B7913F0400F09D0002212
:102E60000B4B1A700B4B1B6803B11A702C22014BD1
:102E7000DA70704700B0064088F1FF1F1DF1FF1F98
:102E800048F1FF1F90F1FF1F89F1FF1F20F1FF1F85
:102E90001CF1FF1F8CF1FF1F174B1A6842F4805280
:102EA0001A600023154A1370154A1370154A1370DF
:102EB000154A1370154A137040F21331144A116009
:102EC0004FF4517104321160C0F34431114A117052
:102ED000C0F34711517000F01F009072937013748B
:102EE0002C23D37040220C4B1A704FF48012A3F5A0
:102EF00045731A60704700BF3480044004F2FF1F1E
:102F000099F1FF1F0CF2FF1F05F2FF1F98F1FF1F41
:102F100008C0044000C0064014E400E0164B9B7853
:102F200003F0EC0300F00302134310F0040F18BF8A
:102F300043F01003104A937000F00F03042B04D1E8
:102F40001346927942F040029A710B4B5A7902F083
:102F5000EF0210F0100F18BF42F01002064B5A712A
:102F60009B7903F0EF0310F0200F18BF43F010031C
:102F7000014A9371704700BF00C0064010B5144B62
:102F80001B6813F4805F21D0124B1B7813F0FF0FE6
:102F900006D0104CFEF772FE237813F0FF0FF9D124
:102FA0004FF480120C4B1A6000230C4AD37040F28D
:102FB00003120B490A6004310A600A4A13700A4A74
:102FC00013700A4B1B680BB101221A7010BD00BFB1
:102FD0003480044098F1FF1F80E100E000C006400B
:102FE00008C0044004F2FF1F99F1FF1F94F1FF1F76
:102FF00010B50446094A137813F0FF0FFBD12046A1
:103000000121FDF7FBFE20460021FDF7C5FE044B24
:1030100053F83420034B1A6010BD00BF98F1FF1F16
:10302000C484000008F2FF1F10B40C4609B140F040
:103030008000104B1B78984219D00F4A126812F486
:10304000805F12D003F07F03082B02D100220B4BCC
:103050001A60002C0CBF4422602200F07F03082B72
:1030600003D142F44072054B1A60024B18705DF8B0
:10307000044B7047C9E5FF1F348004400CC0044076
:10308000704700BF10B50D4B1B6813F4805F12D062
:1030900021280CD80A4C0B4B53F830302360012107
:1030A000FDF7ACFE236800221A70012010BD00203D
:1030B000034B186010BD002010BD00BF34800440D9
:1030C00094F1FF1FC48400000D4B1B6813F4805F54
:1030D00013D00E280AD140F202320A4B1A600A4B72
:1030E0005A7B42F001025A7301207047064B5A7B0B
:1030F00002F0FE025A73002070470020704700BFA4
:103100003480044004C0044000C006402DE9F04172
:1031100007461F4B1B6813F4805F37D01D4B1B689D
:103120000BB101221A701C4B1C780134282C28BFCB
:1031300000241A4D1A4EDFF86C8017E0FDF7D6FD1B
:1031400040280FDC337913F0800F0FD02B78013338
:10315000282B28BF002318F80320D2B2F271DBB26B
:103160002B7003E0FF2801DDFEF788FD2B78DBB232
:103170009C42E3D0FFB20B4B1F5501220A4B1A7041
:10318000E4B2054B1C70AC22054BDA70BDE8F0814F
:103190003480044008F2FF1F0CF2FF1F05F2FF1FEE
:1031A00000C006409CF1FF1F98F1FF1F38B505468F
:1031B0000C4629B115F8010BFFF7A8FF013CF9D126
:1031C00038BD00BF10B5064B1B7813F0FF0F06D0BB
:1031D000034CFEF753FD237813F0FF0FF9D110BD18
:1031E00098F1FF1F064B1B78DBB2064A1278D2B269
:1031F00093422CBF273202F1FF32D01A704700BF32
:103200000CF2FF1F05F2FF1F054B1878C0B2054BEB
:103210001B78DBB2984238BF4030C01A704700BFFD
:1032200004F2FF1F99F1FF1F10B4184B1A78D2B2A5
:10323000174B1B78DBB29A4218D001333F2B18D8BA
:103240001449C85CC0B2DCB211490C70124909685B
:10325000C9B19A4203D300E00023D31A01E04032FF
:10326000D31A1A2B0FDC00230B700CE04FF0FF3049
:1032700009E0084B1878C0B20021054B1970064BC5
:1032800019680029E8D15DF8044B704704F2FF1F6C
:1032900099F1FF1FC4F1FF1F94F1FF1F094B1A782A
:1032A000D2B2094B1B78DBB29A4207D00133402BD4
:1032B00028BF0023054AD05CC0B270474FF0FF30F2
:1032C000704700BF04F2FF1F99F1FF1FC4F1FF1FF9
:1032D000054B1A78D2B2054B1A70054B1B680BB11F
:1032E00000221A70704700BF99F1FF1F04F2FF1F00
:1032F00094F1FF1F2F4B1B7913F0200F23D02D4B80
:10330000DB79D9B22C4B1B780133402B28BF00232B
:103310002A4A1278D2B29A4204D0294AD154D9B258
:10332000254A1170274A116869B1274A1278D2B22A
:1033300093422EBFC2EB0303C2F140029B18272B1E
:10334000C4BF01230B701B4BDB78DBB213F0800F83
:103350001CD0184A127912F0800F17D01B4A11782E
:10336000C9B2194A1278D2B2914203D16C21114AE2
:10337000D1700BE00132282A28BF00221449885C52
:10338000C0B20C49C871D2B20F490A7013F0400F95
:103390000ED0084B1B7913F0400F09D000220D4BC3
:1033A0001A700D4B1B6803B11A702C22014BDA7096
:1033B000704700BF00C0064004F2FF1F99F1FF1FD5
:1033C000C4F1FF1F94F1FF1F05F2FF1F0CF2FF1F56
:1033D0009CF1FF1F98F1FF1F08F2FF1F00B585B099
:1033E00072B61B4B70221A7041211A4A11700F21BC
:1033F000013A117080221A701A46137813F0800F68
:10340000FBD0154B186862B6144B98429CBF00EB7A
:103410008000400001A90A22FDF78CFC9DF80430D1
:103420007BB908E001A9595C31B1918002320133C6
:103430000A2BF7D100E0002301335B00084A137028
:1034400003E0074A53800123ECE705B05DF804FB75
:103450000000024007000240080002407F969800EA
:1034600058E6FF1F31F0004310B408D00F4AA3F50F
:10347000801494420AD804205DF8044B7047002859
:103480000CBF022003205DF8044B7047B3F5801F8A
:1034900001D20320F7E7064A934201D00020F2E769
:1034A000D0F1010038BF0020EDE700BFFFFFDF7F54
:1034B0000000F07F81F0004102E000BF83F0004394
:1034C00030B54FEA41044FEA430594EA050F08BFBF
:1034D00090EA020F1FBF54EA000C55EA020C7FEA83
:1034E000645C7FEA655C00F0E2804FEA5454D4EB00
:1034F0005555B8BF6D420CDD2C4480EA020281EACA
:10350000030382EA000083EA010180EA020281EA01
:103510000303362D88BF30BD11F0004F4FEA013153
:103520004FF4801C4CEA113102D0404261EB410162
:1035300013F0004F4FEA03334CEA133302D05242E8
:1035400063EB430394EA050F00F0A780A4F10104A4
:10355000D5F1200E0DDB02FA0EFC22FA05F28018DE
:1035600041F1000103FA0EF2801843FA05F35941C4
:103570000EE0A5F120050EF1200E012A03FA0EFC43
:1035800028BF4CF0020C43FA05F3C01851EBE3716D
:1035900001F0004507D54FF0000EDCF1000C7EEB8A
:1035A00000006EEB0101B1F5801F1BD3B1F5001FC8
:1035B0000CD349085FEA30004FEA3C0C04F10104E7
:1035C0004FEA445212F5800F80F09A80BCF1004F10
:1035D00008BF5FEA500C50F1000041EB045141EA92
:1035E000050130BD5FEA4C0C404141EB010111F493
:1035F000801FA4F10104E9D191F0000F04BF01463E
:103600000020B1FA81F308BF2033A3F10B03B3F11B
:1036100020020CDA0C3208DD02F1140CC2F10C02AB
:1036200001FA0CF021FA02F10CE002F11402D8BF09
:10363000C2F1200C01FA02F120FA0CFCDCBF41EAD5
:103640000C019040E41AA2BF01EB0451294330BDA4
:103650006FEA04041F3C1CDA0C340EDC04F1140481
:10366000C4F1200220FA04F001FA02F340EA030058
:1036700021FA04F345EA030130BDC4F10C04C4F19E
:10368000200220FA02F001FA04F340EA030029467E
:1036900030BD21FA04F0294630BD94F0000F83F4C8
:1036A000801306BF81F480110134013D4EE77FEAAB
:1036B000645C18BF7FEA655C29D094EA050F08BFF7
:1036C00090EA020F05D054EA000C04BF19461046D8
:1036D00030BD91EA030F1EBF0021002030BD5FEA1C
:1036E000545C05D14000494128BF41F0004130BD44
:1036F00014F580043CBF01F5801130BD01F0004598
:1037000045F0FE4141F470014FF0000030BD7FEA0A
:10371000645C1ABF194610467FEA655C1CBF0B4605
:10372000024650EA013406BF52EA033591EA030F1C
:1037300041F4002130BD00BF90F0000F04BF002114
:10374000704730B54FF4806404F132044FF0000547
:103750004FF0000150E700BF90F0000F04BF0021C0
:10376000704730B54FF4806404F1320410F0004526
:1037700048BF40424FF000013EE700BF42004FEA21
:10378000E2014FEA31014FEA02701FBF12F07F439E
:1037900093F07F4F81F06051704792F0000F14BF9B
:1037A00093F07F4F704730B54FF4607401F00045DF
:1037B00021F0004120E700BF50EA010208BF704736
:1037C00030B54FF000050AE050EA010208BF70472B
:1037D00030B511F0004502D5404261EB41014FF494
:1037E000806404F132045FEA915C3FF4DCAE4FF098
:1037F00003025FEADC0C18BF03325FEADC0C18BF7F
:10380000033202EBDC02C2F1200300FA03FC20FACF
:1038100002F001FA03FE40EA0E0021FA02F114441C
:10382000C1E600BF70B54FF0FF0C4CF4E06C1CEA31
:1038300011541DBF1CEA135594EA0C0F95EA0C0FA6
:1038400000F0DEF82C4481EA030621EA4C5123EA19
:103850004C5350EA013518BF52EA033541F4801148
:1038600043F4801338D0A0FB02CE4FF00005E1FBFB
:1038700002E506F00042E0FB03E54FF00006E1FB45
:1038800003569CF0000F18BF4EF0010EA4F1FF0488
:10389000B6F5007F64F5407404D25FEA4E0E6D41C8
:1038A00046EB060642EAC62141EA55514FEAC520D9
:1038B00040EA5E504FEACE2EB4F1FD0C88BFBCF555
:1038C000E06F1ED8BEF1004F08BF5FEA500E50F106
:1038D000000041EB045170BD06F0004646EA0101CC
:1038E00040EA020081EA0301B4EB5C04C2BFD4EBFE
:1038F0000C0541EA045170BD41F480114FF0000EF7
:10390000013C00F3AB8014F1360FDEBF002001F064
:10391000004170BDC4F10004203C35DA0C341BDCDE
:1039200004F11404C4F1200500FA05F320FA04F0B0
:1039300001FA05F240EA020001F0004221F00041E4
:1039400010EBD37021FA04F642EB06015EEA430E57
:1039500008BF20EAD37070BDC4F10C04C4F1200587
:1039600000FA04F320FA05F001FA04F240EA02003A
:1039700001F0004110EBD37041F100015EEA430E0B
:1039800008BF20EAD37070BDC4F1200500FA05F22B
:103990004EEA020E20FA04F301FA05F243EA0203AA
:1039A00021FA04F001F0004121FA04F220EA0200B9
:1039B00000EBD3705EEA430E08BF20EAD37070BDFF
:1039C00094F0000F0FD101F00046400041EB0101DF
:1039D00011F4801F08BF013CF7D041EA060195F0C1
:1039E000000F18BF704703F00046520043EB03037B
:1039F00013F4801F08BF013DF7D043EA0603704768
:103A000094EA0C0F0CEA135518BF95EA0C0F0CD072
:103A100050EA410618BF52EA4306D1D181EA0301B8
:103A200001F000414FF0000070BD50EA410606BFB2
:103A30001046194652EA430619D094EA0C0F02D1F7
:103A400050EA013613D195EA0C0F05D152EA03363C
:103A50001CBF104619460AD181EA030101F000415A
:103A600041F0FE4141F470014FF0000070BD41F0A3
:103A7000FE4141F4780170BD70B54FF0FF0C4CF47D
:103A8000E06C1CEA11541DBF1CEA135594EA0C0F9C
:103A900095EA0C0F00F0A7F8A4EB050481EA030EE9
:103AA00052EA03354FEA013100F088804FEA0333D0
:103AB0004FF0805545EA131343EA12634FEA02229E
:103AC00045EA111545EA10654FEA00260EF000415F
:103AD0009D4208BF964244F1FD0404F5407402D2B1
:103AE0005B084FEA3202B61A65EB03055B084FEA42
:103AF00032024FF480104FF4002CB6EB020E75EB3F
:103B0000030E22BFB61A754640EA0C005B084FEA66
:103B10003202B6EB020E75EB030E22BFB61A7546E3
:103B200040EA5C005B084FEA3202B6EB020E75EB2E
:103B3000030E22BFB61A754640EA9C005B084FEAA6
:103B40003202B6EB020E75EB030E22BFB61A7546B3
:103B500040EADC0055EA060E18D04FEA051545EAA2
:103B600016754FEA06164FEAC30343EA52734FEA4B
:103B7000C2025FEA1C1CC0D111F4801F0BD141EAC4
:103B800000014FF000004FF0004CB6E711F4801F29
:103B900004BF01430020B4F1FD0C88BFBCF5E06F09
:103BA0003FF6AFAEB5EB030C04BFB6EB020C5FEA19
:103BB000500C50F1000041EB045170BD0EF0004E6E
:103BC0004EEA113114EB5C04C2BFD4EB0C0541EAA0
:103BD000045170BD41F480114FF0000E013C90E69D
:103BE00045EA060E8DE60CEA135594EA0C0F08BF61
:103BF00095EA0C0F3FF43BAF94EA0C0F0AD150EA60
:103C000001347FF434AF95EA0C0F7FF425AF1046F2
:103C100019462CE795EA0C0F06D152EA03353FF41A
:103C2000FDAE1046194622E750EA410618BF52EA97
:103C300043067FF4C5AE50EA41047FF40DAF52EA6B
:103C400043057FF4EBAE12E74FF0FF3C06E000BF08
:103C50004FF0010C02E000BF4FF0010C4DF804CD15
:103C60004FEA410C7FEA6C5C4FEA430C18BF7FEAD5
:103C70006C5C1BD001B050EA410C0CBF52EA430C03
:103C800091EA030F02BF90EA020F0020704710F183
:103C9000000F91EA030F58BF994208BF90422CBF12
:103CA000D8176FEAE37040F0010070474FEA410C0B
:103CB0007FEA6C5C02D150EA013C07D14FEA430C29
:103CC0007FEA6C5CD6D152EA033CD3D05DF8040B9A
:103CD000704700BF8446104662468C4619466346CC
:103CE00000E000BF01B5FFF7B7FF002848BF10F1A3
:103CF000000F01BD4DF808EDFFF7F4FF0CBF0120E8
:103D000000205DF808FB00BF4DF808EDFFF7EAFF63
:103D100034BF012000205DF808FB00BF4DF808ED1E
:103D2000FFF7E0FF94BF012000205DF808FB00BF13
:103D30004DF808EDFFF7CEFF94BF012000205DF89D
:103D400008FB00BF4DF808EDFFF7C4FF34BF0120AA
:103D500000205DF808FB00BF80F0004002E000BFDB
:103D600081F0004142001FBF5FEA410392EA030F66
:103D70007FEA226C7FEA236C6AD04FEA1262D2EBB0
:103D80001363C1BFD218414048404140B8BF5B42B5
:103D9000192B88BF704710F0004F40F4000020F04E
:103DA0007F4018BF404211F0004F41F4000121F064
:103DB0007F4118BF494292EA030F3FD0A2F10102AE
:103DC00041FA03FC10EB0C00C3F1200301FA03F1EC
:103DD00000F0004302D5494260EB4000B0F5000F0F
:103DE00013D3B0F1807F06D340084FEA310102F1CE
:103DF0000102FE2A51D2B1F1004F40EBC25008BF80
:103E000020F0010040EA03007047490040EB000049
:103E100010F4000FA2F10102EDD1B0FA80FCACF178
:103E2000080CB2EB0C0200FA0CF0AABF00EBC25077
:103E300052421843BCBFD0401843704792F0000F65
:103E400081F4000106BF80F400000132013BB5E7B8
:103E50004FEA41037FEA226C18BF7FEA236C21D02E
:103E600092EA030F04D092F0000F08BF0846704793
:103E700090EA010F1CBF0020704712F07F4F04D161
:103E8000400028BF40F00040704712F100723CBF74
:103E900000F50000704700F0004343F0FE4040F49E
:103EA000000070477FEA226216BF08467FEA23635C
:103EB0000146420206BF5FEA412390EA010F40F447
:103EC000800070474FF0000304E000BF10F0004393
:103ED00048BF40425FEA000C08BF704743F096437A
:103EE00001464FF000001CE050EA010208BF704795
:103EF0004FF000030AE000BF50EA010208BF70471C
:103F000011F0004302D5404261EB41015FEA010C30
:103F100002BF84460146002043F0B64308BFA3F128
:103F20008053A3F50003BCFA8CF2083AA3EBC2530A
:103F300010DB01FA02FC634400FA02FCC2F1200229
:103F4000BCF1004F20FA02F243EB020008BF20F060
:103F50000100704702F1200201FA02FCC2F12002C6
:103F600050EA4C0021FA02F243EB020008BF20EABB
:103F7000DC7070474FF0FF0C1CEAD0521EBF1CEAE9
:103F8000D15392EA0C0F93EA0C0F6FD01A4480EAD7
:103F9000010C400218BF5FEA41211ED04FF00063C0
:103FA00043EA501043EA5111A0FB01310CF00040EC
:103FB000B1F5000F3EBF490041EAD3715B0040EA12
:103FC000010062F17F02FD2A1DD8B3F1004F40EBE2
:103FD000C25008BF20F00100704790F0000F0CF0B5
:103FE000004C08BF49024CEA502040EA51207F3A79
:103FF000C2BFD2F1FF0340EAC250704740F4000054
:104000004FF00003013A5DDC12F1190FDCBF00F044
:1040100000407047C2F10002410021FA02F1C2F1F2
:10402000200200FA02FC5FEA310040F1000053EA8E
:104030004C0308BF20EADC70704792F0000F00F0DC
:10404000004C02BF400010F4000F013AF9D040EAE2
:104050000C0093F0000F01F0004C02BF490011F476
:10406000000F013BF9D041EA0C018FE70CEAD15374
:1040700092EA0C0F18BF93EA0C0F0AD030F0004CF4
:1040800018BF31F0004CD8D180EA010000F00040A8
:10409000704790F0000F17BF90F0004F084691F066
:1040A000000F91F0004F14D092EA0C0F01D14202A0
:1040B0000FD193EA0C0F03D14B0218BF084608D169
:1040C00080EA010000F0004040F0FE4040F40000B3
:1040D000704740F0FE4040F4400070474FF0FF0C46
:1040E0001CEAD0521EBF1CEAD15392EA0C0F93EA8D
:1040F0000C0F69D0A2EB030280EA010C49024FEADF
:10410000402037D04FF0805343EA111143EA101397
:104110000CF000408B4238BF5B0042F17D024FF44F
:10412000000C8B4224BF5B1A40EA0C00B3EB510F2A
:1041300024BFA3EB510340EA5C00B3EB910F24BF13
:10414000A3EB910340EA9C00B3EBD10F24BFA3EB98
:10415000D10340EADC001B0118BF5FEA1C1CE0D160
:10416000FD2A3FF650AF8B4240EBC25008BF20F013
:10417000010070470CF0004C4CEA50207F32C2BF67
:10418000D2F1FF0340EAC250704740F400004FF004
:104190000003013A37E792F0000F00F0004C02BF35
:1041A000400010F4000F013AF9D040EA0C0093F0FF
:1041B000000F01F0004C02BF490011F4000F013B59
:1041C000F9D041EA0C0195E70CEAD15392EA0C0FC1
:1041D00008D142027FF47DAF93EA0C0F7FF470AFF9
:1041E000084676E793EA0C0F04D14B023FF44CAF3C
:1041F00008466EE730F0004C18BF31F0004CCAD1D1
:1042000030F000427FF45CAF31F000437FF43CAF0C
:104210005FE700BF4FF0FF3C06E000BF4FF0010C2E
:1042200002E000BF4FF0010C4DF804CD4FEA400210
:104230004FEA41037FEA226C18BF7FEA236C11D05A
:1042400001B052EA530C18BF90EA010F58BFB2EB0D
:10425000030088BFC81738BF6FEAE17018BF40F08D
:10426000010070477FEA226C02D15FEA402C05D141
:104270007FEA236CE4D15FEA412CE1D05DF8040BC6
:10428000704700BF844608466146FFE70FB5FFF759
:10429000C9FF002848BF10F1000F0FBD4DF808ED11
:1042A000FFF7F4FF0CBF012000205DF808FB00BF02
:1042B0004DF808EDFFF7EAFF34BF012000205DF85C
:1042C00008FB00BF4DF808EDFFF7E0FF94BF0120A9
:1042D00000205DF808FB00BF4DF808EDFFF7D2FFA6
:1042E00094BF012000205DF808FB00BF4DF808EDE9
:1042F000FFF7C8FF34BF012000205DF808FB00BFB6
:1043000042000ED2B2F1FE4F0BD34FF09E03B3EB3F
:10431000126209D44FEA002343F0004323FA02F06B
:1043200070474FF00000704712F1610F01D1420257
:1043300002D14FF0FF3070474FF00000704700BFD0
:1043400070B50F4E0F4D761BB61007D0043D0024FC
:10435000013455F8043F9847A642F9D10A4E0B4D57
:10436000761B04F0CBFAB61008D0043D00240134CB
:1043700055F8043F9847A642F9D170BD70BD00BF03
:1043800008890000088900002089000008890000D1
:10439000024B0146186800F003B800BF98EAFF1FFF
:1043A0002DE9F04F01F10B05162D83B0064627D9F4
:1043B00035F0070527D4A94225D8304600F036FB52
:1043C000B5F5FC7F26D2C14F4FEAD50C07EBCC03E5
:1043D000DC689C4200F0D2816368E268A16823F047
:1043E0000303234430465D68CA6045F001059160CF
:1043F0005D6000F01DFB0834204603B0BDE8F08F7F
:104400001025A942D9D900240C232046336003B0DB
:10441000BDE8F08F5FEA552C00F08A80BCF1040FF4
:1044200000F260814FEA951C0CF1380C4FEA4C0108
:10443000A64F07EB8101CC68A14205D10CE0002B0F
:104440007ADAE468A14207D0626822F00302531BC3
:104450000F2BF4DD0CF1FF3C0CF1010C9B4B3C6984
:1044600003F1080E744500F07E81616821F00301BC
:104470004A1B0F2A00F36481002AC3F814E0C3F832
:1044800010E06ADAB1F5007F80F03A81C90803EBE9
:10449000C1004FEAA1085A688168A1604FF0010984
:1044A00009FA08F848EA0202E0605A608460CC60C9
:1044B0004FEAAC030120984090425BD8024206D1FB
:1044C0002CF0030C400002420CF1040CFAD007EB74
:1044D000CC084446E146E3689C4207D145E1002A06
:1044E00080F25681DB689C4200F03F81596821F0E0
:1044F00003014A1B0F2AF2DD1C46D3F80CC054F806
:10450000088F591945F0010942F00105C3F80490DC
:104510003046C8F80CC0CCF8088079613961C1F820
:104520000CE0C1F808E04D608A5000F081FA63E7C2
:104530007E214FF03F0C7BE72244E3685068A1687E
:1045400040F00105CB6030469960556000F070FA8C
:104550000834204603B0BDE8F08F214430464B6854
:1045600043F001034B6000F063FA0834204603B0C7
:10457000BDE8F08FBC68636823F00309A94504D344
:10458000C5EB09030F2B00F39180514B514A196879
:104590001368013305EB010A04EB090B00F061819C
:1045A0000AF5805A0AF10F0A2AF47F6A2AF00F0AE4
:1045B00030465146019200F023FCB0F1FF3F8046A7
:1045C000019A00F00081834500F2FA80DFF810C103
:1045D000DCF80030C3455344CCF8003000F04A8189
:1045E00012683C4901321BBFCBEB080B5B44C1F89E
:1045F0000080CCF8003018F0070300F01381C3F1FD
:104600000802C3F5805390440833C244CAF30B0A2E
:10461000CAEB030A51463046CDF804C000F0F0FB67
:10462000431CDDF804C000F03581C8EB00025244A1
:1046300042F00102DCF80030C7F808805344BC4265
:10464000C8F80420CCF80030DFF894A015D0B9F1F8
:104650000F0F40F2EA806168A9F10C0222F0070214
:1046600001F0010EA118052042EA0E0E0F2AC4F82F
:1046700004E04860886000F21181174ABC68116844
:104680008B4288BF1360154A11688B4288BF136044
:10469000626822F003029542C5EB020301D80F2B9A
:1046A00004DC304600F0C4F90024A5E6621943F0AA
:1046B000010345F0010565603046BA60536000F0C3
:1046C000B7F90834204603B0BDE8F08F9CEAFF1F1D
:1046D00018F2FF1FA8EEFF1F14F2FF1F10F2FF1FBA
:1046E0001CF2FF1FBCF1140F61D9BCF1540F00F292
:1046F0008F804FEA153C0CF16E0C4FEA4C0197E6A7
:104700004B0A042B58D9142B00F2AE8003F15B0244
:10471000500007EB8000DFF8BC818368834200F023
:104720008A805A6822F00302914202D29B68984222
:10473000F7D1D9687A68E160A3608C60DC60B7E685
:10474000611942F0010745F0010565603046596185
:104750001961C1F80CE0C1F808E04F608A500834D4
:1047600000F066F948E65A68A2E609F1010919F075
:10477000030F04F108047FF4AEAE2DE004F108034A
:104780006469A34208BF0CF1020C3FF467AE23E654
:1047900019441C464868DB6854F8082F40F00105AE
:1047A0004D603046D3609A6000F042F924E60CF187
:1047B0005B0C4FEA4C013BE68A0938325000A8E70F
:1047C000BC423FF403AFBC68626822F0030262E7B8
:1047D000D8F8008098457BD11CF0030FA8F108039E
:1047E0000CF1FF3CF4D17B6823EA00037B604000BE
:1047F00098423FF6BFAE00283FF4BCAE0342CC4621
:104800007FF465AE400003420CF1040CFAD05EE682
:10481000BCF5AA7F1AD84FEAD53C0CF1770C4FEAC9
:104820004C0105E64FF48053EFE60123C8F804304D
:10483000444600222FE791100120D8F8042000FA06
:1048400001F10A43C8F80420194674E740F25453B2
:104850009C451BD84FEA954C0CF17C0C4FEA4C015F
:10486000E6E50AF1100AA3E6542B1FD80A0B6E32B4
:1048700050004EE7CBF30B0100297FF4B1AE0AEBF9
:104880000901BA6841F001015160F6E6FC214FF0E0
:104890007E0CCDE501224FF0000ACBE604F10801C1
:1048A000304602F0BBFDDAF80030E6E6B3F5AA7F49
:1048B00003D8CA0B773250002BE740F25452934290
:1048C00003D88A0C7C32500023E7FC207E2220E7AC
:1048D0007B688CE79CEAFF1F8842F0B410D98C18E3
:1048E000A0420DD28518531E42B121462A4611F826
:1048F000014D02F8014D013B5C1CF8D1F0BC704742
:104900000F2A3FD940EA01039B073FD1A2F11007CC
:104910003F0900EB071610360C46034625681D605C
:1049200065685D60A5689D60E568DD601033B34231
:1049300004F11004F2D17B1C02F00F0C1B01BCF13E
:10494000030F1944034423D90E461D466446043C14
:1049500056F8047B45F8047B032CF8D8ACF104042A
:1049600024F00304043402F0030223442144002A07
:10497000C4D01A4411F8014B03F8014B9342F9D10A
:10498000F0BC70470346002AF3D1B7E70346F0E7CF
:104990006246002AEDD1B1E7F0B4840743D0541E3B
:1049A000002A3ED0CDB2034603E0621E002C38D070
:1049B000144603F8015B9A07F7D1032C2AD9CDB22C
:1049C00045EA05250F2C45EA054515D9A4F1100740
:1049D0003F0903F1100606EB07161A4615605560ED
:1049E0009560D5601032B242F8D104F00F0401375F
:1049F000032C03EB07130DD91E462246043A032A63
:104A000046F8045BFAD8221F22F003020432134452
:104A100004F003042CB1C9B21C4403F8011BA342E7
:104A2000FBD1F0BC704714460346C6E7704700BF91
:104A3000704700BF2DE9F04F0C4683B09046814689
:104A4000002900F0E280FFF7F1FF08F10B0654F8AF
:104A5000043C162E23F00305A4F108074BD81021BF
:104A60000E46B0454CD88D4278DADFF890B3DBF8CB
:104A700008E07819864500F0CE80426822F0010CEB
:104A80008444DCF804C01CF0010F7AD000221046E8
:104A9000DB0700F1928054F8083CC3EB070ADAF810
:104AA000043023F003032B4488B3704500F0ED80FD
:104AB00002EB030E8E452ADBC36882685746D3603B
:104AC0009A6057F8081FDAF80C30CB602A1F242AA6
:104AD000996000F22681132A40F2B3802368CAF855
:104AE00008306368CAF80C301B2A00F230810834A1
:104AF0000AF11003A6E026F00706002E3146B0DAD0
:104B00000C230020C9F8003003B0BDE8F08F8B42C1
:104B100053DB5746DAF80C1057F8080F2A1F242ADF
:104B2000C160886000F20981132A40F20481216883
:104B3000CAF808106168CAF80C101B2A00F21C8120
:104B400008340AF110022168116061685160A1689F
:104B500091601D46DAF804303C465746AA1B0F2ADE
:104B600003F0010319D82B433D447B606B6843F08D
:104B700001036B604846FFF75BFF204603B0BDE8CA
:104B8000F08F22F0030202EB050C8C4580DBC2683B
:104B900081686546CA609160E0E7B91942F001009A
:104BA0001E430A447E604860536843F001030831A5
:104BB0005360484602F032FCDCE741464846FFF7C6
:104BC000EFFB8046D0B154F8043C23F001023A4494
:104BD000A0F10801914200F09E802A1F242A50D89B
:104BE000132A23D803462246116819605168596078
:104BF00092689A602146484602F010FC4846FFF74A
:104C000017FF404603B0BDE8F08F114603B0BDE882
:104C1000F04FFFF7C5BBDEF8042022F00302501965
:104C200006F1100C604519DA704631E7236803601D
:104C3000636843601B2A63D800F1080304F108028B
:104C4000D2E73B4622681A6062685A60A2689A609E
:104C50003C467546DAF8043057467FE73744831BF5
:104C600043F00103CBF808707B6054F8043C03F078
:104C700001031E43484644F8046CFFF7D9FE204662
:104C80007CE72146FFF728FEB4E702EB030C06F1B0
:104C900010029445FFF63BAF5746DAF80C3057F850
:104CA000081F2A1F242ACB60996000F28780132AEC
:104CB00078D92368CAF808306368CAF80C301B2A10
:104CC00000F2858008340AF1100322681A606268D5
:104CD0005A60A2689A600AEB0603C6EB0C0242F027
:104CE0000102CBF808305A60DAF8043003F001030F
:104CF0001E434846CAF80460FFF79AFE38463DE76F
:104D0000A3688360E368C360242A2CD000F11003F9
:104D100004F1100268E750F8042C22F00302154455
:104D20001CE72146384675463C46FFF7D5FD5746F9
:104D3000DAF8043012E73A4605E7214638461D46C0
:104D40003C46FFF7C9FD5746DAF8043006E7A3688A
:104D5000CAF81030E368CAF81430242A18D0103486
:104D60000AF118036EE7236903616369436104F183
:104D7000180200F1180337E7A168CAF81010E168BB
:104D8000CAF81410242A0FD010340AF11802DAE6F7
:104D90002369CAF818306369CAF81C3018340AF15C
:104DA00020034FE73B4690E72269CAF81820626962
:104DB000CAF81C2018340AF12002C4E621463846FD
:104DC000CDF804C0FFF788FDDDF804C083E7A368D1
:104DD000CAF81030E368CAF81430242A03D010341B
:104DE0000AF1180371E72369CAF818306369CAF831
:104DF0001C3018340AF1200367E700BF9CEAFF1F4C
:104E000038B5074C0023054608462360FBF766FFCC
:104E1000431C00D038BD2368002BFBD02B6038BD6D
:104E200058F2FF1F0EB4F0B59CB021AB0F4953F8F8
:104E3000042B019305466FF00044086802954FF477
:104E400002774FF6FF7602A90695ADF81470049428
:104E50000794ADF8166000F03BF8029B00221A7030
:104E60001CB0BDE8F04003B0704700BF98EAFF1FD8
:104E700020F0030110F00300C0F1000051F8043BE2
:104E800000F1040C4FEACC0C6FF000021CBF22FAB8
:104E90000CF213434FF0010C4CEA0C2C4CEA0C4C76
:104EA000A3EB0C0222EA030212EACC1204BF51F86F
:104EB000043B0430F4D013F0FF0F1FBF013013F494
:104EC0007F4F013013F47F0F18BF0130704700BFD0
:104ED0002DE9F04FC9B0914610930C910D9002F05E
:104EE0006BFB00681590FFF7C3FF0C9C1890A3891B
:104EF0001A0603D52369002B01F08D8038ACA44637
:104F000008942B9400250024CDE916450023119325
:104F10002D932C931A9319930E93664699F80030AB
:104F2000002B00F0F880252B00F0F58009F101023C
:104F300001E0252B04D0144601322378002BF8D150
:104F4000C9EB04057DB12C9B2D9AC6F80090013366
:104F50002A44072B75602D922C9300F3C2800836EB
:104F60000E9828440E902378002B00F0C280002376
:104F700094F801808DF88F301A460F93099304F14D
:104F800001094FF0FF340A9409F10109A8F1200347
:104F9000582B00F2C783DFE813F06A02C503C5038C
:104FA0007102C503C503C503C503C503C5031403C7
:104FB0006403C5039D00C000C50378027F027F0221
:104FC0007F027F027F027F027F027F027F02C50392
:104FD000C503C503C503C503C503C503C503C50391
:104FE000C50390026F03C5036F03C503C503C50363
:104FF000C5036803C503C5037800C503C503C5031E
:10500000C503C5035900C503C503AF02C503C503E6
:10501000C503C503C503C503C503C503C503C50350
:10502000370348036F036F036F03FF024803C50391
:10503000C5030803C503C5027C002103A503C503FE
:10504000D902C5035F00C503C503DE00DDF824C037
:105050004CF0100CCDF824C0099CA20600F1568338
:10506000099CE30600F1E085DDF824C01CF0400F48
:1050700000F0DA85DDF840C0BCF800400CF1040C0B
:1050800000250123CDF840C08CE0099D45F01005B6
:105090000995DDF824C01CF0200340F02C83DDF8D6
:1050A00024C01CF0100240F0B885DDF824C01CF0CC
:1050B000400300F0B285DDF840C0BCF800400CF1C0
:1050C000040C13460025CDF840C06BE00F9C1093F4
:1050D00064420F94099D45F00405099599F80080F4
:1050E00052E70D980C992BAA02F0BCFD40B938AEDE
:1050F00036E72D9B23B10D980C992BAA02F0B2FD37
:105100000C9C0E98A38913F0400F18BF4FF0FF308E
:1051100049B0BDE8F08F4C4625E799F80080B8F11A
:105120002A0F09F1010001F01881A8F13003092BC1
:1051300098BF002101F2778010F8018B01EB81010B
:1051400003EB4101A8F13003092BF5D941EAE171E4
:105150000A9181461AE7099DA14C1A94AF068DF871
:105160008F2040F1D181DDF840C00CF1070323F01E
:10517000070303F108041094D3E90045DDF824C0C7
:105180001CF0010F00F0648454EA050000F0608414
:1051900030234CF0020C8DF890308DF89180CDF8D2
:1051A00024C002234FF0000A8DF88FA00A9900292D
:1051B00005DBDDF824C02CF0800CCDF824C054EAC7
:1051C000050040F0C7820A99002940F0C382002BF5
:1051D00040F03A84DDF824C01CF0010F00F0348464
:1051E00048AF302307F8413D089DEC1BDDF828C08F
:1051F00000256445A8BFA446CDF82CC01495BAF18B
:10520000000F02D00B9D01350B95099B13F0020393
:10521000129302D00B9D02350B95DDF824C01CF0D3
:10522000840CCDF84CC040F092820F9DDDF82CC06C
:10523000CCEB050BBBF1000F40F38982BBF1100FE3
:105240002D992C9ADFF8A0A12CDD1B9730465746EC
:105250001025CA460C9EA1460D9C06E0ABF1100B32
:10526000BBF1100F00F1080017DD01321031072AE1
:105270002D912C9207604560F0DD204631462BAA27
:1052800002F0F0FC00287FF43BAFABF1100BBBF158
:10529000100F2D992C9A38A8E7DC4C46D146BA4617
:1052A0001B9F064601320BEB010C072ACDF8B4C058
:1052B0002C9286E8000C00F31C849DF88FA0083621
:1052C000BAF1000F0FD02C9B01330CF1010C0DF142
:1052D0008F010122072BCDF8B4C02C9386E806007D
:1052E00000F39A830836129B73B12C9B01330CF1A7
:1052F000020C24A90222072BCDF8B4C02C9386E817
:10530000060000F395830836139D802D00F0CC82B3
:105310000A9DC4EB050ABAF1000F3BDDBAF1100F8C
:105320002C9B304D2BDD0A9432464FF0100B2E464D
:1053300061460D9C0C9D06E0AAF1100ABAF1100F0F
:1053400002F1080217DD01331031072B2D912C9348
:1053500082E84008F0DD204629462BAA02F082FCB4
:1053600000287FF4CDAEAAF1100ABAF1100F2D99E2
:105370002C9B38AAE7DC0A9C35468C46164601333E
:10538000D444072BCDF8B4C02C9386E8200400F356
:1053900037830836099DED0500F126822C9B376086
:1053A0000133A444072BCDF8B4C074602C9300F3F0
:1053B00011830836099C630749D50F9D0B982C1A59
:1053C000002C44DD102C2C9BDFF81CA02BDD574655
:1053D00010256246DDF83080DDF834A00BE000BF18
:1053E000B487000080870000D4870000103C102C98
:1053F00006F1080615DD01331032072B2D922C9390
:1054000037607560F2DD504641462BAA02F02AFC57
:1054100000287FF475AE103C102C2D9A2C9B38AED2
:10542000E9DC9446BA460133A444072BCDF8B4C056
:105430002C93C6F800A0746009DD0D980C992BAA76
:1054400002F010FC00287FF45BAEDDF8B4C00E9CC7
:105450000B980F9DA842ACBF241864190E94BCF1A0
:10546000000F40F0C38200232C9338AE56E599F824
:105470000080002A7FF488AD202285E5099D45F053
:105480000105099599F800807EE5099D45F08005A4
:10549000099599F8008077E50024A8F130030F946E
:1054A000214619F8018B01EB810103EB4101A8F1C1
:1054B0003003092BF5D90F9168E5DDF824C08DF88C
:1054C0008F204CF0100CCDF824C0099CA30640F1AD
:1054D000B280109DE91D21F00701D1E900230831B8
:1054E000109114461D46002A73F10000C0F28B8310
:1054F0009DF88FA0012359E6099DB74C8DF88F20A8
:10550000AF061A943FF52FAE099DED0640F15D847C
:10551000DDF840C0DCF800400CF1040CCDF840C0D0
:1055200000252BE6DDF824C08DF88F201CF0200F1D
:1055300000F03D84109C21680E9CE5172B46109DC1
:10554000224604351095C1E90023E7E4109C276842
:105550004FF0000A8DF88FA0251D002F00F0F58573
:105560000A9C002C3846C0F2A7855146224602F01C
:1055700027F8002800F01F860A9C1095C01BA04247
:10558000B8BF044624EAE475CDF828A0CDF850A0B1
:105590000B959DF88FA032E6DDF824C04CF0400C4E
:1055A000CDF824C099F80080EEE499F80080B8F1B5
:1055B0006C0F4B4600F08B84099D45F01005099552
:1055C000E2E4109C109D24680F94002C05F1040364
:1055D000FFF67CAD109399F80080D5E4109ADDF8C1
:1055E00024C07E4814681A903023151D4FF07808A7
:1055F0004CF0020C8DF890301095CDF824C00025A9
:105600008DF891800223CDE5109A109D12688DF8D7
:10561000B8200023012404359A460B9410958DF888
:105620008F300A9314932EAFEFE5099C8DF88F20ED
:10563000A3063FF54EAFDDF824C01CF0100F40F07C
:10564000D282099C670640F1CE82DDF840C0BCF9E9
:1056500000400CF1040CE51722462B46CDF840C063
:1056600041E799F800802B228EE4099D45F008055A
:10567000099599F8008087E4109D099C8DF88F208A
:10568000EB1D250723F0070340F18A83D3E900458A
:10569000CDE9164503F1080CCDF840C0DDE916014F
:1056A000FDF7E0FE0128DDE9160140F05F830022EE
:1056B0000023FEF729FB002840F06D859DF88FA0A0
:1056C00003250B95099D464F464B25F08005002488
:1056D000099500250A94B8F1470FD8BF1F46032447
:1056E00014958CE5DDF824C04CF0200CCDF824C0D6
:1056F00099F8008048E4109CE31D23F0070303F1B0
:1057000008051095D3E9004500234BE5109DEB1DDE
:1057100023F0070303F1080CD3E90045CDF840C09E
:1057200001233FE58DF88F20B8F1000F3FF4E1AC85
:1057300000234FF0010C9A46CDF82CC08DF8B880AC
:105740008DF88F300A93149364462EAF5DE5DDF833
:10575000B4C0B5E5012B00F0EC80022B0DF1DF03A6
:1057600018D1DDF868C0194604F00F00220942EA9A
:1057700005720F462B091CF80010397052EA03001D
:1057800014461D4607F1FF31EED1089DCDE91E23D9
:10579000EC1B2BE5E00840EA457004F00702E9083D
:1057A000303250EA010C1F461A7004460D4603F1D0
:1057B000FF33EFD1099CCDE91C01E007394640F1E8
:1057C000C180302A00F0BE80089D1F463023EC1BAC
:1057D00001F8013C0AE500BFA0870000B487000083
:1057E0009487000090870000B8F1650F40F3AD800A
:1057F000DDE9160100220023CDF81CC0FEF77AFA7D
:10580000DDF81CC0002800F026812C9BAA4A3260DB
:1058100001330CF1010C0122072BCDF8B4C02C93FD
:10582000726000F3F7820836259B119CA34203DBCC
:10583000099DEC077FF5BEAD2C9B189D159C34602F
:105840000133AC44072BCDF8B4C075602C9300F342
:1058500048830836119D6C1E002C7FF7ABAD102CD1
:105860002C9B964D40F3978110276246DDF83480DB
:10587000DDF830A004E00836103C102C40F38A819B
:1058800001331032072B2D922C9386E8A000F2DD15
:10589000404651462BAA02F0E5F900287FF430ACCF
:1058A0002D9A2C9B38AEE7E70F9D0B98C0EB050AAD
:1058B000BAF1000F7FF72CADBAF1100F2C9B7F4D82
:1058C0002BDD129432464FF0100B2E4661460D9C94
:1058D0000C9D06E0AAF1100ABAF1100F02F10802BD
:1058E00017DD01331031072B2D912C9382E84008EE
:1058F000F0DD204629462BAA02F0B4F900287FF4F7
:10590000FFABAAF1100ABAF1100F2D992C9B38AAFF
:10591000E7DC129C35468C4616460133D444072BEF
:10592000CDF8B4C02C9386E8200400F31282083628
:10593000EEE4002D08BF0A2C80F0388148AF3034E7
:1059400007F8414D089DEC1B50E4119C012C2C9C48
:1059500040F3D58101340CF101030122072C37609B
:105960002D932C94726000F3DB810836DDF86080A3
:10597000159D356001349844189DCDF8B480072CEE
:105980002C94756000F3D8810836DDE916010022F9
:105990000023FEF7AFF9119D002840F0B9806B1E7F
:1059A000013401379844072C2C94CDF8B48037602B
:1059B000736000F3E2800836DDF864C0199D01349D
:1059C000C44427AB072CCDF8B4C02C9486E828003B
:1059D0007FF7EFAC0D980C992BAA02F043F9002841
:1059E0007FF48EABDDF8B4C038AEE3E40D980C99CB
:1059F0002BAA02F037F900283FF435ADFFF780BB42
:105A00000D980C992BAA02F02DF900287FF478ABA1
:105A1000DDF8B4C038AEBDE40D980C992BAA02F0A5
:105A200021F900287FF46CABDDF8B4C038AE5AE43D
:105A30000D980C992BAA02F015F900287FF460ABA1
:105A4000DDF8B4C038AE5FE40A9C38AFFFF7CEBBD8
:105A50000223FFF7A7BB259B002B40F3E781119C96
:105A6000149DDDF844A0AC42A8BF2C46002CBA44DB
:105A70000BDD2C9B37600133A444072BCDF8B4C059
:105A800074602C9300F328830836149D24EAE47490
:105A90002C1B002C40F3DB80102C2C9B074D40F37B
:105AA000AD810A974FF010082F4662462546DDF873
:105AB00034B00C9C09E000BFD08700008087000054
:105AC0000836103D102D40F3958101331032072B1D
:105AD0002D922C9386E88001F2DD584621462BAAB0
